{
  "_format": "hh-sol-artifact-1",
  "contractName": "PostChainNft",
  "sourceName": "contracts/PostChainNft.sol",
  "abi": [
    {
      "inputs": [
        {
          "internalType": "string",
          "name": "sunglassesSVG",
          "type": "string"
        },
        {
          "internalType": "string",
          "name": "hatSVG",
          "type": "string"
        },
        {
          "internalType": "address",
          "name": "postChainAddress",
          "type": "address"
        }
      ],
      "stateMutability": "nonpayable",
      "type": "constructor"
    },
    {
      "inputs": [],
      "name": "PostChain__NoMint",
      "type": "error"
    },
    {
      "anonymous": false,
      "inputs": [
        {
          "indexed": true,
          "internalType": "address",
          "name": "owner",
          "type": "address"
        },
        {
          "indexed": true,
          "internalType": "address",
          "name": "approved",
          "type": "address"
        },
        {
          "indexed": true,
          "internalType": "uint256",
          "name": "tokenId",
          "type": "uint256"
        }
      ],
      "name": "Approval",
      "type": "event"
    },
    {
      "anonymous": false,
      "inputs": [
        {
          "indexed": true,
          "internalType": "address",
          "name": "owner",
          "type": "address"
        },
        {
          "indexed": true,
          "internalType": "address",
          "name": "operator",
          "type": "address"
        },
        {
          "indexed": false,
          "internalType": "bool",
          "name": "approved",
          "type": "bool"
        }
      ],
      "name": "ApprovalForAll",
      "type": "event"
    },
    {
      "anonymous": false,
      "inputs": [
        {
          "indexed": true,
          "internalType": "uint256",
          "name": "tokenId",
          "type": "uint256"
        }
      ],
      "name": "NFTMinted",
      "type": "event"
    },
    {
      "anonymous": false,
      "inputs": [
        {
          "indexed": true,
          "internalType": "address",
          "name": "from",
          "type": "address"
        },
        {
          "indexed": true,
          "internalType": "address",
          "name": "to",
          "type": "address"
        },
        {
          "indexed": true,
          "internalType": "uint256",
          "name": "tokenId",
          "type": "uint256"
        }
      ],
      "name": "Transfer",
      "type": "event"
    },
    {
      "inputs": [
        {
          "internalType": "address",
          "name": "to",
          "type": "address"
        },
        {
          "internalType": "uint256",
          "name": "tokenId",
          "type": "uint256"
        }
      ],
      "name": "approve",
      "outputs": [],
      "stateMutability": "nonpayable",
      "type": "function"
    },
    {
      "inputs": [
        {
          "internalType": "address",
          "name": "owner",
          "type": "address"
        }
      ],
      "name": "balanceOf",
      "outputs": [
        {
          "internalType": "uint256",
          "name": "",
          "type": "uint256"
        }
      ],
      "stateMutability": "view",
      "type": "function"
    },
    {
      "inputs": [
        {
          "internalType": "uint256",
          "name": "tokenId",
          "type": "uint256"
        }
      ],
      "name": "getApproved",
      "outputs": [
        {
          "internalType": "address",
          "name": "",
          "type": "address"
        }
      ],
      "stateMutability": "view",
      "type": "function"
    },
    {
      "inputs": [
        {
          "internalType": "uint256",
          "name": "postId",
          "type": "uint256"
        }
      ],
      "name": "getMinted",
      "outputs": [
        {
          "internalType": "bool",
          "name": "",
          "type": "bool"
        }
      ],
      "stateMutability": "view",
      "type": "function"
    },
    {
      "inputs": [
        {
          "internalType": "address",
          "name": "owner",
          "type": "address"
        },
        {
          "internalType": "address",
          "name": "operator",
          "type": "address"
        }
      ],
      "name": "isApprovedForAll",
      "outputs": [
        {
          "internalType": "bool",
          "name": "",
          "type": "bool"
        }
      ],
      "stateMutability": "view",
      "type": "function"
    },
    {
      "inputs": [
        {
          "internalType": "uint256",
          "name": "postId",
          "type": "uint256"
        }
      ],
      "name": "mintNft",
      "outputs": [],
      "stateMutability": "nonpayable",
      "type": "function"
    },
    {
      "inputs": [],
      "name": "name",
      "outputs": [
        {
          "internalType": "string",
          "name": "",
          "type": "string"
        }
      ],
      "stateMutability": "view",
      "type": "function"
    },
    {
      "inputs": [
        {
          "internalType": "uint256",
          "name": "tokenId",
          "type": "uint256"
        }
      ],
      "name": "ownerOf",
      "outputs": [
        {
          "internalType": "address",
          "name": "",
          "type": "address"
        }
      ],
      "stateMutability": "view",
      "type": "function"
    },
    {
      "inputs": [
        {
          "internalType": "uint256",
          "name": "_tokenId",
          "type": "uint256"
        },
        {
          "internalType": "uint256",
          "name": "_salePrice",
          "type": "uint256"
        }
      ],
      "name": "royaltyInfo",
      "outputs": [
        {
          "internalType": "address",
          "name": "",
          "type": "address"
        },
        {
          "internalType": "uint256",
          "name": "",
          "type": "uint256"
        }
      ],
      "stateMutability": "view",
      "type": "function"
    },
    {
      "inputs": [
        {
          "internalType": "address",
          "name": "from",
          "type": "address"
        },
        {
          "internalType": "address",
          "name": "to",
          "type": "address"
        },
        {
          "internalType": "uint256",
          "name": "tokenId",
          "type": "uint256"
        }
      ],
      "name": "safeTransferFrom",
      "outputs": [],
      "stateMutability": "nonpayable",
      "type": "function"
    },
    {
      "inputs": [
        {
          "internalType": "address",
          "name": "from",
          "type": "address"
        },
        {
          "internalType": "address",
          "name": "to",
          "type": "address"
        },
        {
          "internalType": "uint256",
          "name": "tokenId",
          "type": "uint256"
        },
        {
          "internalType": "bytes",
          "name": "data",
          "type": "bytes"
        }
      ],
      "name": "safeTransferFrom",
      "outputs": [],
      "stateMutability": "nonpayable",
      "type": "function"
    },
    {
      "inputs": [
        {
          "internalType": "address",
          "name": "operator",
          "type": "address"
        },
        {
          "internalType": "bool",
          "name": "approved",
          "type": "bool"
        }
      ],
      "name": "setApprovalForAll",
      "outputs": [],
      "stateMutability": "nonpayable",
      "type": "function"
    },
    {
      "inputs": [
        {
          "internalType": "bytes4",
          "name": "interfaceId",
          "type": "bytes4"
        }
      ],
      "name": "supportsInterface",
      "outputs": [
        {
          "internalType": "bool",
          "name": "",
          "type": "bool"
        }
      ],
      "stateMutability": "view",
      "type": "function"
    },
    {
      "inputs": [],
      "name": "symbol",
      "outputs": [
        {
          "internalType": "string",
          "name": "",
          "type": "string"
        }
      ],
      "stateMutability": "view",
      "type": "function"
    },
    {
      "inputs": [
        {
          "internalType": "uint256",
          "name": "tokenId",
          "type": "uint256"
        }
      ],
      "name": "tokenURI",
      "outputs": [
        {
          "internalType": "string",
          "name": "",
          "type": "string"
        }
      ],
      "stateMutability": "view",
      "type": "function"
    },
    {
      "inputs": [
        {
          "internalType": "address",
          "name": "from",
          "type": "address"
        },
        {
          "internalType": "address",
          "name": "to",
          "type": "address"
        },
        {
          "internalType": "uint256",
          "name": "tokenId",
          "type": "uint256"
        }
      ],
      "name": "transferFrom",
      "outputs": [],
      "stateMutability": "nonpayable",
      "type": "function"
    }
  ],
  "bytecode": "0x60a06040523480156200001157600080fd5b5060405162005657380380620056578339818101604052810190620000379190620004e1565b82826040518060400160405280600981526020017f506f7374436861696e00000000000000000000000000000000000000000000008152506040518060400160405280600281526020017f50430000000000000000000000000000000000000000000000000000000000008152508160009080519060200190620000bd9291906200039c565b508060019080519060200190620000d69291906200039c565b5050506200010d7fec98740f9f44d688c5f9d323379a78ed00f9cace84ff0126a2003f8135634f6560001b6200039660201b60201c565b620001417f8a6d5913acc80ee731a87736f648f4a1164d5b85401268ef17943c80560f608160001b6200039660201b60201c565b620001757fe3c9ab73ab4c7d47e39bb3ad4b663a4d2fbc403f0317220976bc16573dfe5b1d60001b6200039660201b60201c565b81600890805190602001906200018d9291906200039c565b50620001c27f39801c7d3f2baf75210cceb474383cb94f47e915f5ef217a2a13375a6085271560001b6200039660201b60201c565b620001f67f6f6d781dd18eb90b41661ba38dc02d3ca511e73cea47b2291598b824bd1b573660001b6200039660201b60201c565b80600990805190602001906200020e9291906200039c565b505050620002457fc8842eb87e4695140bd39a492bef70a7df8cdb9dc1b30439c3e7da002cbffe8860001b6200039960201b60201c565b620002797f92e61e961fd68516dcbd3baa3a712f816ba25a4b8142248082331691ac91233d60001b6200039960201b60201c565b620002ad7f349b153e15cd02831b20f31b7e1479295be21542db2eedb2e7ce330fb59cd4d360001b6200039960201b60201c565b3373ffffffffffffffffffffffffffffffffffffffff1660808173ffffffffffffffffffffffffffffffffffffffff1660601b81525050620003187fe09c65f40dadd540d49f697930b4d18c32b6e14a8e6c76847843bad6482a4ff560001b6200039960201b60201c565b6200034c7f7a146d63f869add5205682c5a972095687a34e98b5c00e9e547ad4e65f4d575360001b6200039960201b60201c565b80600a60006101000a81548173ffffffffffffffffffffffffffffffffffffffff021916908373ffffffffffffffffffffffffffffffffffffffff1602179055505050506200074d565b50565b50565b828054620003aa9062000644565b90600052602060002090601f016020900481019282620003ce57600085556200041a565b82601f10620003e957805160ff19168380011785556200041a565b828001600101855582156200041a579182015b8281111562000419578251825591602001919060010190620003fc565b5b5090506200042991906200042d565b5090565b5b80821115620004485760008160009055506001016200042e565b5090565b6000620004636200045d84620005a4565b6200057b565b90508281526020810184848401111562000482576200048162000713565b5b6200048f8482856200060e565b509392505050565b600081519050620004a88162000733565b92915050565b600082601f830112620004c657620004c56200070e565b5b8151620004d88482602086016200044c565b91505092915050565b600080600060608486031215620004fd57620004fc6200071d565b5b600084015167ffffffffffffffff8111156200051e576200051d62000718565b5b6200052c86828701620004ae565b935050602084015167ffffffffffffffff81111562000550576200054f62000718565b5b6200055e86828701620004ae565b9250506040620005718682870162000497565b9150509250925092565b6000620005876200059a565b90506200059582826200067a565b919050565b6000604051905090565b600067ffffffffffffffff821115620005c257620005c1620006df565b5b620005cd8262000722565b9050602081019050919050565b6000620005e782620005ee565b9050919050565b600073ffffffffffffffffffffffffffffffffffffffff82169050919050565b60005b838110156200062e57808201518184015260208101905062000611565b838111156200063e576000848401525b50505050565b600060028204905060018216806200065d57607f821691505b60208210811415620006745762000673620006b0565b5b50919050565b620006858262000722565b810181811067ffffffffffffffff82111715620006a757620006a6620006df565b5b80604052505050565b7f4e487b7100000000000000000000000000000000000000000000000000000000600052602260045260246000fd5b7f4e487b7100000000000000000000000000000000000000000000000000000000600052604160045260246000fd5b600080fd5b600080fd5b600080fd5b600080fd5b6000601f19601f8301169050919050565b6200073e81620005da565b81146200074a57600080fd5b50565b60805160601c614eee6200076960003960005050614eee6000f3fe608060405234801561001057600080fd5b50600436106101005760003560e01c806342842e0e11610097578063a22cb46511610066578063a22cb465146102d2578063b88d4fde146102ee578063c87b56dd1461030a578063e985e9c51461033a57610100565b806342842e0e146102385780636352211e1461025457806370a082311461028457806395d89b41146102b457610100565b80630d730acc116100d35780630d730acc1461019f5780631a9e379f146101bb57806323b872dd146101eb5780632a55205a1461020757610100565b806301ffc9a71461010557806306fdde0314610135578063081812fc14610153578063095ea7b314610183575b600080fd5b61011f600480360381019061011a9190613307565b61036a565b60405161012c9190613ce1565b60405180910390f35b61013d610400565b60405161014a9190613cfc565b60405180910390f35b61016d600480360381019061016891906133aa565b610492565b60405161017a9190613c51565b60405180910390f35b61019d600480360381019061019891906132c7565b6104d8565b005b6101b960048036038101906101b491906133aa565b6105f0565b005b6101d560048036038101906101d091906133aa565b610b5a565b6040516101e29190613ce1565b60405180910390f35b610205600480360381019061020091906131b1565b610c08565b005b610221600480360381019061021c91906133d7565b610c68565b60405161022f929190613cb8565b60405180910390f35b610252600480360381019061024d91906131b1565b610e53565b005b61026e600480360381019061026991906133aa565b610e73565b60405161027b9190613c51565b60405180910390f35b61029e60048036038101906102999190613144565b610f25565b6040516102ab9190613ede565b60405180910390f35b6102bc610fdd565b6040516102c99190613cfc565b60405180910390f35b6102ec60048036038101906102e79190613287565b61106f565b005b61030860048036038101906103039190613204565b611085565b005b610324600480360381019061031f91906133aa565b6110e7565b6040516103319190613cfc565b60405180910390f35b610354600480360381019061034f9190613171565b611372565b6040516103619190613ce1565b60405180910390f35b60006103987fce867e2b40660f1ecaae968096d261902fa2ff6401c4bf79b303c148b6a605b560001b611406565b6103c47f95812be70048b5322f56c5aa82e79939fd4823f1b73385b60b24a79044d6735060001b611406565b6103f07f31dbd63346b58ff1ba995141b89caa0453bd213804b0bfea2e20eae39a4877db60001b611406565b6103f982611409565b9050919050565b60606000805461040f906141b8565b80601f016020809104026020016040519081016040528092919081815260200182805461043b906141b8565b80156104885780601f1061045d57610100808354040283529160200191610488565b820191906000526020600020905b81548152906001019060200180831161046b57829003601f168201915b5050505050905090565b600061049d82611483565b6004600083815260200190815260200160002060009054906101000a900473ffffffffffffffffffffffffffffffffffffffff169050919050565b60006104e382610e73565b90508073ffffffffffffffffffffffffffffffffffffffff168373ffffffffffffffffffffffffffffffffffffffff161415610554576040517f08c379a000000000000000000000000000000000000000000000000000000000815260040161054b90613e5e565b60405180910390fd5b8073ffffffffffffffffffffffffffffffffffffffff166105736114ce565b73ffffffffffffffffffffffffffffffffffffffff1614806105a257506105a18161059c6114ce565b611372565b5b6105e1576040517f08c379a00000000000000000000000000000000000000000000000000000000081526004016105d890613dfe565b60405180910390fd5b6105eb83836114d6565b505050565b61061c7f82a330eefd26bb1a838e342968c2e2fd6d935b73e632f4be6e3da9a55b951ff860001b611406565b6106487f78b343766b96c24570d612c11e14081a3880c183cc639d4781d1d5c1a25cb72060001b611406565b6106747fb59a19cbbcd69956336648c6589bdd387eef82c51529abc01b8a7b47fdfd134160001b611406565b6000600a60009054906101000a900473ffffffffffffffffffffffffffffffffffffffff1673ffffffffffffffffffffffffffffffffffffffff166340731c24836040518263ffffffff1660e01b81526004016106d19190613ede565b60006040518083038186803b1580156106e957600080fd5b505afa1580156106fd573d6000803e3d6000fd5b505050506040513d6000823e3d601f19601f820116820180604052508101906107269190613361565b90506107547fbed96e28323dcc42496da64e602e9bfcf6fe5efd22e6f824cbad092ac03c990160001b611406565b6107807fc5f7ce3a9178a775b6b34b7603cbd9142e789bfcf81b76e2c0e7b1c35038edcb60001b611406565b8060800151421015610816576107b87f9632866af4c63c3a3b8b363016b082a661e2e5f790c950e84a1af43f365082ba60001b611406565b6107e47feb349edce3e29a4bfcfac57b6ae26202954bf53859b3c15744f9fa241f1948a260001b611406565b6040517f115221eb00000000000000000000000000000000000000000000000000000000815260040160405180910390fd5b6108427fabd9836fa31023112f5279fff6c286e3625c44b1a5c1edd7aa0ccfc619461cfb60001b611406565b61086e7fd9322fecdddee178bee844c35e529642d0e1b09da338a2f3affa4e9debd3323560001b611406565b61089a7f7cf7caba42300f38dd2d5fe1deabc1afd111bd9d9cf11a0ad4e88ef326e7d7d860001b611406565b806000015173ffffffffffffffffffffffffffffffffffffffff163373ffffffffffffffffffffffffffffffffffffffff161461095b576108fd7fd0d5899846fb4848e8d153ed34635789c76af670293c7a5480c007e7fd0d64fe60001b611406565b6109297fbd63a871c4a62fa26ba438453dd341fa12370bebe0b7d58022a0d8b36d3050c360001b611406565b6040517f115221eb00000000000000000000000000000000000000000000000000000000815260040160405180910390fd5b6109877f65f8efafbfbf196f0bf2d5f1adf9bb7ef35327032be57f7473b1a26a70ef38db60001b611406565b6109b37fa960de87c86d3dd2f734568b65fe8803acf27d2020b5ded92599b515aeead2f460001b611406565b6109df7f5aa22458494ecc7e4e166709eaa9b13a51c0f41088f139e86464f2bfdf6c267160001b611406565b6109e9338361158f565b610a157fd5a8916700a484d648aa1682c84e5664241f1427721b3087dc2bf0128723935460001b611406565b610a417f483e4adb8a2d8e4f75017ab9eec85002bf2f20795e3793bc4b49f561126c3ed160001b611406565b610a4d823360fa6115ad565b610a797fe05ac8dc2ed3ab4242d2ae79ab6a7c97c2567fef75f5fc770269668a8492cfc160001b611406565b610aa57f391e8fa8a7ea556a3b7e9d7871b97dc170ff939cb5f72b4ce15b63686405874360001b611406565b6001600b600084815260200190815260200160002060006101000a81548160ff021916908315150217905550610afd7fe0a7dac29534e575c418606ea82b227214ec2f912ddc5284ee315e4f5ec88ff960001b611406565b610b297f9552c42fbf11bec02d5b257cc92ff6d8fc8dfad85dfbe31af2325aff403aca9d60001b611406565b817fd9dc24857f317ed9abbbb42e920ede0104231eb1d3d70236a74887ffaf15986860405160405180910390a25050565b6000610b887f6bbea1300a63a52f80cacc0defcd60e64ee78070d1496d0246db22878c128dfc60001b611406565b610bb47f97715fc6ff2c9df3086e9254ac809a0faafef00bc239328f30aa7e1e4bcc833160001b611406565b610be07f99c26127d7452cebeb6c9211cb03989fd005ffde1a8bcbcdf1f93586ab77cba060001b611406565b600b600083815260200190815260200160002060009054906101000a900460ff169050919050565b610c19610c136114ce565b82611755565b610c58576040517f08c379a0000000000000000000000000000000000000000000000000000000008152600401610c4f90613ebe565b60405180910390fd5b610c638383836117ea565b505050565b6000806000600760008681526020019081526020016000206040518060400160405290816000820160009054906101000a900473ffffffffffffffffffffffffffffffffffffffff1673ffffffffffffffffffffffffffffffffffffffff1673ffffffffffffffffffffffffffffffffffffffff1681526020016000820160149054906101000a90046bffffffffffffffffffffffff166bffffffffffffffffffffffff166bffffffffffffffffffffffff16815250509050600073ffffffffffffffffffffffffffffffffffffffff16816000015173ffffffffffffffffffffffffffffffffffffffff161415610dfe5760066040518060400160405290816000820160009054906101000a900473ffffffffffffffffffffffffffffffffffffffff1673ffffffffffffffffffffffffffffffffffffffff1673ffffffffffffffffffffffffffffffffffffffff1681526020016000820160149054906101000a90046bffffffffffffffffffffffff166bffffffffffffffffffffffff166bffffffffffffffffffffffff168152505090505b6000610e08611a51565b6bffffffffffffffffffffffff1682602001516bffffffffffffffffffffffff1686610e34919061404a565b610e3e9190614019565b90508160000151819350935050509250929050565b610e6e83838360405180602001604052806000815250611085565b505050565b6000806002600084815260200190815260200160002060009054906101000a900473ffffffffffffffffffffffffffffffffffffffff169050600073ffffffffffffffffffffffffffffffffffffffff168173ffffffffffffffffffffffffffffffffffffffff161415610f1c576040517f08c379a0000000000000000000000000000000000000000000000000000000008152600401610f1390613e3e565b60405180910390fd5b80915050919050565b60008073ffffffffffffffffffffffffffffffffffffffff168273ffffffffffffffffffffffffffffffffffffffff161415610f96576040517f08c379a0000000000000000000000000000000000000000000000000000000008152600401610f8d90613dde565b60405180910390fd5b600360008373ffffffffffffffffffffffffffffffffffffffff1673ffffffffffffffffffffffffffffffffffffffff168152602001908152602001600020549050919050565b606060018054610fec906141b8565b80601f0160208091040260200160405190810160405280929190818152602001828054611018906141b8565b80156110655780601f1061103a57610100808354040283529160200191611065565b820191906000526020600020905b81548152906001019060200180831161104857829003601f168201915b5050505050905090565b61108161107a6114ce565b8383611a5b565b5050565b6110966110906114ce565b83611755565b6110d5576040517f08c379a00000000000000000000000000000000000000000000000000000000081526004016110cc90613ebe565b60405180910390fd5b6110e184848484611bc8565b50505050565b60606111157f78a253ad5653c8ad63873e6a47fc2f347a2dc063131ca7f945763b104d1b76d860001b611406565b6111417f70badb84a8b93fd35be84bf46fd3412e2ee51ef482fe3de8ae5bdeb781054c5060001b611406565b61116d7f5ea37b25d898e6e40327636e9cb0910a4e1eb8258ca9a283d85c5d3419f802b760001b611406565b6111997f9f27185acf6730042a2ef4301a8b6dff78aa1194fe086d66e07b46148d12f93960001b611406565b6111a282611c24565b6111ab57600080fd5b6111d77f4b4c6c23b294b2ebc145ca9f257288df4ea4918251349560a2b81e27babe228360001b611406565b6112037fad8076e91c8610b06d7a82c53a333c00e97519d8a493287ee8961e9e58542c6060001b611406565b61122f7fb8ec1d65e2782400109d3e0ae0b5f8c339922d1bb9a55362cf9bdf2f262d620d60001b611406565b600061124261123d84611c90565b611ea0565b90506112707f6d2b59c2fbba218d6086adabe4b8ee4045ec1c389800806e9ef4dd7890444e4b60001b611406565b61129c7f023ef8708469fa0431d6b3dc21a221c3433629939bb8a008ba85b8cf9dd75a6360001b611406565b60006112a784612025565b6040516020016112b79190613add565b60405160208183030381529060405290506112f47f8f57de65be627fb7352814a76f9a8122658bef27237a887973444ffbe701436360001b611406565b6113207fc5bb7d90c03e05a33bf3e2a5cf9bcccde686785dea8a9fd5a58e7f6b62022a5560001b611406565b61134a8183604051602001611336929190613a82565b604051602081830303815290604052611ea0565b60405160200161135a9190613c2f565b60405160208183030381529060405292505050919050565b6000600560008473ffffffffffffffffffffffffffffffffffffffff1673ffffffffffffffffffffffffffffffffffffffff16815260200190815260200160002060008373ffffffffffffffffffffffffffffffffffffffff1673ffffffffffffffffffffffffffffffffffffffff16815260200190815260200160002060009054906101000a900460ff16905092915050565b50565b60007f2a55205a000000000000000000000000000000000000000000000000000000007bffffffffffffffffffffffffffffffffffffffffffffffffffffffff1916827bffffffffffffffffffffffffffffffffffffffffffffffffffffffff1916148061147c575061147b82612186565b5b9050919050565b61148c81611c24565b6114cb576040517f08c379a00000000000000000000000000000000000000000000000000000000081526004016114c290613e3e565b60405180910390fd5b50565b600033905090565b816004600083815260200190815260200160002060006101000a81548173ffffffffffffffffffffffffffffffffffffffff021916908373ffffffffffffffffffffffffffffffffffffffff160217905550808273ffffffffffffffffffffffffffffffffffffffff1661154983610e73565b73ffffffffffffffffffffffffffffffffffffffff167f8c5be1e5ebec7d5bd14f71427d1e84f3dd0314c0f7b2291e5b200ac8c7c3b92560405160405180910390a45050565b6115a9828260405180602001604052806000815250612268565b5050565b6115b5611a51565b6bffffffffffffffffffffffff16816bffffffffffffffffffffffff161115611613576040517f08c379a000000000000000000000000000000000000000000000000000000000815260040161160a90613e9e565b60405180910390fd5b600073ffffffffffffffffffffffffffffffffffffffff168273ffffffffffffffffffffffffffffffffffffffff161415611683576040517f08c379a000000000000000000000000000000000000000000000000000000000815260040161167a90613e7e565b60405180910390fd5b60405180604001604052808373ffffffffffffffffffffffffffffffffffffffff168152602001826bffffffffffffffffffffffff168152506007600085815260200190815260200160002060008201518160000160006101000a81548173ffffffffffffffffffffffffffffffffffffffff021916908373ffffffffffffffffffffffffffffffffffffffff16021790555060208201518160000160146101000a8154816bffffffffffffffffffffffff02191690836bffffffffffffffffffffffff160217905550905050505050565b60008061176183610e73565b90508073ffffffffffffffffffffffffffffffffffffffff168473ffffffffffffffffffffffffffffffffffffffff1614806117a357506117a28185611372565b5b806117e157508373ffffffffffffffffffffffffffffffffffffffff166117c984610492565b73ffffffffffffffffffffffffffffffffffffffff16145b91505092915050565b8273ffffffffffffffffffffffffffffffffffffffff1661180a82610e73565b73ffffffffffffffffffffffffffffffffffffffff1614611860576040517f08c379a000000000000000000000000000000000000000000000000000000000815260040161185790613d5e565b60405180910390fd5b600073ffffffffffffffffffffffffffffffffffffffff168273ffffffffffffffffffffffffffffffffffffffff1614156118d0576040517f08c379a00000000000000000000000000000000000000000000000000000000081526004016118c790613d9e565b60405180910390fd5b6118db8383836122c3565b6118e66000826114d6565b6001600360008573ffffffffffffffffffffffffffffffffffffffff1673ffffffffffffffffffffffffffffffffffffffff168152602001908152602001600020600082825461193691906140a4565b925050819055506001600360008473ffffffffffffffffffffffffffffffffffffffff1673ffffffffffffffffffffffffffffffffffffffff168152602001908152602001600020600082825461198d9190613fc3565b92505081905550816002600083815260200190815260200160002060006101000a81548173ffffffffffffffffffffffffffffffffffffffff021916908373ffffffffffffffffffffffffffffffffffffffff160217905550808273ffffffffffffffffffffffffffffffffffffffff168473ffffffffffffffffffffffffffffffffffffffff167fddf252ad1be2c89b69c2b068fc378daa952ba7f163c4a11628f55a4df523b3ef60405160405180910390a4611a4c8383836122c8565b505050565b6000612710905090565b8173ffffffffffffffffffffffffffffffffffffffff168373ffffffffffffffffffffffffffffffffffffffff161415611aca576040517f08c379a0000000000000000000000000000000000000000000000000000000008152600401611ac190613dbe565b60405180910390fd5b80600560008573ffffffffffffffffffffffffffffffffffffffff1673ffffffffffffffffffffffffffffffffffffffff16815260200190815260200160002060008473ffffffffffffffffffffffffffffffffffffffff1673ffffffffffffffffffffffffffffffffffffffff16815260200190815260200160002060006101000a81548160ff0219169083151502179055508173ffffffffffffffffffffffffffffffffffffffff168373ffffffffffffffffffffffffffffffffffffffff167f17307eab39ab6107e8899845ad3d59bd9653f200f220920489ca2b5937696c3183604051611bbb9190613ce1565b60405180910390a3505050565b611bd38484846117ea565b611bdf848484846122cd565b611c1e576040517f08c379a0000000000000000000000000000000000000000000000000000000008152600401611c1590613d3e565b60405180910390fd5b50505050565b60008073ffffffffffffffffffffffffffffffffffffffff166002600084815260200190815260200160002060009054906101000a900473ffffffffffffffffffffffffffffffffffffffff1673ffffffffffffffffffffffffffffffffffffffff1614159050919050565b6060611cbe7f014cccdc1aaf8b30f0b93953123de27e7c9be0fd17408e389ad8a7ba6337893860001b611406565b611cea7f329254a0d0bdcb936bfa3340d27a55762872ae905595b326789177c40260dde760001b611406565b611d167fdeda87145f2fbf1ed238924fb9978401b91a92924d99458607ab32ac1ce0204e60001b611406565b6000600a60009054906101000a900473ffffffffffffffffffffffffffffffffffffffff1673ffffffffffffffffffffffffffffffffffffffff166340731c24846040518263ffffffff1660e01b8152600401611d739190613ede565b60006040518083038186803b158015611d8b57600080fd5b505afa158015611d9f573d6000803e3d6000fd5b505050506040513d6000823e3d601f19601f82011682018060405250810190611dc89190613361565b9050611df67fbf917ee711532a30f4f338a1c8bb64b6012df44f07d1f856496ac5bd6c360ffd60001b611406565b611e227f2901ff3b93abb91f71df58ac9e85992ddab19e8391eaf7ab990671b529a5b01960001b611406565b6000611e3c84836000015184602001518560a00151612464565b9050611e6a7fe7fbb1072204734a737520da6cc62c02550584bda6ccfee833ceffa61539c26b60001b611406565b611e967fe2f7a50b3a36510cb58379111257374fffa18da74566f8968d5bb3d571e9d28360001b611406565b8092505050919050565b6060600082511415611ec357604051806020016040528060008152509050612020565b6000604051806060016040528060408152602001614e796040913990506000600360028551611ef29190613fc3565b611efc9190614019565b6004611f08919061404a565b90506000602082611f199190613fc3565b67ffffffffffffffff811115611f3257611f31614351565b5b6040519080825280601f01601f191660200182016040528015611f645781602001600182028036833780820191505090505b509050818152600183018586518101602084015b81831015611fdf576003830192508251603f8160121c1685015160f81b8252600182019150603f81600c1c1685015160f81b8252600182019150603f8160061c1685015160f81b8252600182019150603f811685015160f81b825260018201915050611f78565b600389510660018114611ff9576002811461200957612014565b613d3d60f01b6002830352612014565b603d60f81b60018303525b50505050508093505050505b919050565b6060600082141561206d576040518060400160405280600181526020017f30000000000000000000000000000000000000000000000000000000000000008152509050612181565b600082905060005b6000821461209f5780806120889061421b565b915050600a826120989190614019565b9150612075565b60008167ffffffffffffffff8111156120bb576120ba614351565b5b6040519080825280601f01601f1916602001820160405280156120ed5781602001600182028036833780820191505090505b5090505b6000851461217a5760018261210691906140a4565b9150600a856121159190614264565b60306121219190613fc3565b60f81b81838151811061213757612136614322565b5b60200101907effffffffffffffffffffffffffffffffffffffffffffffffffffffffffffff1916908160001a905350600a856121739190614019565b94506120f1565b8093505050505b919050565b60007f80ac58cd000000000000000000000000000000000000000000000000000000007bffffffffffffffffffffffffffffffffffffffffffffffffffffffff1916827bffffffffffffffffffffffffffffffffffffffffffffffffffffffff1916148061225157507f5b5e139f000000000000000000000000000000000000000000000000000000007bffffffffffffffffffffffffffffffffffffffffffffffffffffffff1916827bffffffffffffffffffffffffffffffffffffffffffffffffffffffff1916145b80612261575061226082612a5b565b5b9050919050565b6122728383612ac5565b61227f60008484846122cd565b6122be576040517f08c379a00000000000000000000000000000000000000000000000000000000081526004016122b590613d3e565b60405180910390fd5b505050565b505050565b505050565b60006122ee8473ffffffffffffffffffffffffffffffffffffffff16612c9f565b15612457578373ffffffffffffffffffffffffffffffffffffffff1663150b7a026123176114ce565b8786866040518563ffffffff1660e01b81526004016123399493929190613c6c565b602060405180830381600087803b15801561235357600080fd5b505af192505050801561238457506040513d601f19601f820116820180604052508101906123819190613334565b60015b612407573d80600081146123b4576040519150601f19603f3d011682016040523d82523d6000602084013e6123b9565b606091505b506000815114156123ff576040517f08c379a00000000000000000000000000000000000000000000000000000000081526004016123f690613d3e565b60405180910390fd5b805181602001fd5b63150b7a0260e01b7bffffffffffffffffffffffffffffffffffffffffffffffffffffffff1916817bffffffffffffffffffffffffffffffffffffffffffffffffffffffff19161491505061245c565b600190505b949350505050565b60606124927f216f9024ac16b94974281f8e2caec54c34e19f2d92c53dd42f0107dac9ff21ea60001b612cc2565b6124be7ff0310e61c9d5be74c249bc808a6277b79a5b918ee5782778942f12abbc78869460001b612cc2565b6124ea7fb0ea638d5d6a7b5b567f001b328dd4056a22e8637b69fdaaa439ca71f110637260001b612cc2565b600085905061251b7ff1ad96a7ef6cce3d0c5e0f68bcc06e090f03efc2aeca5cc9b2496792c9e854b260001b612cc2565b6125477f4c3dfb9c7904c2a5f7d030b8a5a0a3f7c551d5023c8f2ff90a1af6cd70e09efe60001b612cc2565b600061256a8673ffffffffffffffffffffffffffffffffffffffff166014612cc5565b90506125987fefb86bb998a2676b4b17571247e18e681e507621477253ae1f996c621098a54c60001b612cc2565b6125c47f2dea4dead160a708880cfde1f86c3d2146b1a8e774ff21df3bf8c543847c274f60001b612cc2565b60008590506125f57f7b11f5fc5090edd33323f4145d1e2be32678550a8f00eb1cacf15365fb499f2460001b612cc2565b6126217fbd71489004ca39b658a858b1bde7f5a3939bd9fe71faa8c0e5b586b2526fbccd60001b612cc2565b606061264f7f3ccb8ea8bc1f18f9064d3d4f9f874d6396d662fc97abcdd4c171e8472aefb66f60001b612cc2565b61267b7fe8401b080f6d5b7e95b204af0d1c6be53823c834ebf1a0d2862cf4dfb87ca4ea60001b612cc2565b60058610612799576126af7fba2e98a25bd85a7b9fdce78dc98bc5c615924163e8a9e0e533848f05b4e4cba360001b612cc2565b6126db7fa6c8e196b381a9a4813a5349ed000aa5db29282989f7f41032f55bc28a7b9ae360001b612cc2565b6127077fd2259e69c411a12cf7e56ae91b5a6e502876cdf31e74f69f0f8153eeb739a08460001b612cc2565b60088054612714906141b8565b80601f0160208091040260200160405190810160405280929190818152602001828054612740906141b8565b801561278d5780601f106127625761010080835404028352916020019161278d565b820191906000526020600020905b81548152906001019060200180831161277057829003601f168201915b505050505090506127c6565b6127c57f2bca3c171e77b1113ea6a42eb8238dc20fb808a758b9193b6e239f76428f72df60001b612cc2565b5b6127f27f279945722f365d1685e4e86f9fbf53aca4f746ab5d5425a64c8290b57b41014460001b612cc2565b61281e7ff7c9d506f6142fd3b05fd0175a32caec8e0f461e1f5757726a6ca8b76e289b9e60001b612cc2565b600a861061293c576128527f759114aec16a90c9ed2eb6ddf877805337238efd692176263ab5074a9fad94ac60001b612cc2565b61287e7f1221de2ee2892393b439da4125b2659728abc3569f4164894e301bc6b0c8cc1e60001b612cc2565b6128aa7f0b0d0c3f8f300b3feeb0cbdca4442a3e0f90be4eaf2f1b6a256f99ab258fb5db60001b612cc2565b600980546128b7906141b8565b80601f01602080910402602001604051908101604052809291908181526020018280546128e3906141b8565b80156129305780601f1061290557610100808354040283529160200191612930565b820191906000526020600020905b81548152906001019060200180831161291357829003601f168201915b50505050509050612969565b6129687f418a99b6ffc110ef91ba34114a389f75b0b9c8f814b30c0d380608c04796383a60001b612cc2565b5b6129957ffcfcd2be10bcc9a197f3599a42289e0a1f79a1b2fb6c6296c76e947206e5f61560001b612cc2565b6129c17fcbc542bb0028d2504d5c24c1fd70f581e72fd5ef373fdf4dac689fc143f3418160001b612cc2565b600081836129ce87612025565b866040516020016129e29493929190613aff565b6040516020818303038152906040529050612a1f7fa2da3d1882e89102200a6ecd75713e2f5b070ae610739ba8ac28986dea04cf3460001b612cc2565b612a4b7f1cb17d131c366ef389f9adfb05b51145ffcec79c6b1bdceee075bce355bbd9c060001b612cc2565b8095505050505050949350505050565b60007f01ffc9a7000000000000000000000000000000000000000000000000000000007bffffffffffffffffffffffffffffffffffffffffffffffffffffffff1916827bffffffffffffffffffffffffffffffffffffffffffffffffffffffff1916149050919050565b600073ffffffffffffffffffffffffffffffffffffffff168273ffffffffffffffffffffffffffffffffffffffff161415612b35576040517f08c379a0000000000000000000000000000000000000000000000000000000008152600401612b2c90613e1e565b60405180910390fd5b612b3e81611c24565b15612b7e576040517f08c379a0000000000000000000000000000000000000000000000000000000008152600401612b7590613d7e565b60405180910390fd5b612b8a600083836122c3565b6001600360008473ffffffffffffffffffffffffffffffffffffffff1673ffffffffffffffffffffffffffffffffffffffff1681526020019081526020016000206000828254612bda9190613fc3565b92505081905550816002600083815260200190815260200160002060006101000a81548173ffffffffffffffffffffffffffffffffffffffff021916908373ffffffffffffffffffffffffffffffffffffffff160217905550808273ffffffffffffffffffffffffffffffffffffffff16600073ffffffffffffffffffffffffffffffffffffffff167fddf252ad1be2c89b69c2b068fc378daa952ba7f163c4a11628f55a4df523b3ef60405160405180910390a4612c9b600083836122c8565b5050565b6000808273ffffffffffffffffffffffffffffffffffffffff163b119050919050565b50565b606060006002836002612cd8919061404a565b612ce29190613fc3565b67ffffffffffffffff811115612cfb57612cfa614351565b5b6040519080825280601f01601f191660200182016040528015612d2d5781602001600182028036833780820191505090505b5090507f300000000000000000000000000000000000000000000000000000000000000081600081518110612d6557612d64614322565b5b60200101907effffffffffffffffffffffffffffffffffffffffffffffffffffffffffffff1916908160001a9053507f780000000000000000000000000000000000000000000000000000000000000081600181518110612dc957612dc8614322565b5b60200101907effffffffffffffffffffffffffffffffffffffffffffffffffffffffffffff1916908160001a90535060006001846002612e09919061404a565b612e139190613fc3565b90505b6001811115612eb3577f3031323334353637383961626364656600000000000000000000000000000000600f861660108110612e5557612e54614322565b5b1a60f81b828281518110612e6c57612e6b614322565b5b60200101907effffffffffffffffffffffffffffffffffffffffffffffffffffffffffffff1916908160001a905350600485901c945080612eac9061418e565b9050612e16565b5060008414612ef7576040517f08c379a0000000000000000000000000000000000000000000000000000000008152600401612eee90613d1e565b60405180910390fd5b8091505092915050565b6000612f14612f0f84613f1e565b613ef9565b905082815260208101848484011115612f3057612f2f61438f565b5b612f3b84828561414c565b509392505050565b6000612f56612f5184613f4f565b613ef9565b905082815260208101848484011115612f7257612f7161438f565b5b612f7d84828561415b565b509392505050565b600081359050612f9481614e1c565b92915050565b600081519050612fa981614e1c565b92915050565b600081359050612fbe81614e33565b92915050565b600081359050612fd381614e4a565b92915050565b600081519050612fe881614e4a565b92915050565b600082601f83011261300357613002614380565b5b8135613013848260208601612f01565b91505092915050565b600082601f83011261303157613030614380565b5b8151613041848260208601612f43565b91505092915050565b600060e082840312156130605761305f614385565b5b61306a60e0613ef9565b9050600061307a84828501612f9a565b600083015250602082015167ffffffffffffffff81111561309e5761309d61438a565b5b6130aa8482850161301c565b60208301525060406130be8482850161312f565b60408301525060606130d28482850161312f565b60608301525060806130e68482850161312f565b60808301525060a06130fa8482850161312f565b60a08301525060c061310e8482850161312f565b60c08301525092915050565b60008135905061312981614e61565b92915050565b60008151905061313e81614e61565b92915050565b60006020828403121561315a57613159614399565b5b600061316884828501612f85565b91505092915050565b6000806040838503121561318857613187614399565b5b600061319685828601612f85565b92505060206131a785828601612f85565b9150509250929050565b6000806000606084860312156131ca576131c9614399565b5b60006131d886828701612f85565b93505060206131e986828701612f85565b92505060406131fa8682870161311a565b9150509250925092565b6000806000806080858703121561321e5761321d614399565b5b600061322c87828801612f85565b945050602061323d87828801612f85565b935050604061324e8782880161311a565b925050606085013567ffffffffffffffff81111561326f5761326e614394565b5b61327b87828801612fee565b91505092959194509250565b6000806040838503121561329e5761329d614399565b5b60006132ac85828601612f85565b92505060206132bd85828601612faf565b9150509250929050565b600080604083850312156132de576132dd614399565b5b60006132ec85828601612f85565b92505060206132fd8582860161311a565b9150509250929050565b60006020828403121561331d5761331c614399565b5b600061332b84828501612fc4565b91505092915050565b60006020828403121561334a57613349614399565b5b600061335884828501612fd9565b91505092915050565b60006020828403121561337757613376614399565b5b600082015167ffffffffffffffff81111561339557613394614394565b5b6133a18482850161304a565b91505092915050565b6000602082840312156133c0576133bf614399565b5b60006133ce8482850161311a565b91505092915050565b600080604083850312156133ee576133ed614399565b5b60006133fc8582860161311a565b925050602061340d8582860161311a565b9150509250929050565b613420816140d8565b82525050565b61342f816140ea565b82525050565b600061344082613f80565b61344a8185613f96565b935061345a81856020860161415b565b6134638161439e565b840191505092915050565b600061347982613f8b565b6134838185613fa7565b935061349381856020860161415b565b61349c8161439e565b840191505092915050565b60006134b282613f8b565b6134bc8185613fb8565b93506134cc81856020860161415b565b80840191505092915050565b60006134e5602083613fa7565b91506134f0826143af565b602082019050919050565b6000613508605483613fb8565b9150613513826143d8565b605482019050919050565b600061352b600983613fb8565b91506135368261444d565b600982019050919050565b600061354e603283613fa7565b915061355982614476565b604082019050919050565b6000613571602583613fa7565b915061357c826144c5565b604082019050919050565b6000613594601c83613fa7565b915061359f82614514565b602082019050919050565b60006135b7601f83613fb8565b91506135c28261453d565b601f82019050919050565b60006135da602483613fa7565b91506135e582614566565b604082019050919050565b60006135fd601983613fa7565b9150613608826145b5565b602082019050919050565b6000613620604483613fb8565b915061362b826145de565b604482019050919050565b6000613643601083613fb8565b915061364e82614653565b601082019050919050565b6000613666601f83613fb8565b91506136718261467c565b601f82019050919050565b6000613689604383613fb8565b9150613694826146a5565b604382019050919050565b60006136ac602983613fa7565b91506136b78261471a565b604082019050919050565b60006136cf604e83613fb8565b91506136da82614769565b604e82019050919050565b60006136f2600983613fb8565b91506136fd826147de565b600982019050919050565b6000613715600283613fb8565b915061372082614807565b600282019050919050565b6000613738600783613fb8565b915061374382614830565b600782019050919050565b600061375b603e83613fa7565b915061376682614859565b604082019050919050565b600061377e602083613fa7565b9150613789826148a8565b602082019050919050565b60006137a1600b83613fb8565b91506137ac826148d1565b600b82019050919050565b60006137c4600a83613fb8565b91506137cf826148fa565b600a82019050919050565b60006137e7600483613fb8565b91506137f282614923565b600482019050919050565b600061380a606c83613fb8565b91506138158261494c565b606c82019050919050565b600061382d602883613fb8565b9150613838826149e7565b602882019050919050565b6000613850601f83613fb8565b915061385b82614a36565b601f82019050919050565b6000613873601883613fa7565b915061387e82614a5f565b602082019050919050565b6000613896600b83613fb8565b91506138a182614a88565b600b82019050919050565b60006138b9602183613fa7565b91506138c482614ab1565b604082019050919050565b60006138dc601d83613fb8565b91506138e782614b00565b601d82019050919050565b60006138ff604f83613fb8565b915061390a82614b29565b604f82019050919050565b6000613922600683613fb8565b915061392d82614b9e565b600682019050919050565b6000613945602583613fb8565b915061395082614bc7565b602582019050919050565b6000613968601b83613fa7565b915061397382614c16565b602082019050919050565b600061398b602a83613fa7565b915061399682614c3f565b604082019050919050565b60006139ae600183613fb8565b91506139b982614c8e565b600182019050919050565b60006139d1603183613fb8565b91506139dc82614cb7565b603182019050919050565b60006139f4602e83613fa7565b91506139ff82614d06565b604082019050919050565b6000613a17600683613fb8565b9150613a2282614d55565b600682019050919050565b6000613a3a605283613fb8565b9150613a4582614d7e565b605282019050919050565b6000613a5d601a83613fb8565b9150613a6882614df3565b601a82019050919050565b613a7c81614142565b82525050565b6000613a8d8261351e565b9150613a9982856134a7565b9150613aa482613938565b9150613aaf826136e5565b9150613aba82613a50565b9150613ac682846134a7565b9150613ad182613708565b91508190509392505050565b6000613ae882613794565b9150613af482846134a7565b915081905092915050565b6000613b0a826137fd565b9150613b1582613915565b9150613b20826138f2565b9150613b2b82613a2d565b9150613b36826136c2565b9150613b4282876134a7565b9150613b4d82613636565b9150613b58826135aa565b9150613b6382613659565b9150613b6e826137da565b9150613b79826134fb565b9150613b8482613820565b9150613b8f826139c4565b9150613b9a82613843565b9150613ba682866134a7565b9150613bb182613889565b9150613bbc8261372b565b9150613bc782613613565b9150613bd2826137b7565b9150613bde82856134a7565b9150613be98261372b565b9150613bf48261367c565b9150613bff826139a1565b9150613c0b82846134a7565b9150613c168261372b565b9150613c2182613a0a565b915081905095945050505050565b6000613c3a826138cf565b9150613c4682846134a7565b915081905092915050565b6000602082019050613c666000830184613417565b92915050565b6000608082019050613c816000830187613417565b613c8e6020830186613417565b613c9b6040830185613a73565b8181036060830152613cad8184613435565b905095945050505050565b6000604082019050613ccd6000830185613417565b613cda6020830184613a73565b9392505050565b6000602082019050613cf66000830184613426565b92915050565b60006020820190508181036000830152613d16818461346e565b905092915050565b60006020820190508181036000830152613d37816134d8565b9050919050565b60006020820190508181036000830152613d5781613541565b9050919050565b60006020820190508181036000830152613d7781613564565b9050919050565b60006020820190508181036000830152613d9781613587565b9050919050565b60006020820190508181036000830152613db7816135cd565b9050919050565b60006020820190508181036000830152613dd7816135f0565b9050919050565b60006020820190508181036000830152613df78161369f565b9050919050565b60006020820190508181036000830152613e178161374e565b9050919050565b60006020820190508181036000830152613e3781613771565b9050919050565b60006020820190508181036000830152613e5781613866565b9050919050565b60006020820190508181036000830152613e77816138ac565b9050919050565b60006020820190508181036000830152613e978161395b565b9050919050565b60006020820190508181036000830152613eb78161397e565b9050919050565b60006020820190508181036000830152613ed7816139e7565b9050919050565b6000602082019050613ef36000830184613a73565b92915050565b6000613f03613f14565b9050613f0f82826141ea565b919050565b6000604051905090565b600067ffffffffffffffff821115613f3957613f38614351565b5b613f428261439e565b9050602081019050919050565b600067ffffffffffffffff821115613f6a57613f69614351565b5b613f738261439e565b9050602081019050919050565b600081519050919050565b600081519050919050565b600082825260208201905092915050565b600082825260208201905092915050565b600081905092915050565b6000613fce82614142565b9150613fd983614142565b9250827fffffffffffffffffffffffffffffffffffffffffffffffffffffffffffffffff0382111561400e5761400d614295565b5b828201905092915050565b600061402482614142565b915061402f83614142565b92508261403f5761403e6142c4565b5b828204905092915050565b600061405582614142565b915061406083614142565b9250817fffffffffffffffffffffffffffffffffffffffffffffffffffffffffffffffff048311821515161561409957614098614295565b5b828202905092915050565b60006140af82614142565b91506140ba83614142565b9250828210156140cd576140cc614295565b5b828203905092915050565b60006140e382614122565b9050919050565b60008115159050919050565b60007fffffffff0000000000000000000000000000000000000000000000000000000082169050919050565b600073ffffffffffffffffffffffffffffffffffffffff82169050919050565b6000819050919050565b82818337600083830152505050565b60005b8381101561417957808201518184015260208101905061415e565b83811115614188576000848401525b50505050565b600061419982614142565b915060008214156141ad576141ac614295565b5b600182039050919050565b600060028204905060018216806141d057607f821691505b602082108114156141e4576141e36142f3565b5b50919050565b6141f38261439e565b810181811067ffffffffffffffff8211171561421257614211614351565b5b80604052505050565b600061422682614142565b91507fffffffffffffffffffffffffffffffffffffffffffffffffffffffffffffffff82141561425957614258614295565b5b600182019050919050565b600061426f82614142565b915061427a83614142565b92508261428a576142896142c4565b5b828206905092915050565b7f4e487b7100000000000000000000000000000000000000000000000000000000600052601160045260246000fd5b7f4e487b7100000000000000000000000000000000000000000000000000000000600052601260045260246000fd5b7f4e487b7100000000000000000000000000000000000000000000000000000000600052602260045260246000fd5b7f4e487b7100000000000000000000000000000000000000000000000000000000600052603260045260246000fd5b7f4e487b7100000000000000000000000000000000000000000000000000000000600052604160045260246000fd5b600080fd5b600080fd5b600080fd5b600080fd5b600080fd5b600080fd5b6000601f19601f8301169050919050565b7f537472696e67733a20686578206c656e67746820696e73756666696369656e74600082015250565b7f3c7061746820643d224d2033322034382071203130203130203230203022207360008201527f74796c653d2266696c6c3a6e6f6e653b207374726f6b653a20626c61636b3b2060208201527f7374726f6b652d77696474683a20323b22202f3e000000000000000000000000604082015250565b7f7b226e616d65223a220000000000000000000000000000000000000000000000600082015250565b7f4552433732313a207472616e7366657220746f206e6f6e20455243373231526560008201527f63656976657220696d706c656d656e7465720000000000000000000000000000602082015250565b7f4552433732313a207472616e736665722066726f6d20696e636f72726563742060008201527f6f776e6572000000000000000000000000000000000000000000000000000000602082015250565b7f4552433732313a20746f6b656e20616c7265616479206d696e74656400000000600082015250565b7f3c636972636c652063783d223335222063793d2233372220723d2235222f3e00600082015250565b7f4552433732313a207472616e7366657220746f20746865207a65726f2061646460008201527f7265737300000000000000000000000000000000000000000000000000000000602082015250565b7f4552433732313a20617070726f766520746f2063616c6c657200000000000000600082015250565b7f3c7465787420783d223230302220793d22333222207374796c653d2266696c6c60008201527f3a726762283131302c203131382c20313235292220666f6e742d73697a653d2260208201527f3134223e00000000000000000000000000000000000000000000000000000000604082015250565b7f3c6720636c6173733d2265796573223e00000000000000000000000000000000600082015250565b7f3c636972636c652063783d223439222063793d2233372220723d2235222f3e00600082015250565b7f3c7465787420783d22352220793d2231343022207374796c653d2266696c6c3a60008201527f726762283131302c203131382c20313235292220666f6e742d73697a653d223160208201527f32223e0000000000000000000000000000000000000000000000000000000000604082015250565b7f4552433732313a2061646472657373207a65726f206973206e6f74206120766160008201527f6c6964206f776e65720000000000000000000000000000000000000000000000602082015250565b7f3c636972636c652063783d223430222063793d223430222066696c6c3d22796560008201527f6c6c6f772220723d22323522207374726f6b653d22626c61636b22207374726f60208201527f6b652d77696474683d2232222f3e000000000000000000000000000000000000604082015250565b7f22696d616765223a220000000000000000000000000000000000000000000000600082015250565b7f227d000000000000000000000000000000000000000000000000000000000000600082015250565b7f3c2f746578743e00000000000000000000000000000000000000000000000000600082015250565b7f4552433732313a20617070726f76652063616c6c6572206973206e6f7420746f60008201527f6b656e206f776e6572206e6f7220617070726f76656420666f7220616c6c0000602082015250565b7f4552433732313a206d696e7420746f20746865207a65726f2061646472657373600082015250565b7f506f7374436861696e2023000000000000000000000000000000000000000000600082015250565b7f706f7374636861696e3a00000000000000000000000000000000000000000000600082015250565b7f3c2f673e00000000000000000000000000000000000000000000000000000000600082015250565b7f3c7376672077696474683d2233303022206865696768743d223135302220786d60008201527f6c6e733d22687474703a2f2f7777772e77332e6f72672f323030302f7376672260208201527f20786d6c6e733a786c696e6b3d22687474703a2f2f7777772e77332e6f72672f60408201527f313939392f786c696e6b223e0000000000000000000000000000000000000000606082015250565b7f3c75736520786c696e6b3a687265663d222370617468312220783d223022207960008201527f3d22353022202f3e000000000000000000000000000000000000000000000000602082015250565b7f3c74657874506174682020786c696e6b3a687265663d22237061746831223e00600082015250565b7f4552433732313a20696e76616c696420746f6b656e2049440000000000000000600082015250565b7f3c2f74657874506174683e000000000000000000000000000000000000000000600082015250565b7f4552433732313a20617070726f76616c20746f2063757272656e74206f776e6560008201527f7200000000000000000000000000000000000000000000000000000000000000602082015250565b7f646174613a6170706c69636174696f6e2f6a736f6e3b6261736536342c000000600082015250565b7f3c706174682069643d2270617468312220643d224d31302c363520483239302060008201527f4d31302c38302048323730204d31352c39362048323730204d32302c3131352260208201527f3e3c2f706174683e3c2f646566733e0000000000000000000000000000000000604082015250565b7f3c646566733e0000000000000000000000000000000000000000000000000000600082015250565b7f222c20226465736372697074696f6e223a22416e204e4654206f66206120706f60008201527f7374222c20000000000000000000000000000000000000000000000000000000602082015250565b7f455243323938313a20496e76616c696420706172616d65746572730000000000600082015250565b7f455243323938313a20726f79616c7479206665652077696c6c2065786365656460008201527f2073616c65507269636500000000000000000000000000000000000000000000602082015250565b7f4000000000000000000000000000000000000000000000000000000000000000600082015250565b7f3c74657874207472616e73666f726d3d227472616e736c61746528302c32312960008201527f2220666f6e742d73697a653d223135223e000000000000000000000000000000602082015250565b7f4552433732313a2063616c6c6572206973206e6f7420746f6b656e206f776e6560008201527f72206e6f7220617070726f766564000000000000000000000000000000000000602082015250565b7f3c2f7376673e0000000000000000000000000000000000000000000000000000600082015250565b7f3c726563742077696474683d2233303022206865696768743d2231353022207360008201527f74796c653d2266696c6c3a4c6176656e6465723b7374726f6b652d776964746860208201527f3a313b7374726f6b653a626c61636b222f3e0000000000000000000000000000604082015250565b7f646174613a696d6167652f7376672b786d6c3b6261736536342c000000000000600082015250565b614e25816140d8565b8114614e3057600080fd5b50565b614e3c816140ea565b8114614e4757600080fd5b50565b614e53816140f6565b8114614e5e57600080fd5b50565b614e6a81614142565b8114614e7557600080fd5b5056fe4142434445464748494a4b4c4d4e4f505152535455565758595a6162636465666768696a6b6c6d6e6f707172737475767778797a303132333435363738392b2fa26469706673582212209dc0f4dcfc171db27c0f9746d8141849d6cae4188a41f3349f2e060b7b6ad0c864736f6c63430008070033",
  "linkReferences": {},
  "deployedLinkReferences": {}
}