{
  "_format": "hh-sol-artifact-1",
  "contractName": "PostChainNft",
  "sourceName": "contracts/PostChainNft.sol",
  "abi": [
    {
      "inputs": [
        {
          "internalType": "string",
          "name": "sunglassesSVG",
          "type": "string"
        },
        {
          "internalType": "string",
          "name": "hatSVG",
          "type": "string"
        },
        {
          "internalType": "address",
          "name": "postChainAddress",
          "type": "address"
        }
      ],
      "stateMutability": "nonpayable",
      "type": "constructor"
    },
    {
      "inputs": [],
      "name": "PostChain__NoMint",
      "type": "error"
    },
    {
      "anonymous": false,
      "inputs": [
        {
          "indexed": true,
          "internalType": "address",
          "name": "owner",
          "type": "address"
        },
        {
          "indexed": true,
          "internalType": "address",
          "name": "approved",
          "type": "address"
        },
        {
          "indexed": true,
          "internalType": "uint256",
          "name": "tokenId",
          "type": "uint256"
        }
      ],
      "name": "Approval",
      "type": "event"
    },
    {
      "anonymous": false,
      "inputs": [
        {
          "indexed": true,
          "internalType": "address",
          "name": "owner",
          "type": "address"
        },
        {
          "indexed": true,
          "internalType": "address",
          "name": "operator",
          "type": "address"
        },
        {
          "indexed": false,
          "internalType": "bool",
          "name": "approved",
          "type": "bool"
        }
      ],
      "name": "ApprovalForAll",
      "type": "event"
    },
    {
      "anonymous": false,
      "inputs": [
        {
          "indexed": true,
          "internalType": "uint256",
          "name": "tokenId",
          "type": "uint256"
        }
      ],
      "name": "NFTMinted",
      "type": "event"
    },
    {
      "anonymous": false,
      "inputs": [
        {
          "indexed": true,
          "internalType": "address",
          "name": "from",
          "type": "address"
        },
        {
          "indexed": true,
          "internalType": "address",
          "name": "to",
          "type": "address"
        },
        {
          "indexed": true,
          "internalType": "uint256",
          "name": "tokenId",
          "type": "uint256"
        }
      ],
      "name": "Transfer",
      "type": "event"
    },
    {
      "inputs": [
        {
          "internalType": "address",
          "name": "to",
          "type": "address"
        },
        {
          "internalType": "uint256",
          "name": "tokenId",
          "type": "uint256"
        }
      ],
      "name": "approve",
      "outputs": [],
      "stateMutability": "nonpayable",
      "type": "function"
    },
    {
      "inputs": [
        {
          "internalType": "address",
          "name": "owner",
          "type": "address"
        }
      ],
      "name": "balanceOf",
      "outputs": [
        {
          "internalType": "uint256",
          "name": "",
          "type": "uint256"
        }
      ],
      "stateMutability": "view",
      "type": "function"
    },
    {
      "inputs": [
        {
          "internalType": "uint256",
          "name": "tokenId",
          "type": "uint256"
        }
      ],
      "name": "getApproved",
      "outputs": [
        {
          "internalType": "address",
          "name": "",
          "type": "address"
        }
      ],
      "stateMutability": "view",
      "type": "function"
    },
    {
      "inputs": [
        {
          "internalType": "uint256",
          "name": "postId",
          "type": "uint256"
        }
      ],
      "name": "getMinted",
      "outputs": [
        {
          "internalType": "bool",
          "name": "",
          "type": "bool"
        }
      ],
      "stateMutability": "view",
      "type": "function"
    },
    {
      "inputs": [
        {
          "internalType": "address",
          "name": "owner",
          "type": "address"
        },
        {
          "internalType": "address",
          "name": "operator",
          "type": "address"
        }
      ],
      "name": "isApprovedForAll",
      "outputs": [
        {
          "internalType": "bool",
          "name": "",
          "type": "bool"
        }
      ],
      "stateMutability": "view",
      "type": "function"
    },
    {
      "inputs": [
        {
          "internalType": "uint256",
          "name": "postId",
          "type": "uint256"
        }
      ],
      "name": "mintNft",
      "outputs": [],
      "stateMutability": "nonpayable",
      "type": "function"
    },
    {
      "inputs": [],
      "name": "name",
      "outputs": [
        {
          "internalType": "string",
          "name": "",
          "type": "string"
        }
      ],
      "stateMutability": "view",
      "type": "function"
    },
    {
      "inputs": [
        {
          "internalType": "uint256",
          "name": "tokenId",
          "type": "uint256"
        }
      ],
      "name": "ownerOf",
      "outputs": [
        {
          "internalType": "address",
          "name": "",
          "type": "address"
        }
      ],
      "stateMutability": "view",
      "type": "function"
    },
    {
      "inputs": [
        {
          "internalType": "uint256",
          "name": "_tokenId",
          "type": "uint256"
        },
        {
          "internalType": "uint256",
          "name": "_salePrice",
          "type": "uint256"
        }
      ],
      "name": "royaltyInfo",
      "outputs": [
        {
          "internalType": "address",
          "name": "",
          "type": "address"
        },
        {
          "internalType": "uint256",
          "name": "",
          "type": "uint256"
        }
      ],
      "stateMutability": "view",
      "type": "function"
    },
    {
      "inputs": [
        {
          "internalType": "address",
          "name": "from",
          "type": "address"
        },
        {
          "internalType": "address",
          "name": "to",
          "type": "address"
        },
        {
          "internalType": "uint256",
          "name": "tokenId",
          "type": "uint256"
        }
      ],
      "name": "safeTransferFrom",
      "outputs": [],
      "stateMutability": "nonpayable",
      "type": "function"
    },
    {
      "inputs": [
        {
          "internalType": "address",
          "name": "from",
          "type": "address"
        },
        {
          "internalType": "address",
          "name": "to",
          "type": "address"
        },
        {
          "internalType": "uint256",
          "name": "tokenId",
          "type": "uint256"
        },
        {
          "internalType": "bytes",
          "name": "data",
          "type": "bytes"
        }
      ],
      "name": "safeTransferFrom",
      "outputs": [],
      "stateMutability": "nonpayable",
      "type": "function"
    },
    {
      "inputs": [
        {
          "internalType": "address",
          "name": "operator",
          "type": "address"
        },
        {
          "internalType": "bool",
          "name": "approved",
          "type": "bool"
        }
      ],
      "name": "setApprovalForAll",
      "outputs": [],
      "stateMutability": "nonpayable",
      "type": "function"
    },
    {
      "inputs": [
        {
          "internalType": "bytes4",
          "name": "interfaceId",
          "type": "bytes4"
        }
      ],
      "name": "supportsInterface",
      "outputs": [
        {
          "internalType": "bool",
          "name": "",
          "type": "bool"
        }
      ],
      "stateMutability": "view",
      "type": "function"
    },
    {
      "inputs": [],
      "name": "symbol",
      "outputs": [
        {
          "internalType": "string",
          "name": "",
          "type": "string"
        }
      ],
      "stateMutability": "view",
      "type": "function"
    },
    {
      "inputs": [
        {
          "internalType": "uint256",
          "name": "tokenId",
          "type": "uint256"
        }
      ],
      "name": "tokenURI",
      "outputs": [
        {
          "internalType": "string",
          "name": "",
          "type": "string"
        }
      ],
      "stateMutability": "view",
      "type": "function"
    },
    {
      "inputs": [
        {
          "internalType": "address",
          "name": "from",
          "type": "address"
        },
        {
          "internalType": "address",
          "name": "to",
          "type": "address"
        },
        {
          "internalType": "uint256",
          "name": "tokenId",
          "type": "uint256"
        }
      ],
      "name": "transferFrom",
      "outputs": [],
      "stateMutability": "nonpayable",
      "type": "function"
    }
  ],
  "bytecode": "0x60a06040523480156200001157600080fd5b5060405162004831380380620048318339818101604052810190620000379190620002d3565b82826040518060400160405280600981526020017f506f7374436861696e00000000000000000000000000000000000000000000008152506040518060400160405280600281526020017f50430000000000000000000000000000000000000000000000000000000000008152508160009080519060200190620000bd9291906200018e565b508060019080519060200190620000d69291906200018e565b5050508160089080519060200190620000f19291906200018e565b5080600990805190602001906200010a9291906200018e565b5050503373ffffffffffffffffffffffffffffffffffffffff1660808173ffffffffffffffffffffffffffffffffffffffff1660601b8152505080600a60006101000a81548173ffffffffffffffffffffffffffffffffffffffff021916908373ffffffffffffffffffffffffffffffffffffffff1602179055505050506200053f565b8280546200019c9062000436565b90600052602060002090601f016020900481019282620001c057600085556200020c565b82601f10620001db57805160ff19168380011785556200020c565b828001600101855582156200020c579182015b828111156200020b578251825591602001919060010190620001ee565b5b5090506200021b91906200021f565b5090565b5b808211156200023a57600081600090555060010162000220565b5090565b6000620002556200024f8462000396565b6200036d565b90508281526020810184848401111562000274576200027362000505565b5b6200028184828562000400565b509392505050565b6000815190506200029a8162000525565b92915050565b600082601f830112620002b857620002b762000500565b5b8151620002ca8482602086016200023e565b91505092915050565b600080600060608486031215620002ef57620002ee6200050f565b5b600084015167ffffffffffffffff81111562000310576200030f6200050a565b5b6200031e86828701620002a0565b935050602084015167ffffffffffffffff8111156200034257620003416200050a565b5b6200035086828701620002a0565b9250506040620003638682870162000289565b9150509250925092565b6000620003796200038c565b90506200038782826200046c565b919050565b6000604051905090565b600067ffffffffffffffff821115620003b457620003b3620004d1565b5b620003bf8262000514565b9050602081019050919050565b6000620003d982620003e0565b9050919050565b600073ffffffffffffffffffffffffffffffffffffffff82169050919050565b60005b838110156200042057808201518184015260208101905062000403565b8381111562000430576000848401525b50505050565b600060028204905060018216806200044f57607f821691505b60208210811415620004665762000465620004a2565b5b50919050565b620004778262000514565b810181811067ffffffffffffffff82111715620004995762000498620004d1565b5b80604052505050565b7f4e487b7100000000000000000000000000000000000000000000000000000000600052602260045260246000fd5b7f4e487b7100000000000000000000000000000000000000000000000000000000600052604160045260246000fd5b600080fd5b600080fd5b600080fd5b600080fd5b6000601f19601f8301169050919050565b6200053081620003cc565b81146200053c57600080fd5b50565b60805160601c6142d66200055b600039600050506142d66000f3fe608060405234801561001057600080fd5b50600436106101005760003560e01c806342842e0e11610097578063a22cb46511610066578063a22cb465146102d2578063b88d4fde146102ee578063c87b56dd1461030a578063e985e9c51461033a57610100565b806342842e0e146102385780636352211e1461025457806370a082311461028457806395d89b41146102b457610100565b80630d730acc116100d35780630d730acc1461019f5780631a9e379f146101bb57806323b872dd146101eb5780632a55205a1461020757610100565b806301ffc9a71461010557806306fdde0314610135578063081812fc14610153578063095ea7b314610183575b600080fd5b61011f600480360381019061011a91906126ef565b61036a565b60405161012c91906130c9565b60405180910390f35b61013d61037c565b60405161014a91906130e4565b60405180910390f35b61016d60048036038101906101689190612792565b61040e565b60405161017a9190613039565b60405180910390f35b61019d600480360381019061019891906126af565b610454565b005b6101b960048036038101906101b49190612792565b61056c565b005b6101d560048036038101906101d09190612792565b61073a565b6040516101e291906130c9565b60405180910390f35b61020560048036038101906102009190612599565b610764565b005b610221600480360381019061021c91906127bf565b6107c4565b60405161022f9291906130a0565b60405180910390f35b610252600480360381019061024d9190612599565b6109af565b005b61026e60048036038101906102699190612792565b6109cf565b60405161027b9190613039565b60405180910390f35b61029e6004803603810190610299919061252c565b610a81565b6040516102ab91906132c6565b60405180910390f35b6102bc610b39565b6040516102c991906130e4565b60405180910390f35b6102ec60048036038101906102e7919061266f565b610bcb565b005b610308600480360381019061030391906125ec565b610be1565b005b610324600480360381019061031f9190612792565b610c43565b60405161033191906130e4565b60405180910390f35b610354600480360381019061034f9190612559565b610cea565b60405161036191906130c9565b60405180910390f35b600061037582610d7e565b9050919050565b60606000805461038b906135a0565b80601f01602080910402602001604051908101604052809291908181526020018280546103b7906135a0565b80156104045780601f106103d957610100808354040283529160200191610404565b820191906000526020600020905b8154815290600101906020018083116103e757829003601f168201915b5050505050905090565b600061041982610df8565b6004600083815260200190815260200160002060009054906101000a900473ffffffffffffffffffffffffffffffffffffffff169050919050565b600061045f826109cf565b90508073ffffffffffffffffffffffffffffffffffffffff168373ffffffffffffffffffffffffffffffffffffffff1614156104d0576040517f08c379a00000000000000000000000000000000000000000000000000000000081526004016104c790613246565b60405180910390fd5b8073ffffffffffffffffffffffffffffffffffffffff166104ef610e43565b73ffffffffffffffffffffffffffffffffffffffff16148061051e575061051d81610518610e43565b610cea565b5b61055d576040517f08c379a0000000000000000000000000000000000000000000000000000000008152600401610554906131e6565b60405180910390fd5b6105678383610e4b565b505050565b6000600a60009054906101000a900473ffffffffffffffffffffffffffffffffffffffff1673ffffffffffffffffffffffffffffffffffffffff166340731c24836040518263ffffffff1660e01b81526004016105c991906132c6565b60006040518083038186803b1580156105e157600080fd5b505afa1580156105f5573d6000803e3d6000fd5b505050506040513d6000823e3d601f19601f8201168201806040525081019061061e9190612749565b9050806080015142101561065e576040517f115221eb00000000000000000000000000000000000000000000000000000000815260040160405180910390fd5b806000015173ffffffffffffffffffffffffffffffffffffffff163373ffffffffffffffffffffffffffffffffffffffff16146106c7576040517f115221eb00000000000000000000000000000000000000000000000000000000815260040160405180910390fd5b6106d13383610f04565b6106dd823360fa610f22565b6001600b600084815260200190815260200160002060006101000a81548160ff021916908315150217905550817fd9dc24857f317ed9abbbb42e920ede0104231eb1d3d70236a74887ffaf15986860405160405180910390a25050565b6000600b600083815260200190815260200160002060009054906101000a900460ff169050919050565b61077561076f610e43565b826110ca565b6107b4576040517f08c379a00000000000000000000000000000000000000000000000000000000081526004016107ab906132a6565b60405180910390fd5b6107bf83838361115f565b505050565b6000806000600760008681526020019081526020016000206040518060400160405290816000820160009054906101000a900473ffffffffffffffffffffffffffffffffffffffff1673ffffffffffffffffffffffffffffffffffffffff1673ffffffffffffffffffffffffffffffffffffffff1681526020016000820160149054906101000a90046bffffffffffffffffffffffff166bffffffffffffffffffffffff166bffffffffffffffffffffffff16815250509050600073ffffffffffffffffffffffffffffffffffffffff16816000015173ffffffffffffffffffffffffffffffffffffffff16141561095a5760066040518060400160405290816000820160009054906101000a900473ffffffffffffffffffffffffffffffffffffffff1673ffffffffffffffffffffffffffffffffffffffff1673ffffffffffffffffffffffffffffffffffffffff1681526020016000820160149054906101000a90046bffffffffffffffffffffffff166bffffffffffffffffffffffff166bffffffffffffffffffffffff168152505090505b60006109646113c6565b6bffffffffffffffffffffffff1682602001516bffffffffffffffffffffffff16866109909190613432565b61099a9190613401565b90508160000151819350935050509250929050565b6109ca83838360405180602001604052806000815250610be1565b505050565b6000806002600084815260200190815260200160002060009054906101000a900473ffffffffffffffffffffffffffffffffffffffff169050600073ffffffffffffffffffffffffffffffffffffffff168173ffffffffffffffffffffffffffffffffffffffff161415610a78576040517f08c379a0000000000000000000000000000000000000000000000000000000008152600401610a6f90613226565b60405180910390fd5b80915050919050565b60008073ffffffffffffffffffffffffffffffffffffffff168273ffffffffffffffffffffffffffffffffffffffff161415610af2576040517f08c379a0000000000000000000000000000000000000000000000000000000008152600401610ae9906131c6565b60405180910390fd5b600360008373ffffffffffffffffffffffffffffffffffffffff1673ffffffffffffffffffffffffffffffffffffffff168152602001908152602001600020549050919050565b606060018054610b48906135a0565b80601f0160208091040260200160405190810160405280929190818152602001828054610b74906135a0565b8015610bc15780601f10610b9657610100808354040283529160200191610bc1565b820191906000526020600020905b815481529060010190602001808311610ba457829003601f168201915b5050505050905090565b610bdd610bd6610e43565b83836113d0565b5050565b610bf2610bec610e43565b836110ca565b610c31576040517f08c379a0000000000000000000000000000000000000000000000000000000008152600401610c28906132a6565b60405180910390fd5b610c3d8484848461153d565b50505050565b6060610c4e82611599565b610c5757600080fd5b6000610c6a610c6584611605565b6116e1565b90506000610c7784611866565b604051602001610c879190612ec5565b6040516020818303038152906040529050610cc28183604051602001610cae929190612e6a565b6040516020818303038152906040526116e1565b604051602001610cd29190613017565b60405160208183030381529060405292505050919050565b6000600560008473ffffffffffffffffffffffffffffffffffffffff1673ffffffffffffffffffffffffffffffffffffffff16815260200190815260200160002060008373ffffffffffffffffffffffffffffffffffffffff1673ffffffffffffffffffffffffffffffffffffffff16815260200190815260200160002060009054906101000a900460ff16905092915050565b60007f2a55205a000000000000000000000000000000000000000000000000000000007bffffffffffffffffffffffffffffffffffffffffffffffffffffffff1916827bffffffffffffffffffffffffffffffffffffffffffffffffffffffff19161480610df15750610df0826119c7565b5b9050919050565b610e0181611599565b610e40576040517f08c379a0000000000000000000000000000000000000000000000000000000008152600401610e3790613226565b60405180910390fd5b50565b600033905090565b816004600083815260200190815260200160002060006101000a81548173ffffffffffffffffffffffffffffffffffffffff021916908373ffffffffffffffffffffffffffffffffffffffff160217905550808273ffffffffffffffffffffffffffffffffffffffff16610ebe836109cf565b73ffffffffffffffffffffffffffffffffffffffff167f8c5be1e5ebec7d5bd14f71427d1e84f3dd0314c0f7b2291e5b200ac8c7c3b92560405160405180910390a45050565b610f1e828260405180602001604052806000815250611aa9565b5050565b610f2a6113c6565b6bffffffffffffffffffffffff16816bffffffffffffffffffffffff161115610f88576040517f08c379a0000000000000000000000000000000000000000000000000000000008152600401610f7f90613286565b60405180910390fd5b600073ffffffffffffffffffffffffffffffffffffffff168273ffffffffffffffffffffffffffffffffffffffff161415610ff8576040517f08c379a0000000000000000000000000000000000000000000000000000000008152600401610fef90613266565b60405180910390fd5b60405180604001604052808373ffffffffffffffffffffffffffffffffffffffff168152602001826bffffffffffffffffffffffff168152506007600085815260200190815260200160002060008201518160000160006101000a81548173ffffffffffffffffffffffffffffffffffffffff021916908373ffffffffffffffffffffffffffffffffffffffff16021790555060208201518160000160146101000a8154816bffffffffffffffffffffffff02191690836bffffffffffffffffffffffff160217905550905050505050565b6000806110d6836109cf565b90508073ffffffffffffffffffffffffffffffffffffffff168473ffffffffffffffffffffffffffffffffffffffff16148061111857506111178185610cea565b5b8061115657508373ffffffffffffffffffffffffffffffffffffffff1661113e8461040e565b73ffffffffffffffffffffffffffffffffffffffff16145b91505092915050565b8273ffffffffffffffffffffffffffffffffffffffff1661117f826109cf565b73ffffffffffffffffffffffffffffffffffffffff16146111d5576040517f08c379a00000000000000000000000000000000000000000000000000000000081526004016111cc90613146565b60405180910390fd5b600073ffffffffffffffffffffffffffffffffffffffff168273ffffffffffffffffffffffffffffffffffffffff161415611245576040517f08c379a000000000000000000000000000000000000000000000000000000000815260040161123c90613186565b60405180910390fd5b611250838383611b04565b61125b600082610e4b565b6001600360008573ffffffffffffffffffffffffffffffffffffffff1673ffffffffffffffffffffffffffffffffffffffff16815260200190815260200160002060008282546112ab919061348c565b925050819055506001600360008473ffffffffffffffffffffffffffffffffffffffff1673ffffffffffffffffffffffffffffffffffffffff168152602001908152602001600020600082825461130291906133ab565b92505081905550816002600083815260200190815260200160002060006101000a81548173ffffffffffffffffffffffffffffffffffffffff021916908373ffffffffffffffffffffffffffffffffffffffff160217905550808273ffffffffffffffffffffffffffffffffffffffff168473ffffffffffffffffffffffffffffffffffffffff167fddf252ad1be2c89b69c2b068fc378daa952ba7f163c4a11628f55a4df523b3ef60405160405180910390a46113c1838383611b09565b505050565b6000612710905090565b8173ffffffffffffffffffffffffffffffffffffffff168373ffffffffffffffffffffffffffffffffffffffff16141561143f576040517f08c379a0000000000000000000000000000000000000000000000000000000008152600401611436906131a6565b60405180910390fd5b80600560008573ffffffffffffffffffffffffffffffffffffffff1673ffffffffffffffffffffffffffffffffffffffff16815260200190815260200160002060008473ffffffffffffffffffffffffffffffffffffffff1673ffffffffffffffffffffffffffffffffffffffff16815260200190815260200160002060006101000a81548160ff0219169083151502179055508173ffffffffffffffffffffffffffffffffffffffff168373ffffffffffffffffffffffffffffffffffffffff167f17307eab39ab6107e8899845ad3d59bd9653f200f220920489ca2b5937696c318360405161153091906130c9565b60405180910390a3505050565b61154884848461115f565b61155484848484611b0e565b611593576040517f08c379a000000000000000000000000000000000000000000000000000000000815260040161158a90613126565b60405180910390fd5b50505050565b60008073ffffffffffffffffffffffffffffffffffffffff166002600084815260200190815260200160002060009054906101000a900473ffffffffffffffffffffffffffffffffffffffff1673ffffffffffffffffffffffffffffffffffffffff1614159050919050565b60606000600a60009054906101000a900473ffffffffffffffffffffffffffffffffffffffff1673ffffffffffffffffffffffffffffffffffffffff166340731c24846040518263ffffffff1660e01b815260040161166491906132c6565b60006040518083038186803b15801561167c57600080fd5b505afa158015611690573d6000803e3d6000fd5b505050506040513d6000823e3d601f19601f820116820180604052508101906116b99190612749565b905060006116d584836000015184602001518560a00151611ca5565b90508092505050919050565b606060008251141561170457604051806020016040528060008152509050611861565b6000604051806060016040528060408152602001614261604091399050600060036002855161173391906133ab565b61173d9190613401565b60046117499190613432565b9050600060208261175a91906133ab565b67ffffffffffffffff81111561177357611772613739565b5b6040519080825280601f01601f1916602001820160405280156117a55781602001600182028036833780820191505090505b509050818152600183018586518101602084015b81831015611820576003830192508251603f8160121c1685015160f81b8252600182019150603f81600c1c1685015160f81b8252600182019150603f8160061c1685015160f81b8252600182019150603f811685015160f81b8252600182019150506117b9565b60038951066001811461183a576002811461184a57611855565b613d3d60f01b6002830352611855565b603d60f81b60018303525b50505050508093505050505b919050565b606060008214156118ae576040518060400160405280600181526020017f300000000000000000000000000000000000000000000000000000000000000081525090506119c2565b600082905060005b600082146118e05780806118c990613603565b915050600a826118d99190613401565b91506118b6565b60008167ffffffffffffffff8111156118fc576118fb613739565b5b6040519080825280601f01601f19166020018201604052801561192e5781602001600182028036833780820191505090505b5090505b600085146119bb57600182611947919061348c565b9150600a85611956919061364c565b603061196291906133ab565b60f81b8183815181106119785761197761370a565b5b60200101907effffffffffffffffffffffffffffffffffffffffffffffffffffffffffffff1916908160001a905350600a856119b49190613401565b9450611932565b8093505050505b919050565b60007f80ac58cd000000000000000000000000000000000000000000000000000000007bffffffffffffffffffffffffffffffffffffffffffffffffffffffff1916827bffffffffffffffffffffffffffffffffffffffffffffffffffffffff19161480611a9257507f5b5e139f000000000000000000000000000000000000000000000000000000007bffffffffffffffffffffffffffffffffffffffffffffffffffffffff1916827bffffffffffffffffffffffffffffffffffffffffffffffffffffffff1916145b80611aa25750611aa182611e46565b5b9050919050565b611ab38383611eb0565b611ac06000848484611b0e565b611aff576040517f08c379a0000000000000000000000000000000000000000000000000000000008152600401611af690613126565b60405180910390fd5b505050565b505050565b505050565b6000611b2f8473ffffffffffffffffffffffffffffffffffffffff1661208a565b15611c98578373ffffffffffffffffffffffffffffffffffffffff1663150b7a02611b58610e43565b8786866040518563ffffffff1660e01b8152600401611b7a9493929190613054565b602060405180830381600087803b158015611b9457600080fd5b505af1925050508015611bc557506040513d601f19601f82011682018060405250810190611bc2919061271c565b60015b611c48573d8060008114611bf5576040519150601f19603f3d011682016040523d82523d6000602084013e611bfa565b606091505b50600081511415611c40576040517f08c379a0000000000000000000000000000000000000000000000000000000008152600401611c3790613126565b60405180910390fd5b805181602001fd5b63150b7a0260e01b7bffffffffffffffffffffffffffffffffffffffffffffffffffffffff1916817bffffffffffffffffffffffffffffffffffffffffffffffffffffffff191614915050611c9d565b600190505b949350505050565b606060008590506000611ccf8673ffffffffffffffffffffffffffffffffffffffff1660146120ad565b90506000859050606060058610611d6e5760088054611ced906135a0565b80601f0160208091040260200160405190810160405280929190818152602001828054611d19906135a0565b8015611d665780601f10611d3b57610100808354040283529160200191611d66565b820191906000526020600020905b815481529060010190602001808311611d4957829003601f168201915b505050505090505b600a8610611e045760098054611d83906135a0565b80601f0160208091040260200160405190810160405280929190818152602001828054611daf906135a0565b8015611dfc5780601f10611dd157610100808354040283529160200191611dfc565b820191906000526020600020905b815481529060010190602001808311611ddf57829003601f168201915b505050505090505b60008183611e1187611866565b86604051602001611e259493929190612ee7565b60405160208183030381529060405290508095505050505050949350505050565b60007f01ffc9a7000000000000000000000000000000000000000000000000000000007bffffffffffffffffffffffffffffffffffffffffffffffffffffffff1916827bffffffffffffffffffffffffffffffffffffffffffffffffffffffff1916149050919050565b600073ffffffffffffffffffffffffffffffffffffffff168273ffffffffffffffffffffffffffffffffffffffff161415611f20576040517f08c379a0000000000000000000000000000000000000000000000000000000008152600401611f1790613206565b60405180910390fd5b611f2981611599565b15611f69576040517f08c379a0000000000000000000000000000000000000000000000000000000008152600401611f6090613166565b60405180910390fd5b611f7560008383611b04565b6001600360008473ffffffffffffffffffffffffffffffffffffffff1673ffffffffffffffffffffffffffffffffffffffff1681526020019081526020016000206000828254611fc591906133ab565b92505081905550816002600083815260200190815260200160002060006101000a81548173ffffffffffffffffffffffffffffffffffffffff021916908373ffffffffffffffffffffffffffffffffffffffff160217905550808273ffffffffffffffffffffffffffffffffffffffff16600073ffffffffffffffffffffffffffffffffffffffff167fddf252ad1be2c89b69c2b068fc378daa952ba7f163c4a11628f55a4df523b3ef60405160405180910390a461208660008383611b09565b5050565b6000808273ffffffffffffffffffffffffffffffffffffffff163b119050919050565b6060600060028360026120c09190613432565b6120ca91906133ab565b67ffffffffffffffff8111156120e3576120e2613739565b5b6040519080825280601f01601f1916602001820160405280156121155781602001600182028036833780820191505090505b5090507f30000000000000000000000000000000000000000000000000000000000000008160008151811061214d5761214c61370a565b5b60200101907effffffffffffffffffffffffffffffffffffffffffffffffffffffffffffff1916908160001a9053507f7800000000000000000000000000000000000000000000000000000000000000816001815181106121b1576121b061370a565b5b60200101907effffffffffffffffffffffffffffffffffffffffffffffffffffffffffffff1916908160001a905350600060018460026121f19190613432565b6121fb91906133ab565b90505b600181111561229b577f3031323334353637383961626364656600000000000000000000000000000000600f86166010811061223d5761223c61370a565b5b1a60f81b8282815181106122545761225361370a565b5b60200101907effffffffffffffffffffffffffffffffffffffffffffffffffffffffffffff1916908160001a905350600485901c94508061229490613576565b90506121fe565b50600084146122df576040517f08c379a00000000000000000000000000000000000000000000000000000000081526004016122d690613106565b60405180910390fd5b8091505092915050565b60006122fc6122f784613306565b6132e1565b90508281526020810184848401111561231857612317613777565b5b612323848285613534565b509392505050565b600061233e61233984613337565b6132e1565b90508281526020810184848401111561235a57612359613777565b5b612365848285613543565b509392505050565b60008135905061237c81614204565b92915050565b60008151905061239181614204565b92915050565b6000813590506123a68161421b565b92915050565b6000813590506123bb81614232565b92915050565b6000815190506123d081614232565b92915050565b600082601f8301126123eb576123ea613768565b5b81356123fb8482602086016122e9565b91505092915050565b600082601f83011261241957612418613768565b5b815161242984826020860161232b565b91505092915050565b600060e082840312156124485761244761376d565b5b61245260e06132e1565b9050600061246284828501612382565b600083015250602082015167ffffffffffffffff81111561248657612485613772565b5b61249284828501612404565b60208301525060406124a684828501612517565b60408301525060606124ba84828501612517565b60608301525060806124ce84828501612517565b60808301525060a06124e284828501612517565b60a08301525060c06124f684828501612517565b60c08301525092915050565b60008135905061251181614249565b92915050565b60008151905061252681614249565b92915050565b60006020828403121561254257612541613781565b5b60006125508482850161236d565b91505092915050565b600080604083850312156125705761256f613781565b5b600061257e8582860161236d565b925050602061258f8582860161236d565b9150509250929050565b6000806000606084860312156125b2576125b1613781565b5b60006125c08682870161236d565b93505060206125d18682870161236d565b92505060406125e286828701612502565b9150509250925092565b6000806000806080858703121561260657612605613781565b5b60006126148782880161236d565b94505060206126258782880161236d565b935050604061263687828801612502565b925050606085013567ffffffffffffffff8111156126575761265661377c565b5b612663878288016123d6565b91505092959194509250565b6000806040838503121561268657612685613781565b5b60006126948582860161236d565b92505060206126a585828601612397565b9150509250929050565b600080604083850312156126c6576126c5613781565b5b60006126d48582860161236d565b92505060206126e585828601612502565b9150509250929050565b60006020828403121561270557612704613781565b5b6000612713848285016123ac565b91505092915050565b60006020828403121561273257612731613781565b5b6000612740848285016123c1565b91505092915050565b60006020828403121561275f5761275e613781565b5b600082015167ffffffffffffffff81111561277d5761277c61377c565b5b61278984828501612432565b91505092915050565b6000602082840312156127a8576127a7613781565b5b60006127b684828501612502565b91505092915050565b600080604083850312156127d6576127d5613781565b5b60006127e485828601612502565b92505060206127f585828601612502565b9150509250929050565b612808816134c0565b82525050565b612817816134d2565b82525050565b600061282882613368565b612832818561337e565b9350612842818560208601613543565b61284b81613786565b840191505092915050565b600061286182613373565b61286b818561338f565b935061287b818560208601613543565b61288481613786565b840191505092915050565b600061289a82613373565b6128a481856133a0565b93506128b4818560208601613543565b80840191505092915050565b60006128cd60208361338f565b91506128d882613797565b602082019050919050565b60006128f06054836133a0565b91506128fb826137c0565b605482019050919050565b60006129136009836133a0565b915061291e82613835565b600982019050919050565b600061293660328361338f565b91506129418261385e565b604082019050919050565b600061295960258361338f565b9150612964826138ad565b604082019050919050565b600061297c601c8361338f565b9150612987826138fc565b602082019050919050565b600061299f601f836133a0565b91506129aa82613925565b601f82019050919050565b60006129c260248361338f565b91506129cd8261394e565b604082019050919050565b60006129e560198361338f565b91506129f08261399d565b602082019050919050565b6000612a086044836133a0565b9150612a13826139c6565b604482019050919050565b6000612a2b6010836133a0565b9150612a3682613a3b565b601082019050919050565b6000612a4e601f836133a0565b9150612a5982613a64565b601f82019050919050565b6000612a716043836133a0565b9150612a7c82613a8d565b604382019050919050565b6000612a9460298361338f565b9150612a9f82613b02565b604082019050919050565b6000612ab7604e836133a0565b9150612ac282613b51565b604e82019050919050565b6000612ada6009836133a0565b9150612ae582613bc6565b600982019050919050565b6000612afd6002836133a0565b9150612b0882613bef565b600282019050919050565b6000612b206007836133a0565b9150612b2b82613c18565b600782019050919050565b6000612b43603e8361338f565b9150612b4e82613c41565b604082019050919050565b6000612b6660208361338f565b9150612b7182613c90565b602082019050919050565b6000612b89600b836133a0565b9150612b9482613cb9565b600b82019050919050565b6000612bac600a836133a0565b9150612bb782613ce2565b600a82019050919050565b6000612bcf6004836133a0565b9150612bda82613d0b565b600482019050919050565b6000612bf2606c836133a0565b9150612bfd82613d34565b606c82019050919050565b6000612c156028836133a0565b9150612c2082613dcf565b602882019050919050565b6000612c38601f836133a0565b9150612c4382613e1e565b601f82019050919050565b6000612c5b60188361338f565b9150612c6682613e47565b602082019050919050565b6000612c7e600b836133a0565b9150612c8982613e70565b600b82019050919050565b6000612ca160218361338f565b9150612cac82613e99565b604082019050919050565b6000612cc4601d836133a0565b9150612ccf82613ee8565b601d82019050919050565b6000612ce7604f836133a0565b9150612cf282613f11565b604f82019050919050565b6000612d0a6006836133a0565b9150612d1582613f86565b600682019050919050565b6000612d2d6025836133a0565b9150612d3882613faf565b602582019050919050565b6000612d50601b8361338f565b9150612d5b82613ffe565b602082019050919050565b6000612d73602a8361338f565b9150612d7e82614027565b604082019050919050565b6000612d966001836133a0565b9150612da182614076565b600182019050919050565b6000612db96031836133a0565b9150612dc48261409f565b603182019050919050565b6000612ddc602e8361338f565b9150612de7826140ee565b604082019050919050565b6000612dff6006836133a0565b9150612e0a8261413d565b600682019050919050565b6000612e226052836133a0565b9150612e2d82614166565b605282019050919050565b6000612e45601a836133a0565b9150612e50826141db565b601a82019050919050565b612e648161352a565b82525050565b6000612e7582612906565b9150612e81828561288f565b9150612e8c82612d20565b9150612e9782612acd565b9150612ea282612e38565b9150612eae828461288f565b9150612eb982612af0565b91508190509392505050565b6000612ed082612b7c565b9150612edc828461288f565b915081905092915050565b6000612ef282612be5565b9150612efd82612cfd565b9150612f0882612cda565b9150612f1382612e15565b9150612f1e82612aaa565b9150612f2a828761288f565b9150612f3582612a1e565b9150612f4082612992565b9150612f4b82612a41565b9150612f5682612bc2565b9150612f61826128e3565b9150612f6c82612c08565b9150612f7782612dac565b9150612f8282612c2b565b9150612f8e828661288f565b9150612f9982612c71565b9150612fa482612b13565b9150612faf826129fb565b9150612fba82612b9f565b9150612fc6828561288f565b9150612fd182612b13565b9150612fdc82612a64565b9150612fe782612d89565b9150612ff3828461288f565b9150612ffe82612b13565b915061300982612df2565b915081905095945050505050565b600061302282612cb7565b915061302e828461288f565b915081905092915050565b600060208201905061304e60008301846127ff565b92915050565b600060808201905061306960008301876127ff565b61307660208301866127ff565b6130836040830185612e5b565b8181036060830152613095818461281d565b905095945050505050565b60006040820190506130b560008301856127ff565b6130c26020830184612e5b565b9392505050565b60006020820190506130de600083018461280e565b92915050565b600060208201905081810360008301526130fe8184612856565b905092915050565b6000602082019050818103600083015261311f816128c0565b9050919050565b6000602082019050818103600083015261313f81612929565b9050919050565b6000602082019050818103600083015261315f8161294c565b9050919050565b6000602082019050818103600083015261317f8161296f565b9050919050565b6000602082019050818103600083015261319f816129b5565b9050919050565b600060208201905081810360008301526131bf816129d8565b9050919050565b600060208201905081810360008301526131df81612a87565b9050919050565b600060208201905081810360008301526131ff81612b36565b9050919050565b6000602082019050818103600083015261321f81612b59565b9050919050565b6000602082019050818103600083015261323f81612c4e565b9050919050565b6000602082019050818103600083015261325f81612c94565b9050919050565b6000602082019050818103600083015261327f81612d43565b9050919050565b6000602082019050818103600083015261329f81612d66565b9050919050565b600060208201905081810360008301526132bf81612dcf565b9050919050565b60006020820190506132db6000830184612e5b565b92915050565b60006132eb6132fc565b90506132f782826135d2565b919050565b6000604051905090565b600067ffffffffffffffff82111561332157613320613739565b5b61332a82613786565b9050602081019050919050565b600067ffffffffffffffff82111561335257613351613739565b5b61335b82613786565b9050602081019050919050565b600081519050919050565b600081519050919050565b600082825260208201905092915050565b600082825260208201905092915050565b600081905092915050565b60006133b68261352a565b91506133c18361352a565b9250827fffffffffffffffffffffffffffffffffffffffffffffffffffffffffffffffff038211156133f6576133f561367d565b5b828201905092915050565b600061340c8261352a565b91506134178361352a565b925082613427576134266136ac565b5b828204905092915050565b600061343d8261352a565b91506134488361352a565b9250817fffffffffffffffffffffffffffffffffffffffffffffffffffffffffffffffff04831182151516156134815761348061367d565b5b828202905092915050565b60006134978261352a565b91506134a28361352a565b9250828210156134b5576134b461367d565b5b828203905092915050565b60006134cb8261350a565b9050919050565b60008115159050919050565b60007fffffffff0000000000000000000000000000000000000000000000000000000082169050919050565b600073ffffffffffffffffffffffffffffffffffffffff82169050919050565b6000819050919050565b82818337600083830152505050565b60005b83811015613561578082015181840152602081019050613546565b83811115613570576000848401525b50505050565b60006135818261352a565b915060008214156135955761359461367d565b5b600182039050919050565b600060028204905060018216806135b857607f821691505b602082108114156135cc576135cb6136db565b5b50919050565b6135db82613786565b810181811067ffffffffffffffff821117156135fa576135f9613739565b5b80604052505050565b600061360e8261352a565b91507fffffffffffffffffffffffffffffffffffffffffffffffffffffffffffffffff8214156136415761364061367d565b5b600182019050919050565b60006136578261352a565b91506136628361352a565b925082613672576136716136ac565b5b828206905092915050565b7f4e487b7100000000000000000000000000000000000000000000000000000000600052601160045260246000fd5b7f4e487b7100000000000000000000000000000000000000000000000000000000600052601260045260246000fd5b7f4e487b7100000000000000000000000000000000000000000000000000000000600052602260045260246000fd5b7f4e487b7100000000000000000000000000000000000000000000000000000000600052603260045260246000fd5b7f4e487b7100000000000000000000000000000000000000000000000000000000600052604160045260246000fd5b600080fd5b600080fd5b600080fd5b600080fd5b600080fd5b600080fd5b6000601f19601f8301169050919050565b7f537472696e67733a20686578206c656e67746820696e73756666696369656e74600082015250565b7f3c7061746820643d224d2033322034382071203130203130203230203022207360008201527f74796c653d2266696c6c3a6e6f6e653b207374726f6b653a20626c61636b3b2060208201527f7374726f6b652d77696474683a20323b22202f3e000000000000000000000000604082015250565b7f7b226e616d65223a220000000000000000000000000000000000000000000000600082015250565b7f4552433732313a207472616e7366657220746f206e6f6e20455243373231526560008201527f63656976657220696d706c656d656e7465720000000000000000000000000000602082015250565b7f4552433732313a207472616e736665722066726f6d20696e636f72726563742060008201527f6f776e6572000000000000000000000000000000000000000000000000000000602082015250565b7f4552433732313a20746f6b656e20616c7265616479206d696e74656400000000600082015250565b7f3c636972636c652063783d223335222063793d2233372220723d2235222f3e00600082015250565b7f4552433732313a207472616e7366657220746f20746865207a65726f2061646460008201527f7265737300000000000000000000000000000000000000000000000000000000602082015250565b7f4552433732313a20617070726f766520746f2063616c6c657200000000000000600082015250565b7f3c7465787420783d223230302220793d22333222207374796c653d2266696c6c60008201527f3a726762283131302c203131382c20313235292220666f6e742d73697a653d2260208201527f3134223e00000000000000000000000000000000000000000000000000000000604082015250565b7f3c6720636c6173733d2265796573223e00000000000000000000000000000000600082015250565b7f3c636972636c652063783d223439222063793d2233372220723d2235222f3e00600082015250565b7f3c7465787420783d22352220793d2231343022207374796c653d2266696c6c3a60008201527f726762283131302c203131382c20313235292220666f6e742d73697a653d223160208201527f32223e0000000000000000000000000000000000000000000000000000000000604082015250565b7f4552433732313a2061646472657373207a65726f206973206e6f74206120766160008201527f6c6964206f776e65720000000000000000000000000000000000000000000000602082015250565b7f3c636972636c652063783d223430222063793d223430222066696c6c3d22796560008201527f6c6c6f772220723d22323522207374726f6b653d22626c61636b22207374726f60208201527f6b652d77696474683d2232222f3e000000000000000000000000000000000000604082015250565b7f22696d616765223a220000000000000000000000000000000000000000000000600082015250565b7f227d000000000000000000000000000000000000000000000000000000000000600082015250565b7f3c2f746578743e00000000000000000000000000000000000000000000000000600082015250565b7f4552433732313a20617070726f76652063616c6c6572206973206e6f7420746f60008201527f6b656e206f776e6572206e6f7220617070726f76656420666f7220616c6c0000602082015250565b7f4552433732313a206d696e7420746f20746865207a65726f2061646472657373600082015250565b7f506f7374436861696e2023000000000000000000000000000000000000000000600082015250565b7f706f7374636861696e3a00000000000000000000000000000000000000000000600082015250565b7f3c2f673e00000000000000000000000000000000000000000000000000000000600082015250565b7f3c7376672077696474683d2233303022206865696768743d223135302220786d60008201527f6c6e733d22687474703a2f2f7777772e77332e6f72672f323030302f7376672260208201527f20786d6c6e733a786c696e6b3d22687474703a2f2f7777772e77332e6f72672f60408201527f313939392f786c696e6b223e0000000000000000000000000000000000000000606082015250565b7f3c75736520786c696e6b3a687265663d222370617468312220783d223022207960008201527f3d22353022202f3e000000000000000000000000000000000000000000000000602082015250565b7f3c74657874506174682020786c696e6b3a687265663d22237061746831223e00600082015250565b7f4552433732313a20696e76616c696420746f6b656e2049440000000000000000600082015250565b7f3c2f74657874506174683e000000000000000000000000000000000000000000600082015250565b7f4552433732313a20617070726f76616c20746f2063757272656e74206f776e6560008201527f7200000000000000000000000000000000000000000000000000000000000000602082015250565b7f646174613a6170706c69636174696f6e2f6a736f6e3b6261736536342c000000600082015250565b7f3c706174682069643d2270617468312220643d224d31302c363520483239302060008201527f4d31302c38302048323730204d31352c39362048323730204d32302c3131352260208201527f3e3c2f706174683e3c2f646566733e0000000000000000000000000000000000604082015250565b7f3c646566733e0000000000000000000000000000000000000000000000000000600082015250565b7f222c20226465736372697074696f6e223a22416e204e4654206f66206120706f60008201527f7374222c20000000000000000000000000000000000000000000000000000000602082015250565b7f455243323938313a20496e76616c696420706172616d65746572730000000000600082015250565b7f455243323938313a20726f79616c7479206665652077696c6c2065786365656460008201527f2073616c65507269636500000000000000000000000000000000000000000000602082015250565b7f4000000000000000000000000000000000000000000000000000000000000000600082015250565b7f3c74657874207472616e73666f726d3d227472616e736c61746528302c32312960008201527f2220666f6e742d73697a653d223135223e000000000000000000000000000000602082015250565b7f4552433732313a2063616c6c6572206973206e6f7420746f6b656e206f776e6560008201527f72206e6f7220617070726f766564000000000000000000000000000000000000602082015250565b7f3c2f7376673e0000000000000000000000000000000000000000000000000000600082015250565b7f3c726563742077696474683d2233303022206865696768743d2231353022207360008201527f74796c653d2266696c6c3a4c6176656e6465723b7374726f6b652d776964746860208201527f3a313b7374726f6b653a626c61636b222f3e0000000000000000000000000000604082015250565b7f646174613a696d6167652f7376672b786d6c3b6261736536342c000000000000600082015250565b61420d816134c0565b811461421857600080fd5b50565b614224816134d2565b811461422f57600080fd5b50565b61423b816134de565b811461424657600080fd5b50565b6142528161352a565b811461425d57600080fd5b5056fe4142434445464748494a4b4c4d4e4f505152535455565758595a6162636465666768696a6b6c6d6e6f707172737475767778797a303132333435363738392b2fa2646970667358221220240b72accd2e999c11aa21215de74fd211c7ebb9fca2884910faef08fb77929a64736f6c63430008070033",
  "linkReferences": {},
  "deployedLinkReferences": {}
}