{
  "_format": "hh-sol-artifact-1",
  "contractName": "PostChain",
  "sourceName": "contracts/PostChain.sol",
  "abi": [
    {
      "inputs": [],
      "stateMutability": "nonpayable",
      "type": "constructor"
    },
    {
      "inputs": [],
      "name": "PostChain_WithdrawFailed",
      "type": "error"
    },
    {
      "inputs": [],
      "name": "PostChain__AdjustDeadline",
      "type": "error"
    },
    {
      "inputs": [],
      "name": "PostChain__AlreadyLiked",
      "type": "error"
    },
    {
      "inputs": [],
      "name": "PostChain__CharacterlimitExceeded",
      "type": "error"
    },
    {
      "inputs": [
        {
          "internalType": "uint256",
          "name": "deadline",
          "type": "uint256"
        }
      ],
      "name": "PostChain__Deadline",
      "type": "error"
    },
    {
      "inputs": [],
      "name": "PostChain__EmptyBalance",
      "type": "error"
    },
    {
      "inputs": [
        {
          "internalType": "uint256",
          "name": "tipAmount",
          "type": "uint256"
        }
      ],
      "name": "PostChain__TipAmountNotMet",
      "type": "error"
    },
    {
      "inputs": [],
      "name": "PostChain__YouAreNotTheOwner",
      "type": "error"
    },
    {
      "anonymous": false,
      "inputs": [
        {
          "indexed": true,
          "internalType": "address",
          "name": "user",
          "type": "address"
        },
        {
          "indexed": true,
          "internalType": "uint256",
          "name": "commentId",
          "type": "uint256"
        },
        {
          "indexed": true,
          "internalType": "uint256",
          "name": "postId",
          "type": "uint256"
        }
      ],
      "name": "CommentLiked",
      "type": "event"
    },
    {
      "anonymous": false,
      "inputs": [
        {
          "indexed": true,
          "internalType": "address",
          "name": "creator",
          "type": "address"
        },
        {
          "indexed": true,
          "internalType": "uint256",
          "name": "postId",
          "type": "uint256"
        },
        {
          "indexed": true,
          "internalType": "uint256",
          "name": "deadline",
          "type": "uint256"
        }
      ],
      "name": "PostCreated",
      "type": "event"
    },
    {
      "anonymous": false,
      "inputs": [
        {
          "indexed": true,
          "internalType": "address",
          "name": "commenter",
          "type": "address"
        },
        {
          "indexed": true,
          "internalType": "uint256",
          "name": "postId",
          "type": "uint256"
        },
        {
          "indexed": true,
          "internalType": "uint256",
          "name": "commentId",
          "type": "uint256"
        }
      ],
      "name": "RepliedToPost",
      "type": "event"
    },
    {
      "anonymous": false,
      "inputs": [
        {
          "indexed": false,
          "internalType": "address",
          "name": "tipper",
          "type": "address"
        },
        {
          "indexed": false,
          "internalType": "address",
          "name": "user",
          "type": "address"
        },
        {
          "indexed": false,
          "internalType": "uint256",
          "name": "tip",
          "type": "uint256"
        }
      ],
      "name": "UserTipped",
      "type": "event"
    },
    {
      "inputs": [
        {
          "internalType": "string",
          "name": "post",
          "type": "string"
        },
        {
          "internalType": "uint256",
          "name": "likeAndCommentDeadline",
          "type": "uint256"
        }
      ],
      "name": "createPost",
      "outputs": [],
      "stateMutability": "nonpayable",
      "type": "function"
    },
    {
      "inputs": [
        {
          "internalType": "uint256",
          "name": "commentId",
          "type": "uint256"
        }
      ],
      "name": "getComment",
      "outputs": [
        {
          "components": [
            {
              "internalType": "address",
              "name": "commenter",
              "type": "address"
            },
            {
              "internalType": "uint256",
              "name": "postId",
              "type": "uint256"
            },
            {
              "internalType": "uint256",
              "name": "commentId",
              "type": "uint256"
            },
            {
              "internalType": "string",
              "name": "comment",
              "type": "string"
            },
            {
              "internalType": "uint256",
              "name": "timeCreated",
              "type": "uint256"
            },
            {
              "internalType": "uint256",
              "name": "likes",
              "type": "uint256"
            }
          ],
          "internalType": "struct PostChain.Comment",
          "name": "",
          "type": "tuple"
        }
      ],
      "stateMutability": "view",
      "type": "function"
    },
    {
      "inputs": [
        {
          "internalType": "uint256",
          "name": "postId",
          "type": "uint256"
        }
      ],
      "name": "getPost",
      "outputs": [
        {
          "components": [
            {
              "internalType": "address",
              "name": "creator",
              "type": "address"
            },
            {
              "internalType": "string",
              "name": "post",
              "type": "string"
            },
            {
              "internalType": "uint256",
              "name": "postId",
              "type": "uint256"
            },
            {
              "internalType": "uint256",
              "name": "dateCreated",
              "type": "uint256"
            },
            {
              "internalType": "uint256",
              "name": "likeAndCommentDeadline",
              "type": "uint256"
            },
            {
              "internalType": "uint256",
              "name": "totalComments",
              "type": "uint256"
            },
            {
              "internalType": "uint256",
              "name": "totalLikes",
              "type": "uint256"
            }
          ],
          "internalType": "struct PostChain.Post",
          "name": "",
          "type": "tuple"
        }
      ],
      "stateMutability": "view",
      "type": "function"
    },
    {
      "inputs": [],
      "name": "getTipAmount",
      "outputs": [
        {
          "internalType": "uint256",
          "name": "",
          "type": "uint256"
        }
      ],
      "stateMutability": "view",
      "type": "function"
    },
    {
      "inputs": [
        {
          "internalType": "address",
          "name": "user",
          "type": "address"
        }
      ],
      "name": "getTips",
      "outputs": [
        {
          "internalType": "uint256",
          "name": "",
          "type": "uint256"
        }
      ],
      "stateMutability": "view",
      "type": "function"
    },
    {
      "inputs": [
        {
          "internalType": "address",
          "name": "user",
          "type": "address"
        },
        {
          "internalType": "uint256",
          "name": "postId",
          "type": "uint256"
        }
      ],
      "name": "getUserLike",
      "outputs": [
        {
          "components": [
            {
              "internalType": "bool",
              "name": "liked",
              "type": "bool"
            },
            {
              "internalType": "uint256",
              "name": "postId",
              "type": "uint256"
            },
            {
              "internalType": "uint256",
              "name": "commentId",
              "type": "uint256"
            }
          ],
          "internalType": "struct PostChain.Like",
          "name": "",
          "type": "tuple"
        }
      ],
      "stateMutability": "view",
      "type": "function"
    },
    {
      "inputs": [
        {
          "internalType": "uint256",
          "name": "postId",
          "type": "uint256"
        },
        {
          "internalType": "uint256",
          "name": "commentId",
          "type": "uint256"
        }
      ],
      "name": "likeComment",
      "outputs": [],
      "stateMutability": "nonpayable",
      "type": "function"
    },
    {
      "inputs": [
        {
          "internalType": "uint256",
          "name": "postId",
          "type": "uint256"
        },
        {
          "internalType": "string",
          "name": "comment",
          "type": "string"
        }
      ],
      "name": "replyToPost",
      "outputs": [],
      "stateMutability": "nonpayable",
      "type": "function"
    },
    {
      "inputs": [
        {
          "internalType": "address",
          "name": "userAddress",
          "type": "address"
        }
      ],
      "name": "tipUser",
      "outputs": [],
      "stateMutability": "payable",
      "type": "function"
    },
    {
      "inputs": [
        {
          "internalType": "uint256",
          "name": "newTipAmount",
          "type": "uint256"
        }
      ],
      "name": "updateTipAmount",
      "outputs": [],
      "stateMutability": "payable",
      "type": "function"
    },
    {
      "inputs": [
        {
          "internalType": "uint256",
          "name": "commentId",
          "type": "uint256"
        },
        {
          "internalType": "uint256",
          "name": "postId",
          "type": "uint256"
        }
      ],
      "name": "verifyCommentToPost",
      "outputs": [
        {
          "internalType": "bool",
          "name": "",
          "type": "bool"
        }
      ],
      "stateMutability": "view",
      "type": "function"
    },
    {
      "inputs": [],
      "name": "withdrawBalances",
      "outputs": [],
      "stateMutability": "nonpayable",
      "type": "function"
    }
  ],
  "bytecode": "0x60a060405266038d7ea4c6800060005534801561001b57600080fd5b503373ffffffffffffffffffffffffffffffffffffffff1660808173ffffffffffffffffffffffffffffffffffffffff1660601b8152505060805160601c611ed06100716000396000610b210152611ed06000f3fe6080604052600436106100a75760003560e01c80636ccbb0ab116100645780636ccbb0ab146101e557806370d9dadc146101fc5780639b19a7cc14610218578063a0e9182114610255578063d7ee6f431461027e578063f4e8b4fa146102a7576100a7565b806303b99c25146100ac5780630800e300146100e95780631252cb481461012657806312bf6e9f1461014f57806340731c241461016b5780634ffdcd33146101a8575b600080fd5b3480156100b857600080fd5b506100d360048036038101906100ce9190611841565b6102d2565b6040516100e09190611aea565b60405180910390f35b3480156100f557600080fd5b50610110600480360381019061010b91906117b8565b610415565b60405161011d9190611b05565b60405180910390f35b34801561013257600080fd5b5061014d6004803603810190610148919061175c565b610552565b005b610169600480360381019061016491906116ef565b610731565b005b34801561017757600080fd5b50610192600480360381019061018d91906117b8565b61080e565b60405161019f9190611b42565b60405180910390f35b3480156101b457600080fd5b506101cf60048036038101906101ca91906116ef565b610955565b6040516101dc9190611b64565b60405180910390f35b3480156101f157600080fd5b506101fa61099e565b005b610216600480360381019061021191906117b8565b610b08565b005b34801561022457600080fd5b5061023f600480360381019061023a919061171c565b610b97565b60405161024c9190611b27565b60405180910390f35b34801561026157600080fd5b5061027c60048036038101906102779190611841565b610c31565b005b34801561028a57600080fd5b506102a560048036038101906102a091906117e5565b610fa5565b005b3480156102b357600080fd5b506102bc6112a6565b6040516102c99190611b64565b60405180910390f35b600080600560008581526020019081526020016000206040518060c00160405290816000820160009054906101000a900473ffffffffffffffffffffffffffffffffffffffff1673ffffffffffffffffffffffffffffffffffffffff1673ffffffffffffffffffffffffffffffffffffffff168152602001600182015481526020016002820154815260200160038201805461036d90611cdc565b80601f016020809104026020016040519081016040528092919081815260200182805461039990611cdc565b80156103e65780601f106103bb576101008083540402835291602001916103e6565b820191906000526020600020905b8154815290600101906020018083116103c957829003601f168201915b505050505081526020016004820154815260200160058201548152505090508281602001511491505092915050565b61041d6114f0565b600560008381526020019081526020016000206040518060c00160405290816000820160009054906101000a900473ffffffffffffffffffffffffffffffffffffffff1673ffffffffffffffffffffffffffffffffffffffff1673ffffffffffffffffffffffffffffffffffffffff16815260200160018201548152602001600282015481526020016003820180546104b590611cdc565b80601f01602080910402602001604051908101604052809291908181526020018280546104e190611cdc565b801561052e5780601f106105035761010080835404028352916020019161052e565b820191906000526020600020905b81548152906001019060200180831161051157829003601f168201915b50505050508152602001600482015481526020016005820154815250509050919050565b81600061055e826112af565b9050608281111561059b576040517f0c9026e500000000000000000000000000000000000000000000000000000000815260040160405180910390fd5b824281116105d5576040517fb72166ca00000000000000000000000000000000000000000000000000000000815260040160405180910390fd5b6105df6001611464565b60006105eb600161147a565b90506040518060e001604052803373ffffffffffffffffffffffffffffffffffffffff1681526020018781526020018281526020014281526020018681526020016000815260200160008152506004600083815260200190815260200160002060008201518160000160006101000a81548173ffffffffffffffffffffffffffffffffffffffff021916908373ffffffffffffffffffffffffffffffffffffffff16021790555060208201518160010190805190602001906106ae92919061153c565b5060408201518160020155606082015181600301556080820151816004015560a0820151816005015560c0820151816006015590505084813373ffffffffffffffffffffffffffffffffffffffff167f2c65516f1e158977d9a13a610482ada9be23b1c904b6ec1d3323c10be24b705260405160405180910390a4505050505050565b60005434101561077a576000546040517fc28c6a690000000000000000000000000000000000000000000000000000000081526004016107719190611b64565b60405180910390fd5b34600360008373ffffffffffffffffffffffffffffffffffffffff1673ffffffffffffffffffffffffffffffffffffffff16815260200190815260200160002060008282546107c99190611bfc565b925050819055507fd2fb0915bfadeffc679cfa3efa88552f2ffdb52c7f4c0c9d646df0f1fddc055e33823460405161080393929190611ab3565b60405180910390a150565b6108166115c2565b600460008381526020019081526020016000206040518060e00160405290816000820160009054906101000a900473ffffffffffffffffffffffffffffffffffffffff1673ffffffffffffffffffffffffffffffffffffffff1673ffffffffffffffffffffffffffffffffffffffff16815260200160018201805461089a90611cdc565b80601f01602080910402602001604051908101604052809291908181526020018280546108c690611cdc565b80156109135780601f106108e857610100808354040283529160200191610913565b820191906000526020600020905b8154815290600101906020018083116108f657829003601f168201915b50505050508152602001600282015481526020016003820154815260200160048201548152602001600582015481526020016006820154815250509050919050565b6000600360008373ffffffffffffffffffffffffffffffffffffffff1673ffffffffffffffffffffffffffffffffffffffff168152602001908152602001600020549050919050565b6000600360003373ffffffffffffffffffffffffffffffffffffffff1673ffffffffffffffffffffffffffffffffffffffff16815260200190815260200160002054905060008111610a1c576040517f885c274500000000000000000000000000000000000000000000000000000000815260040160405180910390fd5b6000600360003373ffffffffffffffffffffffffffffffffffffffff1673ffffffffffffffffffffffffffffffffffffffff1681526020019081526020016000208190555060003373ffffffffffffffffffffffffffffffffffffffff1682604051610a8790611a9e565b60006040518083038185875af1925050503d8060008114610ac4576040519150601f19603f3d011682016040523d82523d6000602084013e610ac9565b606091505b5050905080610b04576040517febcb65fc00000000000000000000000000000000000000000000000000000000815260040160405180910390fd5b5050565b3373ffffffffffffffffffffffffffffffffffffffff167f000000000000000000000000000000000000000000000000000000000000000073ffffffffffffffffffffffffffffffffffffffff1614610b8d576040517f1155eb9800000000000000000000000000000000000000000000000000000000815260040160405180910390fd5b8060008190555050565b610b9f611615565b600660008473ffffffffffffffffffffffffffffffffffffffff1673ffffffffffffffffffffffffffffffffffffffff16815260200190815260200160002060008381526020019081526020016000206040518060600160405290816000820160009054906101000a900460ff1615151515815260200160018201548152602001600282015481525050905092915050565b3382826000600660008573ffffffffffffffffffffffffffffffffffffffff1673ffffffffffffffffffffffffffffffffffffffff16815260200190815260200160002060008381526020019081526020016000206040518060600160405290816000820160009054906101000a900460ff161515151581526020016001820154815260200160028201548152505090506000610cce84846102d2565b9050808015610cde575081600001515b15610d15576040517f47cdc9c900000000000000000000000000000000000000000000000000000000815260040160405180910390fd5b866000600460008381526020019081526020016000206040518060e00160405290816000820160009054906101000a900473ffffffffffffffffffffffffffffffffffffffff1673ffffffffffffffffffffffffffffffffffffffff1673ffffffffffffffffffffffffffffffffffffffff168152602001600182018054610d9c90611cdc565b80601f0160208091040260200160405190810160405280929190818152602001828054610dc890611cdc565b8015610e155780601f10610dea57610100808354040283529160200191610e15565b820191906000526020600020905b815481529060010190602001808311610df857829003601f168201915b5050505050815260200160028201548152602001600382015481526020016004820154815260200160058201548152602001600682015481525050905080608001514210610e9e5780608001516040517fb9695f84000000000000000000000000000000000000000000000000000000008152600401610e959190611b64565b60405180910390fd5b60405180606001604052806001151581526020018a815260200189815250600660003373ffffffffffffffffffffffffffffffffffffffff1673ffffffffffffffffffffffffffffffffffffffff16815260200190815260200160002060008b815260200190815260200160002060008201518160000160006101000a81548160ff0219169083151502179055506020820151816001015560408201518160020155905050610f4c88611488565b610f55896114b9565b88883373ffffffffffffffffffffffffffffffffffffffff167f9005b5e4b05d871ae6051ccd37421b4d17888121feb906b735864aca22b32e8060405160405180910390a4505050505050505050565b816000600460008381526020019081526020016000206040518060e00160405290816000820160009054906101000a900473ffffffffffffffffffffffffffffffffffffffff1673ffffffffffffffffffffffffffffffffffffffff1673ffffffffffffffffffffffffffffffffffffffff16815260200160018201805461102c90611cdc565b80601f016020809104026020016040519081016040528092919081815260200182805461105890611cdc565b80156110a55780601f1061107a576101008083540402835291602001916110a5565b820191906000526020600020905b81548152906001019060200180831161108857829003601f168201915b505050505081526020016002820154815260200160038201548152602001600482015481526020016005820154815260200160068201548152505090508060800151421061112e5780608001516040517fb9695f840000000000000000000000000000000000000000000000000000000081526004016111259190611b64565b60405180910390fd5b6111386002611464565b6000611144600261147a565b90506040518060c001604052803373ffffffffffffffffffffffffffffffffffffffff16815260200186815260200182815260200185815260200142815260200160008152506005600083815260200190815260200160002060008201518160000160006101000a81548173ffffffffffffffffffffffffffffffffffffffff021916908373ffffffffffffffffffffffffffffffffffffffff1602179055506020820151816001015560408201518160020155606082015181600301908051906020019061121492919061153c565b506080820151816004015560a0820151816005015590505060016004600087815260200190815260200160002060050160008282546112539190611bfc565b9250508190555080853373ffffffffffffffffffffffffffffffffffffffff167f4953ff117e5008397accb1e7c0d300af1cb6249e418f6b87e6f93c0bf678086b60405160405180910390a45050505050565b60008054905090565b60008060008084519050600092505b808210156114595760008583815181106112db576112da611de6565b5b602001015160f81c60f81b9050608060f81b817effffffffffffffffffffffffffffffffffffffffffffffffffffffffffffff1916101561132a576001836113239190611bfc565b9250611445565b60e060f81b817effffffffffffffffffffffffffffffffffffffffffffffffffffffffffffff1916101561136c576002836113659190611bfc565b9250611444565b60f060f81b817effffffffffffffffffffffffffffffffffffffffffffffffffffffffffffff191610156113ae576003836113a79190611bfc565b9250611443565b60f8801b817effffffffffffffffffffffffffffffffffffffffffffffffffffffffffffff191610156113ef576004836113e89190611bfc565b9250611442565b60fc60f81b817effffffffffffffffffffffffffffffffffffffffffffffffffffffffffffff191610156114315760058361142a9190611bfc565b9250611441565b60068361143e9190611bfc565b92505b5b5b5b5b50828061145190611d3f565b9350506112be565b829350505050919050565b6001816000016000828254019250508190555050565b600081600001549050919050565b60016005600083815260200190815260200160002060050160008282546114af9190611bfc565b9250508190555050565b600060046000838152602001908152602001600020905060018160060160008282546114e59190611bfc565b925050819055505050565b6040518060c00160405280600073ffffffffffffffffffffffffffffffffffffffff16815260200160008152602001600081526020016060815260200160008152602001600081525090565b82805461154890611cdc565b90600052602060002090601f01602090048101928261156a57600085556115b1565b82601f1061158357805160ff19168380011785556115b1565b828001600101855582156115b1579182015b828111156115b0578251825591602001919060010190611595565b5b5090506115be9190611638565b5090565b6040518060e00160405280600073ffffffffffffffffffffffffffffffffffffffff1681526020016060815260200160008152602001600081526020016000815260200160008152602001600081525090565b604051806060016040528060001515815260200160008152602001600081525090565b5b80821115611651576000816000905550600101611639565b5090565b600061166861166384611ba4565b611b7f565b90508281526020810184848401111561168457611683611e49565b5b61168f848285611c9a565b509392505050565b6000813590506116a681611e6c565b92915050565b600082601f8301126116c1576116c0611e44565b5b81356116d1848260208601611655565b91505092915050565b6000813590506116e981611e83565b92915050565b60006020828403121561170557611704611e53565b5b600061171384828501611697565b91505092915050565b6000806040838503121561173357611732611e53565b5b600061174185828601611697565b9250506020611752858286016116da565b9150509250929050565b6000806040838503121561177357611772611e53565b5b600083013567ffffffffffffffff81111561179157611790611e4e565b5b61179d858286016116ac565b92505060206117ae858286016116da565b9150509250929050565b6000602082840312156117ce576117cd611e53565b5b60006117dc848285016116da565b91505092915050565b600080604083850312156117fc576117fb611e53565b5b600061180a858286016116da565b925050602083013567ffffffffffffffff81111561182b5761182a611e4e565b5b611837858286016116ac565b9150509250929050565b6000806040838503121561185857611857611e53565b5b6000611866858286016116da565b9250506020611877858286016116da565b9150509250929050565b61188a81611c52565b82525050565b61189981611c52565b82525050565b6118a881611c64565b82525050565b6118b781611c64565b82525050565b60006118c882611bd5565b6118d28185611beb565b93506118e2818560208601611ca9565b6118eb81611e58565b840191505092915050565b6000611903600083611be0565b915061190e82611e69565b600082019050919050565b600060c0830160008301516119316000860182611881565b5060208301516119446020860182611a80565b5060408301516119576040860182611a80565b506060830151848203606086015261196f82826118bd565b91505060808301516119846080860182611a80565b5060a083015161199760a0860182611a80565b508091505092915050565b6060820160008201516119b8600085018261189f565b5060208201516119cb6020850182611a80565b5060408201516119de6040850182611a80565b50505050565b600060e0830160008301516119fc6000860182611881565b5060208301518482036020860152611a1482826118bd565b9150506040830151611a296040860182611a80565b506060830151611a3c6060860182611a80565b506080830151611a4f6080860182611a80565b5060a0830151611a6260a0860182611a80565b5060c0830151611a7560c0860182611a80565b508091505092915050565b611a8981611c90565b82525050565b611a9881611c90565b82525050565b6000611aa9826118f6565b9150819050919050565b6000606082019050611ac86000830186611890565b611ad56020830185611890565b611ae26040830184611a8f565b949350505050565b6000602082019050611aff60008301846118ae565b92915050565b60006020820190508181036000830152611b1f8184611919565b905092915050565b6000606082019050611b3c60008301846119a2565b92915050565b60006020820190508181036000830152611b5c81846119e4565b905092915050565b6000602082019050611b796000830184611a8f565b92915050565b6000611b89611b9a565b9050611b958282611d0e565b919050565b6000604051905090565b600067ffffffffffffffff821115611bbf57611bbe611e15565b5b611bc882611e58565b9050602081019050919050565b600081519050919050565b600081905092915050565b600082825260208201905092915050565b6000611c0782611c90565b9150611c1283611c90565b9250827fffffffffffffffffffffffffffffffffffffffffffffffffffffffffffffffff03821115611c4757611c46611d88565b5b828201905092915050565b6000611c5d82611c70565b9050919050565b60008115159050919050565b600073ffffffffffffffffffffffffffffffffffffffff82169050919050565b6000819050919050565b82818337600083830152505050565b60005b83811015611cc7578082015181840152602081019050611cac565b83811115611cd6576000848401525b50505050565b60006002820490506001821680611cf457607f821691505b60208210811415611d0857611d07611db7565b5b50919050565b611d1782611e58565b810181811067ffffffffffffffff82111715611d3657611d35611e15565b5b80604052505050565b6000611d4a82611c90565b91507fffffffffffffffffffffffffffffffffffffffffffffffffffffffffffffffff821415611d7d57611d7c611d88565b5b600182019050919050565b7f4e487b7100000000000000000000000000000000000000000000000000000000600052601160045260246000fd5b7f4e487b7100000000000000000000000000000000000000000000000000000000600052602260045260246000fd5b7f4e487b7100000000000000000000000000000000000000000000000000000000600052603260045260246000fd5b7f4e487b7100000000000000000000000000000000000000000000000000000000600052604160045260246000fd5b600080fd5b600080fd5b600080fd5b600080fd5b6000601f19601f8301169050919050565b50565b611e7581611c52565b8114611e8057600080fd5b50565b611e8c81611c90565b8114611e9757600080fd5b5056fea2646970667358221220ba92f424a081db43945a7599634905f1817353b88ea0acd2867d3ac00d14249d64736f6c63430008070033",
  "linkReferences": {},
  "deployedLinkReferences": {}
}