{
  "_format": "hh-sol-artifact-1",
  "contractName": "PostChain",
  "sourceName": "contracts/PostChain.sol",
  "abi": [
    {
      "inputs": [],
      "stateMutability": "nonpayable",
      "type": "constructor"
    },
    {
      "inputs": [],
      "name": "PostChain_WithdrawFailed",
      "type": "error"
    },
    {
      "inputs": [],
      "name": "PostChain__AdjustDeadline",
      "type": "error"
    },
    {
      "inputs": [],
      "name": "PostChain__AlreadyLiked",
      "type": "error"
    },
    {
      "inputs": [],
      "name": "PostChain__CharacterlimitExceeded",
      "type": "error"
    },
    {
      "inputs": [
        {
          "internalType": "uint256",
          "name": "deadline",
          "type": "uint256"
        }
      ],
      "name": "PostChain__Deadline",
      "type": "error"
    },
    {
      "inputs": [],
      "name": "PostChain__EmptyBalance",
      "type": "error"
    },
    {
      "inputs": [
        {
          "internalType": "uint256",
          "name": "tipAmount",
          "type": "uint256"
        }
      ],
      "name": "PostChain__TipAmountNotMet",
      "type": "error"
    },
    {
      "inputs": [],
      "name": "PostChain__YouAreNotTheOwner",
      "type": "error"
    },
    {
      "anonymous": false,
      "inputs": [
        {
          "indexed": true,
          "internalType": "address",
          "name": "user",
          "type": "address"
        },
        {
          "indexed": true,
          "internalType": "uint256",
          "name": "commentId",
          "type": "uint256"
        },
        {
          "indexed": true,
          "internalType": "uint256",
          "name": "postId",
          "type": "uint256"
        }
      ],
      "name": "CommentLiked",
      "type": "event"
    },
    {
      "anonymous": false,
      "inputs": [
        {
          "indexed": true,
          "internalType": "address",
          "name": "creator",
          "type": "address"
        },
        {
          "indexed": true,
          "internalType": "uint256",
          "name": "postId",
          "type": "uint256"
        },
        {
          "indexed": true,
          "internalType": "uint256",
          "name": "deadline",
          "type": "uint256"
        }
      ],
      "name": "PostCreated",
      "type": "event"
    },
    {
      "anonymous": false,
      "inputs": [
        {
          "indexed": true,
          "internalType": "address",
          "name": "commenter",
          "type": "address"
        },
        {
          "indexed": true,
          "internalType": "uint256",
          "name": "postId",
          "type": "uint256"
        },
        {
          "indexed": true,
          "internalType": "uint256",
          "name": "commentId",
          "type": "uint256"
        }
      ],
      "name": "RepliedToPost",
      "type": "event"
    },
    {
      "anonymous": false,
      "inputs": [
        {
          "indexed": false,
          "internalType": "address",
          "name": "tipper",
          "type": "address"
        },
        {
          "indexed": false,
          "internalType": "address",
          "name": "user",
          "type": "address"
        },
        {
          "indexed": false,
          "internalType": "uint256",
          "name": "tip",
          "type": "uint256"
        }
      ],
      "name": "UserTipped",
      "type": "event"
    },
    {
      "inputs": [
        {
          "internalType": "string",
          "name": "post",
          "type": "string"
        },
        {
          "internalType": "uint256",
          "name": "likeAndCommentDeadline",
          "type": "uint256"
        }
      ],
      "name": "createPost",
      "outputs": [],
      "stateMutability": "nonpayable",
      "type": "function"
    },
    {
      "inputs": [
        {
          "internalType": "uint256",
          "name": "commentId",
          "type": "uint256"
        }
      ],
      "name": "getComment",
      "outputs": [
        {
          "components": [
            {
              "internalType": "address",
              "name": "commenter",
              "type": "address"
            },
            {
              "internalType": "uint256",
              "name": "postId",
              "type": "uint256"
            },
            {
              "internalType": "uint256",
              "name": "commentId",
              "type": "uint256"
            },
            {
              "internalType": "string",
              "name": "comment",
              "type": "string"
            },
            {
              "internalType": "uint256",
              "name": "timeCreated",
              "type": "uint256"
            },
            {
              "internalType": "uint256",
              "name": "likes",
              "type": "uint256"
            }
          ],
          "internalType": "struct PostChain.Comment",
          "name": "",
          "type": "tuple"
        }
      ],
      "stateMutability": "view",
      "type": "function"
    },
    {
      "inputs": [
        {
          "internalType": "uint256",
          "name": "postId",
          "type": "uint256"
        }
      ],
      "name": "getPost",
      "outputs": [
        {
          "components": [
            {
              "internalType": "address",
              "name": "creator",
              "type": "address"
            },
            {
              "internalType": "string",
              "name": "post",
              "type": "string"
            },
            {
              "internalType": "uint256",
              "name": "postId",
              "type": "uint256"
            },
            {
              "internalType": "uint256",
              "name": "dateCreated",
              "type": "uint256"
            },
            {
              "internalType": "uint256",
              "name": "likeAndCommentDeadline",
              "type": "uint256"
            },
            {
              "internalType": "uint256",
              "name": "totalComments",
              "type": "uint256"
            },
            {
              "internalType": "uint256",
              "name": "totalLikes",
              "type": "uint256"
            }
          ],
          "internalType": "struct PostChain.Post",
          "name": "",
          "type": "tuple"
        }
      ],
      "stateMutability": "view",
      "type": "function"
    },
    {
      "inputs": [],
      "name": "getTipAmount",
      "outputs": [
        {
          "internalType": "uint256",
          "name": "",
          "type": "uint256"
        }
      ],
      "stateMutability": "view",
      "type": "function"
    },
    {
      "inputs": [
        {
          "internalType": "address",
          "name": "user",
          "type": "address"
        }
      ],
      "name": "getTips",
      "outputs": [
        {
          "internalType": "uint256",
          "name": "",
          "type": "uint256"
        }
      ],
      "stateMutability": "view",
      "type": "function"
    },
    {
      "inputs": [
        {
          "internalType": "address",
          "name": "user",
          "type": "address"
        },
        {
          "internalType": "uint256",
          "name": "postId",
          "type": "uint256"
        }
      ],
      "name": "getUserLike",
      "outputs": [
        {
          "components": [
            {
              "internalType": "bool",
              "name": "liked",
              "type": "bool"
            },
            {
              "internalType": "uint256",
              "name": "postId",
              "type": "uint256"
            },
            {
              "internalType": "uint256",
              "name": "commentId",
              "type": "uint256"
            }
          ],
          "internalType": "struct PostChain.Like",
          "name": "",
          "type": "tuple"
        }
      ],
      "stateMutability": "view",
      "type": "function"
    },
    {
      "inputs": [
        {
          "internalType": "uint256",
          "name": "postId",
          "type": "uint256"
        },
        {
          "internalType": "uint256",
          "name": "commentId",
          "type": "uint256"
        }
      ],
      "name": "likeComment",
      "outputs": [],
      "stateMutability": "nonpayable",
      "type": "function"
    },
    {
      "inputs": [
        {
          "internalType": "uint256",
          "name": "postId",
          "type": "uint256"
        },
        {
          "internalType": "string",
          "name": "comment",
          "type": "string"
        }
      ],
      "name": "replyToPost",
      "outputs": [],
      "stateMutability": "nonpayable",
      "type": "function"
    },
    {
      "inputs": [
        {
          "internalType": "address",
          "name": "userAddress",
          "type": "address"
        }
      ],
      "name": "tipUser",
      "outputs": [],
      "stateMutability": "payable",
      "type": "function"
    },
    {
      "inputs": [
        {
          "internalType": "uint256",
          "name": "newTipAmount",
          "type": "uint256"
        }
      ],
      "name": "updateTipAmount",
      "outputs": [],
      "stateMutability": "payable",
      "type": "function"
    },
    {
      "inputs": [
        {
          "internalType": "uint256",
          "name": "commentId",
          "type": "uint256"
        },
        {
          "internalType": "uint256",
          "name": "postId",
          "type": "uint256"
        }
      ],
      "name": "verifyCommentToPost",
      "outputs": [
        {
          "internalType": "bool",
          "name": "",
          "type": "bool"
        }
      ],
      "stateMutability": "view",
      "type": "function"
    },
    {
      "inputs": [],
      "name": "withdrawBalances",
      "outputs": [],
      "stateMutability": "nonpayable",
      "type": "function"
    }
  ],
  "bytecode": "0x60a060405266038d7ea4c680006000553480156200001c57600080fd5b50620000517f4d5b5cbf80e1b78cdb3505be2b2191429634cc31f90d5f1ca29dbd533f0ecf8160001b620000f660201b60201c565b620000857fd97baf5cc3f80aa8fa367cd03fdd6fe4e5cddf1784e721b46a533d6a4db8d79760001b620000f660201b60201c565b620000b97fbb6d65c0ddcafa4d20e93de177fb57e6ecca0d8c31e2a35ab7b2b45b180ff6a160001b620000f660201b60201c565b3373ffffffffffffffffffffffffffffffffffffffff1660808173ffffffffffffffffffffffffffffffffffffffff1660601b81525050620000f9565b50565b60805160601c6136606200011860003960006116fe01526136606000f3fe6080604052600436106100a75760003560e01c80636ccbb0ab116100645780636ccbb0ab146101e557806370d9dadc146101fc5780639b19a7cc14610218578063a0e9182114610255578063d7ee6f431461027e578063f4e8b4fa146102a7576100a7565b806303b99c25146100ac5780630800e300146100e95780631252cb481461012657806312bf6e9f1461014f57806340731c241461016b5780634ffdcd33146101a8575b600080fd5b3480156100b857600080fd5b506100d360048036038101906100ce9190612fd1565b6102d2565b6040516100e0919061327a565b60405180910390f35b3480156100f557600080fd5b50610110600480360381019061010b9190612f48565b6104f2565b60405161011d9190613295565b60405180910390f35b34801561013257600080fd5b5061014d60048036038101906101489190612eec565b6106b3565b005b61016960048036038101906101649190612e7f565b610cde565b005b34801561017757600080fd5b50610192600480360381019061018d9190612f48565b610f73565b60405161019f91906132d2565b60405180910390f35b3480156101b457600080fd5b506101cf60048036038101906101ca9190612e7f565b61113e565b6040516101dc91906132f4565b60405180910390f35b3480156101f157600080fd5b506101fa61120b565b005b61021660048036038101906102119190612f48565b611661565b005b34801561022457600080fd5b5061023f600480360381019061023a9190612eac565b611850565b60405161024c91906132b7565b60405180910390f35b34801561026157600080fd5b5061027c60048036038101906102779190612fd1565b61196d565b005b34801561028a57600080fd5b506102a560048036038101906102a09190612f75565b6121dd565b005b3480156102b357600080fd5b506102bc61284e565b6040516102c991906132f4565b60405180910390f35b60006103007fc1453a95bc2669b9be82c24ccf6bee0ec58ff33710f8045327cb77ff4a5060c160001b6128dc565b61032c7f40db5586b77b4dcf87f91741e2b8ab77bc582ef29ef42a92a0fcaa7e9edd0a2360001b6128dc565b6103587fc6a5d1247fe4e340c99781a394d8804330d440ee68d5b9a1b8b810f357b6ff8c60001b6128dc565b6000600560008581526020019081526020016000206040518060c00160405290816000820160009054906101000a900473ffffffffffffffffffffffffffffffffffffffff1673ffffffffffffffffffffffffffffffffffffffff1673ffffffffffffffffffffffffffffffffffffffff16815260200160018201548152602001600282015481526020016003820180546103f29061346c565b80601f016020809104026020016040519081016040528092919081815260200182805461041e9061346c565b801561046b5780601f106104405761010080835404028352916020019161046b565b820191906000526020600020905b81548152906001019060200180831161044e57829003601f168201915b505050505081526020016004820154815260200160058201548152505090506104b67f5e7321d88e9b5cf2a9eacbeef484282fde25a504db6b3a77668da610e9facb3860001b6128dc565b6104e27fe07058d676ef48a2ef251cf227f59c49299d39266e32edd2282d7c702a32aaad60001b6128dc565b8281602001511491505092915050565b6104fa612c80565b6105267f75e603262f7c72e557cf29e54607406163c3143bcaff614c49f6d3b7f38d319360001b6128dc565b6105527f32888a3e9cca87baac4f15427a790ced25ca44ddf4979f18f77917da97c7a13c60001b6128dc565b61057e7f5c027d6ef9a145cab7b9ff995c6fa14a489d68996256898cdad53bbd02ef357660001b6128dc565b600560008381526020019081526020016000206040518060c00160405290816000820160009054906101000a900473ffffffffffffffffffffffffffffffffffffffff1673ffffffffffffffffffffffffffffffffffffffff1673ffffffffffffffffffffffffffffffffffffffff16815260200160018201548152602001600282015481526020016003820180546106169061346c565b80601f01602080910402602001604051908101604052809291908181526020018280546106429061346c565b801561068f5780601f106106645761010080835404028352916020019161068f565b820191906000526020600020905b81548152906001019060200180831161067257829003601f168201915b50505050508152602001600482015481526020016005820154815250509050919050565b816106e07fe6728214b9bf75a644d94da942b20aba6b64e77804e23f792fdb9f58cb21f8f960001b6128dc565b61070c7f9c370dacb0c880c7a6f60d08f7551283b4da528ee73a04eef486d3abef189ff560001b6128dc565b6107387fed5a789b215f486b4e93a14e6a48c81c7567576c7a520dcfe8c750f289bb40b460001b6128dc565b6000610743826128df565b90506107717f38f3beebc43c7f7a3335bc91a33e772e0ba6e74e79bd22790c7bb29673b7c92e60001b6128dc565b61079d7f68289ca594f052ad421ab7ee5398b2e6da176b2a9e2c184aed8a9e4d55f1770b60001b6128dc565b6082811115610830576107d27f6ba40108605d38dfdd39bb51ccae9b432d2f728c9bfefc05c47255ccae446b1860001b6128dc565b6107fe7fd2c416d1ba053cb804e823e9db207045f094c138122be8d744cc27185fc2309d60001b6128dc565b6040517f0c9026e500000000000000000000000000000000000000000000000000000000815260040160405180910390fd5b61085c7fc73daf35a84e301b04e33aee08b67720157f420b033a3eb0a72102c6fdc9d89c60001b6128dc565b6108887faea63dec9f268611db5b492a6011363f089f2763f41a7ed6a78610e2d28c00f060001b6128dc565b826108b57fc6e51f3775e378b27c5f9dde335a9da30d9cf438da5db39401c1c9b13a6fd13060001b6128dc565b6108e17ffc4b01b5b10b0bbd046aef6b8407850a16538bca6df164d8d112c89ec56fd85260001b6128dc565b61090d7f207133d9384ca16296d68d9e54d164a4c2a14f4d433ec3e94c919c1b915586c260001b6128dc565b42811161099e576109407f82152313330ef38c2f80d181a9bfcd1fc0233b90b7f85bd883468194ea27c0c060001b6128dc565b61096c7f2ba76a806471bfddbb4993401144df5a5879feb0ce93153be73d30978d20c72b60001b6128dc565b6040517fb72166ca00000000000000000000000000000000000000000000000000000000815260040160405180910390fd5b6109ca7f947e767994d978654380d61f2b0b65593d9846a15e32513b5a5a74857ad545ee60001b6128dc565b6109f67f651b6df59749621bf80453df3ab3502114e060eb9b96053d5ee008cf197ed51a60001b6128dc565b610a227f74ce9c64e646c72ba6715ec478421d74a90b0a87c2c99dd6ccc1e70a7fd866f160001b6128dc565b610a4e7fc33250d464c51b2d46723b296c4a82ca11f4b9e67e3cb7fceab692621c2bb27560001b6128dc565b610a7a7f45cfc21f55f115a11e4ee8948ba7b87d3e3d8f2899e6141403b3595888f1881b60001b6128dc565b610a846001612a94565b610ab07fe40b71f0d001ef9cfbff08dc851f3735997b97c257b3791b3aca90d07a24a59160001b6128dc565b610adc7f661fd3b7c805af6e222861c299adb0d0e0840ee0f6a5c9d2458a121eb5553c7860001b6128dc565b6000610ae86001612aaa565b9050610b167fb8123ab10ba042de74ed839d4e398a2228be214aeaa48fa19d791aa09659590660001b6128dc565b610b427fe65e258e856a9d52ab4723f12af507e2ea2755c736ae50dfca65a611f522419f60001b6128dc565b6040518060e001604052803373ffffffffffffffffffffffffffffffffffffffff1681526020018781526020018281526020014281526020018681526020016000815260200160008152506004600083815260200190815260200160002060008201518160000160006101000a81548173ffffffffffffffffffffffffffffffffffffffff021916908373ffffffffffffffffffffffffffffffffffffffff1602179055506020820151816001019080519060200190610c03929190612ccc565b5060408201518160020155606082015181600301556080820151816004015560a0820151816005015560c08201518160060155905050610c657ffc37c94d37dfe71a12a7593a72625beb9e82ebf218a818e4b167826818383bce60001b6128dc565b610c917fa050ae5cd2b284af324eddabedea9137109388b9cf72bb06d099aa257c90dfaa60001b6128dc565b84813373ffffffffffffffffffffffffffffffffffffffff167f2c65516f1e158977d9a13a610482ada9be23b1c904b6ec1d3323c10be24b705260405160405180910390a4505050505050565b610d0a7fc75e06253dfdc314c8f3b94f638a39052576a93a25489a0de710f4718e1fdf3b60001b6128dc565b610d367fe7ad44640fa70c4abec24d4da38733a8deea3699c07fe7b6bbbabda67a11567460001b6128dc565b610d627f51408ad9ce74108c5364d521b53408eb8daf18abb652255899ddb35f7776a5be60001b6128dc565b600054341015610e0357610d987f06ffa8aac68b8df2e3ba88cc13c1892a05e20440574e9eaf18c648e7a627ca0f60001b6128dc565b610dc47f9fcf1609f9b9444d2bef9fc63db7256b6f84ece16b8176160697c89c0c86788760001b6128dc565b6000546040517fc28c6a69000000000000000000000000000000000000000000000000000000008152600401610dfa91906132f4565b60405180910390fd5b610e2f7fd637f998d103c99f537758aacda25ceef0b026e54eb9540e4c3f5177d4ab01c560001b6128dc565b610e5b7f2507a97058b52cd33e250cd1438dfdc51f0817ca389c0b09548a5d93867d360660001b6128dc565b610e877fa3839af099edbfab7e357eb3bec53741811cd527c270e3dde8129df6185d816760001b6128dc565b34600360008373ffffffffffffffffffffffffffffffffffffffff1673ffffffffffffffffffffffffffffffffffffffff1681526020019081526020016000206000828254610ed6919061338c565b92505081905550610f097fafb37c2e801dcd6767a6b629fbdbb3255692da913f143516237ab745b1d2dcd460001b6128dc565b610f357f3f59b161b5e0e14260ec1fa7e1975990a627f49a87301708a14c57762354197160001b6128dc565b7fd2fb0915bfadeffc679cfa3efa88552f2ffdb52c7f4c0c9d646df0f1fddc055e338234604051610f6893929190613243565b60405180910390a150565b610f7b612d52565b610fa77f5e3934457d46a2262a3f2ca8f0cb26f01feaceee71be48556c10946c7a150f8560001b6128dc565b610fd37fa6083de2c1ba9561f8e42beb6f00b8748b09d379bcb14997d69928cc3ec6c61b60001b6128dc565b610fff7fc13b6af729a54c83796313a10d9482465bc7b4cfab7734297b620a65d2e7898560001b6128dc565b600460008381526020019081526020016000206040518060e00160405290816000820160009054906101000a900473ffffffffffffffffffffffffffffffffffffffff1673ffffffffffffffffffffffffffffffffffffffff1673ffffffffffffffffffffffffffffffffffffffff1681526020016001820180546110839061346c565b80601f01602080910402602001604051908101604052809291908181526020018280546110af9061346c565b80156110fc5780601f106110d1576101008083540402835291602001916110fc565b820191906000526020600020905b8154815290600101906020018083116110df57829003601f168201915b50505050508152602001600282015481526020016003820154815260200160048201548152602001600582015481526020016006820154815250509050919050565b600061116c7f0c10a52a7a24de451ca1825fe271d620db57e9c4e82a804ea7f7b928d0c3e7bf60001b6128dc565b6111987fff529da4146589c7290826688339cfe2647f9fbb9020987fa99d4c024fc4573f60001b6128dc565b6111c47f1f442fcbc7fb0f3aa6dac19dfa11550dcf474296d18698c36211af3a8eb33b8560001b6128dc565b600360008373ffffffffffffffffffffffffffffffffffffffff1673ffffffffffffffffffffffffffffffffffffffff168152602001908152602001600020549050919050565b6112377fab3a49444c0a252934eee6b7530ae4aad3b0bb5932105f2ade396b3f6970b13660001b6128dc565b6112637fc30f37ab96940c899d9ae3ba2d0e30386cd30cb65b0cbb392b92133b2bc336a860001b6128dc565b61128f7f0decd19b469f8a3ff61c13ae1bf530efd8433338f5e41dcf8b27c2ba7d4de04a60001b6128dc565b6000600360003373ffffffffffffffffffffffffffffffffffffffff1673ffffffffffffffffffffffffffffffffffffffff1681526020019081526020016000205490506112ff7fe6d7b87405d5922ecb42e218e3c47e9496f65b4f80c0c21a559d2db3be8d899a60001b6128dc565b61132b7fd51647b0e70df72340179b42f368137348ae7f2f8ecb02254bd8d5d0700f8ef160001b6128dc565b600081116113bd5761135f7f139f7047a6163240cc456aeb80a2d999838fae06a4e9cd8297e47e85f91780b260001b6128dc565b61138b7f632d04c4f67f6a58922206369b9491f61efd0bfa207f4eab8d403c4938dd546060001b6128dc565b6040517f885c274500000000000000000000000000000000000000000000000000000000815260040160405180910390fd5b6113e97fb0de8104488b9be2b898929bda97ae653375b439290013e82d68e15cc06d1e0f60001b6128dc565b6114157fbe4dc9e1d8ea677132608435aa8193a0e490a57cef38c982b05fa6f1eb381b5460001b6128dc565b6114417f501e2783cd3b70c0ab1354a0e01032080c5a31a106bb8830e8b04d7d6a2baa1c60001b6128dc565b6000600360003373ffffffffffffffffffffffffffffffffffffffff1673ffffffffffffffffffffffffffffffffffffffff168152602001908152602001600020819055506114b27fb0ee768cd980bff65444ad871ae57d773a8db2fa1bc66e8bd95872d985bdbd7f60001b6128dc565b6114de7f89aaa2d7299019ffe706d5d9edb3f8d88c5c32cc2d2321bf8b59f66c84b53c9f60001b6128dc565b60003373ffffffffffffffffffffffffffffffffffffffff16826040516115049061322e565b60006040518083038185875af1925050503d8060008114611541576040519150601f19603f3d011682016040523d82523d6000602084013e611546565b606091505b505090506115767fa8be3dc7213d66a3253aa39500461b2ef509d532ec6aca2c500371cb2619d02060001b6128dc565b6115a27fdf38c6b5d24c3af04c249665960420efe420b766f484997fd03441c96d0306e160001b6128dc565b80611631576115d37f0e53b3ddff4c316cb747d6a729fcaa628217da82beaf1334bca35bed19960ff760001b6128dc565b6115ff7f86bd80c5fd57704963034e39f0d9f9fc07312b258484fa22f960190fc408f95660001b6128dc565b6040517febcb65fc00000000000000000000000000000000000000000000000000000000815260040160405180910390fd5b61165d7f803e5695c38c0186e3a31374827597db349f342e9dc2b72cb98f43b626a1af9260001b6128dc565b5050565b61168d7ffb0af05aba12fe71474722370b7f9cab6fb4eff7d1f252838efee268e062a3dd60001b6128dc565b6116b97f87c55e15a00597ff327505835eafa8fd09395bcac6c7eb3c982a0578b2f6b50960001b6128dc565b6116e57f94c48f484e2c7e7edf84ea6a3aef8e53091ae295510fafd5d769b5511f1281a360001b6128dc565b3373ffffffffffffffffffffffffffffffffffffffff167f000000000000000000000000000000000000000000000000000000000000000073ffffffffffffffffffffffffffffffffffffffff16146117c2576117647fe6ee2c2a396fac85edb7eefd559ea780cfd2dcafcc28e7b55722795a3b7fd5e160001b6128dc565b6117907f0c34f50c7638eba201f49419973fa9dfc5c1dfdb87b6ec9e3cb476dec87fdf4c60001b6128dc565b6040517f1155eb9800000000000000000000000000000000000000000000000000000000815260040160405180910390fd5b6117ee7f1c17c83c2527ea64525817b4e1f9f3afebcd41e04ab59409e73e981d4d56d96060001b6128dc565b61181a7f9b265d7cc9891cfc7522c7627c90bf955c8cf838d2b256785b8eeb22dd6644e060001b6128dc565b6118467fe32620332987c6810235b138c7e008f620ceea2bf91e13f94349f11c4c0c0b9460001b6128dc565b8060008190555050565b611858612da5565b6118837e74a0542a6c258b718583b937b8e05353ee375656b4608c66481953de8db30060001b6128dc565b6118af7f4f43c08c30ad2c2cb84ac0467857f994b00d03e2d709180c6c4e99ce6a4a212960001b6128dc565b6118db7f50ddc3b25447231ae528ec6fd460ac62cc7c06570bdee4e281e978d9187a483360001b6128dc565b600660008473ffffffffffffffffffffffffffffffffffffffff1673ffffffffffffffffffffffffffffffffffffffff16815260200190815260200160002060008381526020019081526020016000206040518060600160405290816000820160009054906101000a900460ff1615151515815260200160018201548152602001600282015481525050905092915050565b33828261199c7f7ed9053dc35de1e73790a049dd63869a97d76da3cb65bd57c0e40da6b5075c7e60001b6128dc565b6119c87f936a6f3cf0bc96d97f09bcc24cf7cd36a0d4acee1f76fde3a665b90d22a254cc60001b6128dc565b6119f47f41d6ce933b0de8c3e6f26d6eb797d93a9f63ad95f8c122e6f0a8ca104f127d1e60001b6128dc565b6000600660008573ffffffffffffffffffffffffffffffffffffffff1673ffffffffffffffffffffffffffffffffffffffff16815260200190815260200160002060008381526020019081526020016000206040518060600160405290816000820160009054906101000a900460ff16151515158152602001600182015481526020016002820154815250509050611aae7f60d34da330adcf3e715b3ebca1d936f1ed86d47572a8883e68b91ede643d4fdb60001b6128dc565b611ada7f5bc587b5a44f67cdb779b6e8206b372f649266f9ad0c3b797dba07cbdf0a973960001b6128dc565b6000611ae684846102d2565b9050611b147f6387812a827becbe0561218aa92864f4c82d572e6f9d25704002890f0713d2cd60001b6128dc565b611b407f786354f93253aa83cc9626e60e6000343928fc356939eb251c4e3a2ff99c16a360001b6128dc565b808015611b4e575081600001515b15611bdd57611b7f7fe8cf622de5f41410891014e55c0536b761b5255f58c9dbb90f6ee88dde0bca7d60001b6128dc565b611bab7f98d10ec9edd321e58fef972b3fc5bc32fb348e5c573743201565eba939c1227160001b6128dc565b6040517f47cdc9c900000000000000000000000000000000000000000000000000000000815260040160405180910390fd5b611c097f1d1fb1da2532683f97f1a0575907f6885bdfc1fe282b55cf124d2e558acdc5ab60001b6128dc565b611c357f37754d92e7a6d68a44e22e033410f8ec3b04163464adaf0ef1a7001bbdc9d9b260001b6128dc565b86611c627ff05945c441ecfb3db252bc00891cbd82ebf53c2481233d22c0be1a4a817ee60360001b6128dc565b611c8e7f648db0a4e2b789f6101b0d360101daa7286088e6fe25410862d5ace929299d2b60001b6128dc565b611cba7fe79a31ccc12d364ddfa88663ee395c3e15bd3df99042f78a6ea5968bfa91078360001b6128dc565b6000600460008381526020019081526020016000206040518060e00160405290816000820160009054906101000a900473ffffffffffffffffffffffffffffffffffffffff1673ffffffffffffffffffffffffffffffffffffffff1673ffffffffffffffffffffffffffffffffffffffff168152602001600182018054611d409061346c565b80601f0160208091040260200160405190810160405280929190818152602001828054611d6c9061346c565b8015611db95780601f10611d8e57610100808354040283529160200191611db9565b820191906000526020600020905b815481529060010190602001808311611d9c57829003601f168201915b50505050508152602001600282015481526020016003820154815260200160048201548152602001600582015481526020016006820154815250509050611e227ffd082a3e66ef3e75355f558379e2f4ed3d0a035c4166d30d7295669847f5039860001b6128dc565b611e4e7f85c4a385fa6848d4b9b0150728cef9fa624ade02db8206011cf15c5728e9655e60001b6128dc565b80608001514210611ef257611e857f680fce5b102a67177b138b32c07f6721ed47d3bc29a5a398dd0db3df0143713f60001b6128dc565b611eb17fb40f3cb9a6f60431f23c770761246ea0ae15ff537349971e7c2c42cfed8a58ce60001b6128dc565b80608001516040517fb9695f84000000000000000000000000000000000000000000000000000000008152600401611ee991906132f4565b60405180910390fd5b611f1e7f08319722b294ad5019e611e26ce6a7224f51eea3cc0c611d8e3809f6f39d11eb60001b6128dc565b611f4a7f23237f4aa208e3b51440410d3b24cd2e360218b9dc851c2ac5bb9b68681bd0be60001b6128dc565b611f767fce579872f913effcd6c88e1a98df5881c8cc019096f0c5fa6b78c2138d83c9e860001b6128dc565b611fa27fbb6e615f470a92fcd108baef6f243c8641cb8e60730e81d3119b4b1ee1c7f45360001b6128dc565b611fce7f751999b1830c20369a27a54da62cb4f8be62d6701ba021b9b58cf62f15a3675760001b6128dc565b60405180606001604052806001151581526020018a815260200189815250600660003373ffffffffffffffffffffffffffffffffffffffff1673ffffffffffffffffffffffffffffffffffffffff16815260200190815260200160002060008b815260200190815260200160002060008201518160000160006101000a81548160ff021916908315150217905550602082015181600101556040820151816002015590505061209f7fbde410cee9c5ea8dde73ee9ca714735e5142d2d4fe986457b89e1a89d4a8eaac60001b6128dc565b6120cb7fec1ddd2809ce6db9228b214c0c6f330481a5499867a1e30fb355857b1476589760001b6128dc565b6120d488612ab8565b6121007f5fddfa77a9ccd3de954f06382118632062dff69ae99eda362e20578c72bf9b3f60001b6128dc565b61212c7f97e2bccd73edd467d3fe5302d66b7b3c5bd15c40a5641577771ab9762f6ded6f60001b6128dc565b61213589612b6d565b6121617fdfb1714ba5b3f749baeedd453aeb466cc0f6fb33fed130bf2f29f7526e74d0bd60001b6128dc565b61218d7f8385cde32d414f9c908f01c360e2cbcee2ade73108bcf14aae42e814e85282d460001b6128dc565b88883373ffffffffffffffffffffffffffffffffffffffff167f9005b5e4b05d871ae6051ccd37421b4d17888121feb906b735864aca22b32e8060405160405180910390a4505050505050505050565b8161220a7ff05945c441ecfb3db252bc00891cbd82ebf53c2481233d22c0be1a4a817ee60360001b6128dc565b6122367f648db0a4e2b789f6101b0d360101daa7286088e6fe25410862d5ace929299d2b60001b6128dc565b6122627fe79a31ccc12d364ddfa88663ee395c3e15bd3df99042f78a6ea5968bfa91078360001b6128dc565b6000600460008381526020019081526020016000206040518060e00160405290816000820160009054906101000a900473ffffffffffffffffffffffffffffffffffffffff1673ffffffffffffffffffffffffffffffffffffffff1673ffffffffffffffffffffffffffffffffffffffff1681526020016001820180546122e89061346c565b80601f01602080910402602001604051908101604052809291908181526020018280546123149061346c565b80156123615780601f1061233657610100808354040283529160200191612361565b820191906000526020600020905b81548152906001019060200180831161234457829003601f168201915b505050505081526020016002820154815260200160038201548152602001600482015481526020016005820154815260200160068201548152505090506123ca7ffd082a3e66ef3e75355f558379e2f4ed3d0a035c4166d30d7295669847f5039860001b6128dc565b6123f67f85c4a385fa6848d4b9b0150728cef9fa624ade02db8206011cf15c5728e9655e60001b6128dc565b8060800151421061249a5761242d7f680fce5b102a67177b138b32c07f6721ed47d3bc29a5a398dd0db3df0143713f60001b6128dc565b6124597fb40f3cb9a6f60431f23c770761246ea0ae15ff537349971e7c2c42cfed8a58ce60001b6128dc565b80608001516040517fb9695f8400000000000000000000000000000000000000000000000000000000815260040161249191906132f4565b60405180910390fd5b6124c67f08319722b294ad5019e611e26ce6a7224f51eea3cc0c611d8e3809f6f39d11eb60001b6128dc565b6124f27f23237f4aa208e3b51440410d3b24cd2e360218b9dc851c2ac5bb9b68681bd0be60001b6128dc565b61251e7fa4ce0281885dffe2664b37d6da654c1019220dfd599c3f8bbb6aab41eb3c2cc360001b6128dc565b61254a7f6c5202e9baeb07d69412c59c210c669651f08d6323c028f5baee30f14f457a7160001b6128dc565b6125767f4ca58dd9dceed20b821168c4df8a6f2b7c7859eec8a2b66c819467ce79870af460001b6128dc565b6125806002612a94565b6125ac7f961a771691dabff88986861627cbc1fe2c89b03f23384795ad2d4f179125edb660001b6128dc565b6125d87ffa25ec83788e4945187e783c94576db3c60826961b9364b4f6f70cd37db6c4d060001b6128dc565b60006125e46002612aaa565b90506126127ff9a84c1931d7bddc7f3558c9b386584b20c611f93e61e72a11517a392fe2969460001b6128dc565b61263e7f9166d92664ac6b282b42a907c2f9757ab82b005e6c5735819551d5f5295812f560001b6128dc565b6040518060c001604052803373ffffffffffffffffffffffffffffffffffffffff16815260200186815260200182815260200185815260200142815260200160008152506005600083815260200190815260200160002060008201518160000160006101000a81548173ffffffffffffffffffffffffffffffffffffffff021916908373ffffffffffffffffffffffffffffffffffffffff1602179055506020820151816001015560408201518160020155606082015181600301908051906020019061270c929190612ccc565b506080820151816004015560a082015181600501559050506127507ffcbd3245268363154a3d0243718c4b569a3dece011e872a3df3925b40839648f60001b6128dc565b61277c7f3b4755cdd8a10401704eb7cebc6bf78658feea3be50143cfbd711fab19e6a6e260001b6128dc565b60016004600087815260200190815260200160002060050160008282546127a3919061338c565b925050819055506127d67f19768cdfa0b86e3d82b2ac89e7e72ccb00a15a9e66d1e0168a004654692c8a8360001b6128dc565b6128027f4347d5483926dd7fe75cf4a9bc536435df5d99d1dea92e3443322751f400f7cd60001b6128dc565b80853373ffffffffffffffffffffffffffffffffffffffff167f4953ff117e5008397accb1e7c0d300af1cb6249e418f6b87e6f93c0bf678086b60405160405180910390a45050505050565b600061287c7f1daa2f7463766e21d90bf10c9bbaaf7261282dea54d353552f6052bcc852582560001b6128dc565b6128a87f0a7f534aa9f476ad5ecae69f18bb0b1842f1cf3e4edd565798ad64d33ada3d7960001b6128dc565b6128d47f9940f55aa5baefc1c178e62055b82697818ec10eef42aa1c281248c3ffdc4c4260001b6128dc565b600054905090565b50565b60008060008084519050600092505b80821015612a8957600085838151811061290b5761290a613576565b5b602001015160f81c60f81b9050608060f81b817effffffffffffffffffffffffffffffffffffffffffffffffffffffffffffff1916101561295a57600183612953919061338c565b9250612a75565b60e060f81b817effffffffffffffffffffffffffffffffffffffffffffffffffffffffffffff1916101561299c57600283612995919061338c565b9250612a74565b60f060f81b817effffffffffffffffffffffffffffffffffffffffffffffffffffffffffffff191610156129de576003836129d7919061338c565b9250612a73565b60f8801b817effffffffffffffffffffffffffffffffffffffffffffffffffffffffffffff19161015612a1f57600483612a18919061338c565b9250612a72565b60fc60f81b817effffffffffffffffffffffffffffffffffffffffffffffffffffffffffffff19161015612a6157600583612a5a919061338c565b9250612a71565b600683612a6e919061338c565b92505b5b5b5b5b508280612a81906134cf565b9350506128ee565b829350505050919050565b6001816000016000828254019250508190555050565b600081600001549050919050565b612ae47fbd3caa622df6f006092ec87f4c5a66dd952df8713f407c586ece3691df38b1f160001b6128dc565b612b107f4dfc468f047b9099fff4789bc6861517e97cd9ca00d03fbd1c21c985093e71d360001b6128dc565b612b3c7f7cb4c8cda2920127dc52de479c15a015e734a265e36161823190f4bd123c699d60001b6128dc565b6001600560008381526020019081526020016000206005016000828254612b63919061338c565b9250508190555050565b612b997fab53a98d5aaad0bce4129e550f385abdf72758937f29c7661d1acd1e030648d360001b6128dc565b612bc57f6dd260ac7d87c1d3ec0ac5a0a1eac37d20ad66b6c444ecbc5e7b7086d095ad7160001b6128dc565b612bf17f76a4c62974c5a4da5ee032f46cfb19f88e053e3885c58e23391cfb1d0565d34760001b6128dc565b6000600460008381526020019081526020016000209050612c347fb7238f5eaa4092274e14b17503a1e7f4e444f072863fd9f763c5a355d89131c060001b6128dc565b612c607f9ea0c0d4949bd5a734cd60a3b7ea59c96101b79a223fb49f39ff97e2704fc13a60001b6128dc565b6001816006016000828254612c75919061338c565b925050819055505050565b6040518060c00160405280600073ffffffffffffffffffffffffffffffffffffffff16815260200160008152602001600081526020016060815260200160008152602001600081525090565b828054612cd89061346c565b90600052602060002090601f016020900481019282612cfa5760008555612d41565b82601f10612d1357805160ff1916838001178555612d41565b82800160010185558215612d41579182015b82811115612d40578251825591602001919060010190612d25565b5b509050612d4e9190612dc8565b5090565b6040518060e00160405280600073ffffffffffffffffffffffffffffffffffffffff1681526020016060815260200160008152602001600081526020016000815260200160008152602001600081525090565b604051806060016040528060001515815260200160008152602001600081525090565b5b80821115612de1576000816000905550600101612dc9565b5090565b6000612df8612df384613334565b61330f565b905082815260208101848484011115612e1457612e136135d9565b5b612e1f84828561342a565b509392505050565b600081359050612e36816135fc565b92915050565b600082601f830112612e5157612e506135d4565b5b8135612e61848260208601612de5565b91505092915050565b600081359050612e7981613613565b92915050565b600060208284031215612e9557612e946135e3565b5b6000612ea384828501612e27565b91505092915050565b60008060408385031215612ec357612ec26135e3565b5b6000612ed185828601612e27565b9250506020612ee285828601612e6a565b9150509250929050565b60008060408385031215612f0357612f026135e3565b5b600083013567ffffffffffffffff811115612f2157612f206135de565b5b612f2d85828601612e3c565b9250506020612f3e85828601612e6a565b9150509250929050565b600060208284031215612f5e57612f5d6135e3565b5b6000612f6c84828501612e6a565b91505092915050565b60008060408385031215612f8c57612f8b6135e3565b5b6000612f9a85828601612e6a565b925050602083013567ffffffffffffffff811115612fbb57612fba6135de565b5b612fc785828601612e3c565b9150509250929050565b60008060408385031215612fe857612fe76135e3565b5b6000612ff685828601612e6a565b925050602061300785828601612e6a565b9150509250929050565b61301a816133e2565b82525050565b613029816133e2565b82525050565b613038816133f4565b82525050565b613047816133f4565b82525050565b600061305882613365565b613062818561337b565b9350613072818560208601613439565b61307b816135e8565b840191505092915050565b6000613093600083613370565b915061309e826135f9565b600082019050919050565b600060c0830160008301516130c16000860182613011565b5060208301516130d46020860182613210565b5060408301516130e76040860182613210565b50606083015184820360608601526130ff828261304d565b91505060808301516131146080860182613210565b5060a083015161312760a0860182613210565b508091505092915050565b606082016000820151613148600085018261302f565b50602082015161315b6020850182613210565b50604082015161316e6040850182613210565b50505050565b600060e08301600083015161318c6000860182613011565b50602083015184820360208601526131a4828261304d565b91505060408301516131b96040860182613210565b5060608301516131cc6060860182613210565b5060808301516131df6080860182613210565b5060a08301516131f260a0860182613210565b5060c083015161320560c0860182613210565b508091505092915050565b61321981613420565b82525050565b61322881613420565b82525050565b600061323982613086565b9150819050919050565b60006060820190506132586000830186613020565b6132656020830185613020565b613272604083018461321f565b949350505050565b600060208201905061328f600083018461303e565b92915050565b600060208201905081810360008301526132af81846130a9565b905092915050565b60006060820190506132cc6000830184613132565b92915050565b600060208201905081810360008301526132ec8184613174565b905092915050565b6000602082019050613309600083018461321f565b92915050565b600061331961332a565b9050613325828261349e565b919050565b6000604051905090565b600067ffffffffffffffff82111561334f5761334e6135a5565b5b613358826135e8565b9050602081019050919050565b600081519050919050565b600081905092915050565b600082825260208201905092915050565b600061339782613420565b91506133a283613420565b9250827fffffffffffffffffffffffffffffffffffffffffffffffffffffffffffffffff038211156133d7576133d6613518565b5b828201905092915050565b60006133ed82613400565b9050919050565b60008115159050919050565b600073ffffffffffffffffffffffffffffffffffffffff82169050919050565b6000819050919050565b82818337600083830152505050565b60005b8381101561345757808201518184015260208101905061343c565b83811115613466576000848401525b50505050565b6000600282049050600182168061348457607f821691505b6020821081141561349857613497613547565b5b50919050565b6134a7826135e8565b810181811067ffffffffffffffff821117156134c6576134c56135a5565b5b80604052505050565b60006134da82613420565b91507fffffffffffffffffffffffffffffffffffffffffffffffffffffffffffffffff82141561350d5761350c613518565b5b600182019050919050565b7f4e487b7100000000000000000000000000000000000000000000000000000000600052601160045260246000fd5b7f4e487b7100000000000000000000000000000000000000000000000000000000600052602260045260246000fd5b7f4e487b7100000000000000000000000000000000000000000000000000000000600052603260045260246000fd5b7f4e487b7100000000000000000000000000000000000000000000000000000000600052604160045260246000fd5b600080fd5b600080fd5b600080fd5b600080fd5b6000601f19601f8301169050919050565b50565b613605816133e2565b811461361057600080fd5b50565b61361c81613420565b811461362757600080fd5b5056fea2646970667358221220f7607a757340e7b4ed786754149e8ba86d98c307309280cc09f4936bc62779fb64736f6c63430008070033",
  "linkReferences": {},
  "deployedLinkReferences": {}
}