{
  "_format": "hh-sol-artifact-1",
  "contractName": "PostChainMarket",
  "sourceName": "contracts/PostChainMarket.sol",
  "abi": [
    {
      "inputs": [
        {
          "internalType": "address",
          "name": "nftAddress",
          "type": "address"
        },
        {
          "internalType": "uint256",
          "name": "postId",
          "type": "uint256"
        }
      ],
      "name": "PostChainMarket__AlreadyListed",
      "type": "error"
    },
    {
      "inputs": [],
      "name": "PostChainMarket__NoProceeds",
      "type": "error"
    },
    {
      "inputs": [],
      "name": "PostChainMarket__NoRoyalties",
      "type": "error"
    },
    {
      "inputs": [],
      "name": "PostChainMarket__NotApprovedForMarketPlace",
      "type": "error"
    },
    {
      "inputs": [
        {
          "internalType": "address",
          "name": "nftAddress",
          "type": "address"
        },
        {
          "internalType": "uint256",
          "name": "postId",
          "type": "uint256"
        }
      ],
      "name": "PostChainMarket__NotListed",
      "type": "error"
    },
    {
      "inputs": [],
      "name": "PostChainMarket__NotOwner",
      "type": "error"
    },
    {
      "inputs": [],
      "name": "PostChainMarket__PriceMustBeAboveZero",
      "type": "error"
    },
    {
      "inputs": [
        {
          "internalType": "address",
          "name": "nftAddress",
          "type": "address"
        },
        {
          "internalType": "uint256",
          "name": "postId",
          "type": "uint256"
        },
        {
          "internalType": "uint256",
          "name": "price",
          "type": "uint256"
        }
      ],
      "name": "PostChainMarket__PriceNotMet",
      "type": "error"
    },
    {
      "inputs": [],
      "name": "PostChainMarket__TransferFailed",
      "type": "error"
    },
    {
      "anonymous": false,
      "inputs": [
        {
          "indexed": true,
          "internalType": "address",
          "name": "buyer",
          "type": "address"
        },
        {
          "indexed": true,
          "internalType": "address",
          "name": "nftAddress",
          "type": "address"
        },
        {
          "indexed": true,
          "internalType": "uint256",
          "name": "postId",
          "type": "uint256"
        },
        {
          "indexed": false,
          "internalType": "uint256",
          "name": "price",
          "type": "uint256"
        }
      ],
      "name": "ItemBought",
      "type": "event"
    },
    {
      "anonymous": false,
      "inputs": [
        {
          "indexed": true,
          "internalType": "address",
          "name": "seller",
          "type": "address"
        },
        {
          "indexed": true,
          "internalType": "address",
          "name": "nftAddress",
          "type": "address"
        },
        {
          "indexed": false,
          "internalType": "uint256",
          "name": "postId",
          "type": "uint256"
        }
      ],
      "name": "ItemCanceled",
      "type": "event"
    },
    {
      "anonymous": false,
      "inputs": [
        {
          "indexed": true,
          "internalType": "address",
          "name": "seller",
          "type": "address"
        },
        {
          "indexed": true,
          "internalType": "address",
          "name": "nftAddress",
          "type": "address"
        },
        {
          "indexed": true,
          "internalType": "uint256",
          "name": "postId",
          "type": "uint256"
        },
        {
          "indexed": false,
          "internalType": "uint256",
          "name": "price",
          "type": "uint256"
        }
      ],
      "name": "ItemListed",
      "type": "event"
    },
    {
      "inputs": [
        {
          "internalType": "address",
          "name": "nftAddress",
          "type": "address"
        },
        {
          "internalType": "uint256",
          "name": "postId",
          "type": "uint256"
        }
      ],
      "name": "buyItem",
      "outputs": [],
      "stateMutability": "payable",
      "type": "function"
    },
    {
      "inputs": [
        {
          "internalType": "address",
          "name": "nftAddress",
          "type": "address"
        },
        {
          "internalType": "uint256",
          "name": "postId",
          "type": "uint256"
        }
      ],
      "name": "cancelItem",
      "outputs": [],
      "stateMutability": "nonpayable",
      "type": "function"
    },
    {
      "inputs": [
        {
          "internalType": "address",
          "name": "nftAddress",
          "type": "address"
        },
        {
          "internalType": "uint256",
          "name": "postId",
          "type": "uint256"
        }
      ],
      "name": "getListing",
      "outputs": [
        {
          "components": [
            {
              "internalType": "uint256",
              "name": "price",
              "type": "uint256"
            },
            {
              "internalType": "address",
              "name": "seller",
              "type": "address"
            }
          ],
          "internalType": "struct PostChainMarket.Listing",
          "name": "",
          "type": "tuple"
        }
      ],
      "stateMutability": "view",
      "type": "function"
    },
    {
      "inputs": [
        {
          "internalType": "address",
          "name": "seller",
          "type": "address"
        }
      ],
      "name": "getProceeds",
      "outputs": [
        {
          "internalType": "uint256",
          "name": "",
          "type": "uint256"
        }
      ],
      "stateMutability": "view",
      "type": "function"
    },
    {
      "inputs": [
        {
          "internalType": "address",
          "name": "nftCreator",
          "type": "address"
        }
      ],
      "name": "getRoyalties",
      "outputs": [
        {
          "internalType": "uint256",
          "name": "",
          "type": "uint256"
        }
      ],
      "stateMutability": "view",
      "type": "function"
    },
    {
      "inputs": [
        {
          "internalType": "address",
          "name": "nftAddress",
          "type": "address"
        },
        {
          "internalType": "uint256",
          "name": "postId",
          "type": "uint256"
        },
        {
          "internalType": "uint256",
          "name": "price",
          "type": "uint256"
        }
      ],
      "name": "listItem",
      "outputs": [],
      "stateMutability": "nonpayable",
      "type": "function"
    },
    {
      "inputs": [
        {
          "internalType": "address",
          "name": "nftAddress",
          "type": "address"
        },
        {
          "internalType": "uint256",
          "name": "postId",
          "type": "uint256"
        },
        {
          "internalType": "uint256",
          "name": "newPrice",
          "type": "uint256"
        }
      ],
      "name": "updateListing",
      "outputs": [],
      "stateMutability": "nonpayable",
      "type": "function"
    },
    {
      "inputs": [],
      "name": "withdrawProceeds",
      "outputs": [],
      "stateMutability": "nonpayable",
      "type": "function"
    },
    {
      "inputs": [],
      "name": "withdrawRoyalties",
      "outputs": [],
      "stateMutability": "nonpayable",
      "type": "function"
    }
  ],
  "bytecode": "0x608060405234801561001057600080fd5b506001600081905550613cd3806100286000396000f3fe6080604052600436106100865760003560e01c806389bfd38f1161005957806389bfd38f146101595780638f6d40d2146101825780639038e693146101ab5780639f37092a146101c2578063f772adf1146101de57610086565b806314556a561461008b57806321c34fcb146100c857806330cfeda9146100df57806388700d1c1461011c575b600080fd5b34801561009757600080fd5b506100b260048036038101906100ad91906137ce565b610207565b6040516100bf9190613abd565b60405180910390f35b3480156100d457600080fd5b506100dd6102d4565b005b3480156100eb57600080fd5b50610106600480360381019061010191906137ce565b61072a565b6040516101139190613abd565b60405180910390f35b34801561012857600080fd5b50610143600480360381019061013e9190613828565b6107f7565b6040516101509190613aa2565b60405180910390f35b34801561016557600080fd5b50610180600480360381019061017b91906138a8565b610946565b005b34801561018e57600080fd5b506101a960048036038101906101a49190613828565b61141a565b005b3480156101b757600080fd5b506101c0611b33565b005b6101dc60048036038101906101d79190613828565b611f89565b005b3480156101ea57600080fd5b50610205600480360381019061020091906138a8565b612792565b005b60006102357f5a3a1fadb0d3630a281f39c3da841a1b17b00ce4fe03516260300843635630df60001b612eaf565b6102617f8d5bee2f03c32373a9eb61fe790d6bdbbe3bb14452593040319987c8e8cd25a960001b612eaf565b61028d7f3ba5faacba96d77f9ff1286df790df80b07ee0ea42fecd9f9212b8471f4ebfa460001b612eaf565b600360008373ffffffffffffffffffffffffffffffffffffffff1673ffffffffffffffffffffffffffffffffffffffff168152602001908152602001600020549050919050565b6103007f1487b8d36bdc1b17ce7d8d9ae2e5fd6f4cdd7a1afded241518e467ddbb3a883760001b612eaf565b61032c7fa68bac233fbd139aeb7ca0323a482fa982f67c37ea0cfadcdf9d04b79f4665b160001b612eaf565b6103587f8a747815ddea1ccd8efdad3482e9d660547dcacad0b5d5a4814f65a381ddfcb060001b612eaf565b6000600360003373ffffffffffffffffffffffffffffffffffffffff1673ffffffffffffffffffffffffffffffffffffffff1681526020019081526020016000205490506103c87fb98c0b35dbd9525cf8e41034098900e7fc31db7ed877f54bd4458982ff76fd0e60001b612eaf565b6103f47f958850b7a9df544a2acdf912766fe61d4d696ca92df721ccf94ccd4e63c247a360001b612eaf565b60008111610486576104287f7187d5899d0dbec5f21300c14cc9fed4f7891d9995ea9829b60cbca8fad6b03560001b612eaf565b6104547f4a58a2b92b97d3602bea705c40318be3488df4b8f656f19a962f177e9d0804bf60001b612eaf565b6040517f2f46395e00000000000000000000000000000000000000000000000000000000815260040160405180910390fd5b6104b27fad258ba10e336f52abfb8bf493f7be916e70a85316f99ad6cff2731e463b163060001b612eaf565b6104de7fc56000d2bc76c10ba22eafd8d6dbd71a379acd5d0bd0d2058cdad0ebed9b9fc660001b612eaf565b61050a7f73f1883f9b9bd206afb24f97786828d6f7e6024c3ba3fdeaa8fd8764c686700c60001b612eaf565b6000600360003373ffffffffffffffffffffffffffffffffffffffff1673ffffffffffffffffffffffffffffffffffffffff1681526020019081526020016000208190555061057b7f03be4141195a263aba823b001b8a42bf3a88eca684a4380f212c03614b9f2f7f60001b612eaf565b6105a77f95fc9fd4b842aef2acd0489b92e686a1e0f72514f626a27a60cc39eb3f307a8f60001b612eaf565b60003373ffffffffffffffffffffffffffffffffffffffff16826040516105cd906139bb565b60006040518083038185875af1925050503d806000811461060a576040519150601f19603f3d011682016040523d82523d6000602084013e61060f565b606091505b5050905061063f7ffccfe56a37bb4fb9149bedaf432eb3afed5e70c299c0429f4770f9098434c2cc60001b612eaf565b61066b7fdec26a814e1511de1831a6bfb96f2175ccd1ffc21b1edd8be1c48b2e7e78015060001b612eaf565b806106fa5761069c7f39e2f885241cec83f561f4166e8ea0008a5f8a01b1dbfc64221f972063154e0060001b612eaf565b6106c87f43dc75bfe4114a7478bd9cffe733b0fbed23bd0f894b7cdb0d2cb31e1eeaf91c60001b612eaf565b6040517faf0a305d00000000000000000000000000000000000000000000000000000000815260040160405180910390fd5b6107267fe52eaf6c3743d8b038b49e62e8e1d1a4480c15e8df181b5bc3ce3fba504f43bd60001b612eaf565b5050565b60006107587f19801a36f047ff8045313220af5d5152f048b8acb576cada748527033ef4a5d660001b612eaf565b6107847f674dfc7ec3fd3ffa231167c42056971fcd540f381b17a4883d0f82579fbd2a3160001b612eaf565b6107b07fb2f54d78169cb2b3a7083b21abfeebdb6051786f5da077e7d537dafc67ebc6f360001b612eaf565b600260008373ffffffffffffffffffffffffffffffffffffffff1673ffffffffffffffffffffffffffffffffffffffff168152602001908152602001600020549050919050565b6107ff61374a565b61082b7f04947eb05bd27515a7a258b053efa680018a6699e06709f8da0451eb5d9a49ef60001b612eaf565b6108577f1c000d50f8c489c14641b34072eb3626a678d4a39a00c017400f61e31ee4c1d260001b612eaf565b6108837f843bb5c73185ae22f071505819bc71f7a8177b68af781b1d8598c41a226c198d60001b612eaf565b600160008473ffffffffffffffffffffffffffffffffffffffff1673ffffffffffffffffffffffffffffffffffffffff1681526020019081526020016000206000838152602001908152602001600020604051806040016040529081600082015481526020016001820160009054906101000a900473ffffffffffffffffffffffffffffffffffffffff1673ffffffffffffffffffffffffffffffffffffffff1673ffffffffffffffffffffffffffffffffffffffff1681525050905092915050565b8282336109757fa309a2392beaa4fdbfa922db367be0a3dde4affaeafd526fd5818fd0b019fbd260001b612eaf565b6109a17fe57f2581cfcfb823dc28f544beb56f463b4d33e33b23a342dc5f1aad169b59be60001b612eaf565b6109cd7f866cb9bfb3aa7cdd627b0c9dbf5460fa0f79bf908598589f98821ef2fdd7b30b60001b612eaf565b6000600160008573ffffffffffffffffffffffffffffffffffffffff1673ffffffffffffffffffffffffffffffffffffffff1681526020019081526020016000206000848152602001908152602001600020604051806040016040529081600082015481526020016001820160009054906101000a900473ffffffffffffffffffffffffffffffffffffffff1673ffffffffffffffffffffffffffffffffffffffff1673ffffffffffffffffffffffffffffffffffffffff16815250509050610ab87f6af862306bf055c37fb75848f648872a252494185c804bea5143d0c99824d98160001b612eaf565b610ae47fdc4b08848abcc6e8ad7408c1b6844ad8a3d5a8b55c565a951455a5d9572de47460001b612eaf565b600081600001511115610b8857610b1d7fe75eeef0a5e26b01ce79b09fbc9827c006cf966af5c27f04d4e07dc4069f49a660001b612eaf565b610b497f9eb26cfebd3f952c13a4ab61411b6ea4c48ea0d847afa30d149e4364378907a460001b612eaf565b83836040517f0139dccd000000000000000000000000000000000000000000000000000000008152600401610b7f929190613a07565b60405180910390fd5b610bb47f70d6aa2914ffce27f5da54fbdedc1614ffc38ae71c560cceefd9e11a7c24c1cb60001b612eaf565b610be07f8543e1be72a11ec413c936590264f2c025b9a72989cac6155c8e3f61c0cedef760001b612eaf565b868633610c0f7f57527ea022b3b2c247eba41c6a003cc8e7ebd3fe5116adae7e56311f86312a1060001b612eaf565b610c3b7fc86228bffe195c22f33e77be1f9bee2e117f263556a62ccdfb6318c322c22f2260001b612eaf565b610c677f0eaf39444b6a8003000080e6456638d89f845ac62da9d48849c7c2fb8b2b9de160001b612eaf565b6000839050610c987f4f1c35f4eb47085cf5e00029689ca896c67366391560b906e1de9b0df8e2eb6a60001b612eaf565b610cc47f7632b39bab606fbfa04070ad2a2eb1dc5f5450665b8898decf3334340a17c71360001b612eaf565b60008173ffffffffffffffffffffffffffffffffffffffff16636352211e856040518263ffffffff1660e01b8152600401610cff9190613abd565b60206040518083038186803b158015610d1757600080fd5b505afa158015610d2b573d6000803e3d6000fd5b505050506040513d601f19601f82011682018060405250810190610d4f91906137fb565b9050610d7d7f2dff7896784f228bc0c85ad6a4ea6c44a62c384fa85fc2f2234006a2cf39f81760001b612eaf565b610da97f55be4bd898068e16c3803dfebceeb9bc9449ef160b984ef6ffcf1820a6b27b6460001b612eaf565b8073ffffffffffffffffffffffffffffffffffffffff168373ffffffffffffffffffffffffffffffffffffffff1614610e6657610e087f93e258c569df4331b737b7c8915d99e57a235d96597dd30f708fa98aa63d31dd60001b612eaf565b610e347f840331257f98834c0dd38a1c00c9986e46d13737dcf8b16b0a69ed725217244e60001b612eaf565b6040517f588e0f8b00000000000000000000000000000000000000000000000000000000815260040160405180910390fd5b610e927f11ad8cf5e4862ea67c3207f004584b8ecc66f4a8abb38527a8e2fc2011d34ef960001b612eaf565b610ebe7fea0911c6048d103b59927c906ab5d3da91db7ed2f5ad4facbd0a0731c1b2247160001b612eaf565b610eea7f41ddff4b096f4eabf039351de2ccd6310d35e90cb105dd9ddd2b71c7abcac9bb60001b612eaf565b610f167fdaafb4a20f45308b8e16aba67af0da020b224dc5dfce1343fe9917d09d1127d960001b612eaf565b610f427f652244d858717e295d160e808432acd77ac1b4b9a1c38804a950743372ce0f1060001b612eaf565b60008a11610fd457610f767f8ec8655a27a454c0a1de18018e2e5e1cbd12cd4365cd66bba85db0704e82e3a960001b612eaf565b610fa27feac877502805e3d83e834060c7dd6f607446c8580290f4808b565e9a8f30848060001b612eaf565b6040517fb686f76e00000000000000000000000000000000000000000000000000000000815260040160405180910390fd5b6110007fedd2d8be36b4c4eaba41001c08d689901246ecb07af2e3bba675873d4d8d281e60001b612eaf565b61102c7ff131187fa7254a1c1c7d28907524e3374b442b6a04f4c4715db1d91fcfbfc92e60001b612eaf565b6110587f0a4ca88a7cb4314321f8db3eeb834e7428a2d932d49089fa763329983b0b2be160001b612eaf565b60008c90506110897f361220b2515a7af5da7d9fecc9c616977ec052ab5f98b20b4c665bf6ba64c2a960001b612eaf565b6110b57f3901d6db7bbb2e04b13cdc6f22bd755528b9e695dd5122f0b509935d93b9fe8860001b612eaf565b3073ffffffffffffffffffffffffffffffffffffffff168173ffffffffffffffffffffffffffffffffffffffff1663081812fc8e6040518263ffffffff1660e01b81526004016111059190613abd565b60206040518083038186803b15801561111d57600080fd5b505afa158015611131573d6000803e3d6000fd5b505050506040513d601f19601f8201168201806040525081019061115591906137fb565b73ffffffffffffffffffffffffffffffffffffffff16146111fa5761119c7f51eb6f627c67aaa4f7feff171b41ce3614399d5dde5512b30f9a8f7bcf35b9d960001b612eaf565b6111c87f24acd4f8fdd3e8f57371faf5a9756d3c1b6d3e1d037108e20d823ed0cdecd9d260001b612eaf565b6040517f42b135fc00000000000000000000000000000000000000000000000000000000815260040160405180910390fd5b6112267f5765195af948a2ae07fb119887f389e23176ef78c17a4e4ea797cbbeccff25f760001b612eaf565b6112527f6f4526eb2cfbc209d7bb451d3f06ffbd6339e68fbcf16e9a3703602996b7bbd560001b612eaf565b61127e7fd05315d90cff5ff00192fc5eb36aee48fd6ce575f9706461029e3d1b55c1637f60001b612eaf565b60405180604001604052808c81526020013373ffffffffffffffffffffffffffffffffffffffff16815250600160008f73ffffffffffffffffffffffffffffffffffffffff1673ffffffffffffffffffffffffffffffffffffffff16815260200190815260200160002060008e81526020019081526020016000206000820151816000015560208201518160010160006101000a81548173ffffffffffffffffffffffffffffffffffffffff021916908373ffffffffffffffffffffffffffffffffffffffff1602179055509050506113797f0bd01adcb2fb101cd835517b28529b07556d9f0bcc05a2aee1fbefc052fe2a5460001b612eaf565b6113a57fc500a0068af1953606fdee1abca0e5ac6cacc5869f38bec73f6e797379a5016860001b612eaf565b8b8d73ffffffffffffffffffffffffffffffffffffffff163373ffffffffffffffffffffffffffffffffffffffff167fd547e933094f12a9159076970143ebe73234e64480317844b0dcb36117116de48e6040516114039190613abd565b60405180910390a450505050505050505050505050565b8181336114497f57527ea022b3b2c247eba41c6a003cc8e7ebd3fe5116adae7e56311f86312a1060001b612eaf565b6114757fc86228bffe195c22f33e77be1f9bee2e117f263556a62ccdfb6318c322c22f2260001b612eaf565b6114a17f0eaf39444b6a8003000080e6456638d89f845ac62da9d48849c7c2fb8b2b9de160001b612eaf565b60008390506114d27f4f1c35f4eb47085cf5e00029689ca896c67366391560b906e1de9b0df8e2eb6a60001b612eaf565b6114fe7f7632b39bab606fbfa04070ad2a2eb1dc5f5450665b8898decf3334340a17c71360001b612eaf565b60008173ffffffffffffffffffffffffffffffffffffffff16636352211e856040518263ffffffff1660e01b81526004016115399190613abd565b60206040518083038186803b15801561155157600080fd5b505afa158015611565573d6000803e3d6000fd5b505050506040513d601f19601f8201168201806040525081019061158991906137fb565b90506115b77f2dff7896784f228bc0c85ad6a4ea6c44a62c384fa85fc2f2234006a2cf39f81760001b612eaf565b6115e37f55be4bd898068e16c3803dfebceeb9bc9449ef160b984ef6ffcf1820a6b27b6460001b612eaf565b8073ffffffffffffffffffffffffffffffffffffffff168373ffffffffffffffffffffffffffffffffffffffff16146116a0576116427f93e258c569df4331b737b7c8915d99e57a235d96597dd30f708fa98aa63d31dd60001b612eaf565b61166e7f840331257f98834c0dd38a1c00c9986e46d13737dcf8b16b0a69ed725217244e60001b612eaf565b6040517f588e0f8b00000000000000000000000000000000000000000000000000000000815260040160405180910390fd5b6116cc7f11ad8cf5e4862ea67c3207f004584b8ecc66f4a8abb38527a8e2fc2011d34ef960001b612eaf565b6116f87fea0911c6048d103b59927c906ab5d3da91db7ed2f5ad4facbd0a0731c1b2247160001b612eaf565b86866117267f56098cf3376d0834d59e2dcbff4442fe313debc6a2912296f3a10065efab33fc60001b612eaf565b6117527f61831e734888a610899d5d4a0bd7872c771f6b21bc405f06b22a5ddabd1fb9af60001b612eaf565b61177e7fd35bcafd6ab7d9fbd664a7d5aa476c5e95750e37e19d97f6534f3e7383e0281960001b612eaf565b6000600160008473ffffffffffffffffffffffffffffffffffffffff1673ffffffffffffffffffffffffffffffffffffffff1681526020019081526020016000206000838152602001908152602001600020604051806040016040529081600082015481526020016001820160009054906101000a900473ffffffffffffffffffffffffffffffffffffffff1673ffffffffffffffffffffffffffffffffffffffff1673ffffffffffffffffffffffffffffffffffffffff168152505090506118697f9b18a0c9658aebe7060fd505724c1bfc7773cdcc058877dedc02bb3aeac3264460001b612eaf565b6118957f496e82253f53d783cc4615392f4ae0986e5b88a04053d596c9604f920aa5025760001b612eaf565b6000816000015111611938576118cd7f1cc118d79420ba6d60fb9b6d6a411cc1677b4030089e9ccbee3a011b8a865ef160001b612eaf565b6118f97fbd044148b5af50131c6cfb9be00c3737291b058918c012c89a4448fd5b3a471a60001b612eaf565b82826040517f7a01a34400000000000000000000000000000000000000000000000000000000815260040161192f929190613a07565b60405180910390fd5b6119647f0420a7a4a5d0faac50ef7858626de890d2e0e18dab8bbbb8da795af8b3a5113860001b612eaf565b6119907f8e37f4bf1d028897855b264851944c80cf93fceb1c1c2c3245a77fdcaaab6af460001b612eaf565b6119bc7f4649a75b489e7cbb33469b8efe7d4a56884800fb58fe8a34e8664b44c8d9e50860001b612eaf565b6119e87f228715b4ffcfc750b26e75ae2c13e290e3f12e3775cebda33baba4a560ab1aa560001b612eaf565b600160008b73ffffffffffffffffffffffffffffffffffffffff1673ffffffffffffffffffffffffffffffffffffffff16815260200190815260200160002060008a81526020019081526020016000206000808201600090556001820160006101000a81549073ffffffffffffffffffffffffffffffffffffffff02191690555050611a967f4d64a55f521490479e619334753ffb8f264033590ced8504b861094a961c4f7a60001b612eaf565b611ac27f699b29e5e3cd916e8512acc9f1497764c957ab2dfb907ce82e7d5ec06be7297a60001b612eaf565b8973ffffffffffffffffffffffffffffffffffffffff163373ffffffffffffffffffffffffffffffffffffffff167f9ba1a3cb55ce8d63d072a886f94d2a744f50cddf82128e897d0661f5ec6231588b604051611b1f9190613abd565b60405180910390a350505050505050505050565b611b5f7fc43496b3a0bfb119c36bbf10e674057c8d7ff2b30b676a57c92a7fd8924a0f6260001b612eaf565b611b8b7ff936163f2c4564e91a3dcf06e1405429dc52bc5fdf72d82b2168d2fae64b1fc360001b612eaf565b611bb77f5f10a52079de7006974eb411083b5d2bb4f6a4de5d78bf978cf85202e5081cdb60001b612eaf565b6000600260003373ffffffffffffffffffffffffffffffffffffffff1673ffffffffffffffffffffffffffffffffffffffff168152602001908152602001600020549050611c277fc3861a75b344fa7347e9e974f86f7dd5409247299f8745f4aa8311385581f36060001b612eaf565b611c537f44c93ab6ca3d6ada41296a952dfdc49885c09a444ff1f941598d5705801215e360001b612eaf565b60008111611ce557611c877f0b594d9680aa06b0c8fd56cb596bf60c12907365945ed7cfde9a65c6e65afe4a60001b612eaf565b611cb37f275399ff1a293e3d52214188ad56715750dd3cf94aa5a52805183ecf6784107660001b612eaf565b6040517f70949a1c00000000000000000000000000000000000000000000000000000000815260040160405180910390fd5b611d117f74a729bd340d295cc99085de5c4fa1ccb6babe11ab458373880453b04e42a47560001b612eaf565b611d3d7fad0a9ec4548e15e0844350d454ea481d98682e3fd907dbafc65152c39f91b8cb60001b612eaf565b611d697f91197502ea2c1edbcbe8bcabf62b073b9908c574cce223a77c30019d652d9fd560001b612eaf565b6000600260003373ffffffffffffffffffffffffffffffffffffffff1673ffffffffffffffffffffffffffffffffffffffff16815260200190815260200160002081905550611dda7fc05c869690130d002f52576b38e30234a41758c72e684325d63110cbcb344ba060001b612eaf565b611e067f6ff6c0fa587862f8bfc864da826368c5f7ad921d2a29a5cbbdd5c823a6185d3060001b612eaf565b60003373ffffffffffffffffffffffffffffffffffffffff1682604051611e2c906139bb565b60006040518083038185875af1925050503d8060008114611e69576040519150601f19603f3d011682016040523d82523d6000602084013e611e6e565b606091505b50509050611e9e7fd11b27ec7891b7d403a8177d0a5e185cb24b72d4c7aabbdd757424bf881fe89360001b612eaf565b611eca7fe7e326e91f1d89f318e9011572203795a59e02f65633fcf4dc167e556a89b8dc60001b612eaf565b80611f5957611efb7fa611f5c18b8dd852b2c47c76e46207df647df8a301da5d69860d7492c67a309660001b612eaf565b611f277f39fcbe3ebbdb5c0be2c142cb5799bcdb89e5d075f24ccb274b6ffe3ca642edc260001b612eaf565b6040517faf0a305d00000000000000000000000000000000000000000000000000000000815260040160405180910390fd5b611f857f6d08427adb936f4be361fab3c3588ecdc163f939614378f4722253311f91572560001b612eaf565b5050565b60026000541415611fcf576040517f08c379a0000000000000000000000000000000000000000000000000000000008152600401611fc690613a82565b60405180910390fd5b600260008190555081816120057f56098cf3376d0834d59e2dcbff4442fe313debc6a2912296f3a10065efab33fc60001b612eaf565b6120317f61831e734888a610899d5d4a0bd7872c771f6b21bc405f06b22a5ddabd1fb9af60001b612eaf565b61205d7fd35bcafd6ab7d9fbd664a7d5aa476c5e95750e37e19d97f6534f3e7383e0281960001b612eaf565b6000600160008473ffffffffffffffffffffffffffffffffffffffff1673ffffffffffffffffffffffffffffffffffffffff1681526020019081526020016000206000838152602001908152602001600020604051806040016040529081600082015481526020016001820160009054906101000a900473ffffffffffffffffffffffffffffffffffffffff1673ffffffffffffffffffffffffffffffffffffffff1673ffffffffffffffffffffffffffffffffffffffff168152505090506121487f9b18a0c9658aebe7060fd505724c1bfc7773cdcc058877dedc02bb3aeac3264460001b612eaf565b6121747f496e82253f53d783cc4615392f4ae0986e5b88a04053d596c9604f920aa5025760001b612eaf565b6000816000015111612217576121ac7f1cc118d79420ba6d60fb9b6d6a411cc1677b4030089e9ccbee3a011b8a865ef160001b612eaf565b6121d87fbd044148b5af50131c6cfb9be00c3737291b058918c012c89a4448fd5b3a471a60001b612eaf565b82826040517f7a01a34400000000000000000000000000000000000000000000000000000000815260040161220e929190613a07565b60405180910390fd5b6122437f0420a7a4a5d0faac50ef7858626de890d2e0e18dab8bbbb8da795af8b3a5113860001b612eaf565b61226f7f8e37f4bf1d028897855b264851944c80cf93fceb1c1c2c3245a77fdcaaab6af460001b612eaf565b61229b7f41dbc5e9f65fa951fccb4cb0c2de5463ee6bf0a3f82b150eb8a3dd80f65bce5460001b612eaf565b6122c77fa3e9d301ac77d2961080403c3683d44cadf8be730fce74cb6fed500c98e1bba460001b612eaf565b6122f37f70f333f6d4d162041c1ac68ee0573e4c604b93613828e048addc52c343e2d39960001b612eaf565b6000600160008773ffffffffffffffffffffffffffffffffffffffff1673ffffffffffffffffffffffffffffffffffffffff1681526020019081526020016000206000868152602001908152602001600020604051806040016040529081600082015481526020016001820160009054906101000a900473ffffffffffffffffffffffffffffffffffffffff1673ffffffffffffffffffffffffffffffffffffffff1673ffffffffffffffffffffffffffffffffffffffff168152505090506123de7f0680df176d62af25a326d489e7440ca06b74cf5a7b0b53038d1d061c0ed77cef60001b612eaf565b61240a7f3b170ef69b7379f335349657be15024913f58ae79eb0b5579d733f651ed5548160001b612eaf565b80600001513410156124b3576124427f3c379ba11bba81d1002eff4cc4b7523f60fb801f9a75da00c26325bcf7ed72ad60001b612eaf565b61246e7fa80b67cc31c611de760555cf965bfee1810ebbbe3d58ba614410ef49af64a0bf60001b612eaf565b858582600001516040517f1d0655500000000000000000000000000000000000000000000000000000000081526004016124aa93929190613a30565b60405180910390fd5b6124df7fea4ceccfe43130306bcd73b3f32014f920f718e090db962d456421f1b7faefe760001b612eaf565b61250b7fb9873807c737feb769ee5fc612482c0c45030e576c4495f49e23b98bd293e18a60001b612eaf565b6125377f5c421b80683c78545ed3dd974a792534d33f2d33cb6f07fdd8aed80ca987b13860001b612eaf565b6125478686836020015134612eb2565b6125737f4c35da1b619abf1e0347210c811876ad6e7b31ba1a411add1c4327c792b10f2060001b612eaf565b600160008773ffffffffffffffffffffffffffffffffffffffff1673ffffffffffffffffffffffffffffffffffffffff16815260200190815260200160002060008681526020019081526020016000206000808201600090556001820160006101000a81549073ffffffffffffffffffffffffffffffffffffffff021916905550506126217fdfd2ed09514efdcf57e2a2c8e4801b3c5aac4f471393ce18a7c79ff60853736a60001b612eaf565b61264d7fef6f2409cf80585a3a6105e21e19d4bf8d7821893bb8dd7e2f51f1a7791d9ce160001b612eaf565b8573ffffffffffffffffffffffffffffffffffffffff166342842e0e826020015133886040518463ffffffff1660e01b815260040161268e939291906139d0565b600060405180830381600087803b1580156126a857600080fd5b505af11580156126bc573d6000803e3d6000fd5b505050506126ec7f3f21aa4f630519e2a6a48f713c06b989007d4dc4f886f624375f525cd875ed7f60001b612eaf565b6127187f4cea3f432e69472ee4710410d86a5c09e95d6ebf57dc32ce7a9d8adde325c38660001b612eaf565b848673ffffffffffffffffffffffffffffffffffffffff163373ffffffffffffffffffffffffffffffffffffffff167f263223b1dd81e51054a4e6f791d45a4a1ddb4aadcd93a2dfd892615c3fdac187846000015160405161277a9190613abd565b60405180910390a45050505060016000819055505050565b82826127c07f56098cf3376d0834d59e2dcbff4442fe313debc6a2912296f3a10065efab33fc60001b612eaf565b6127ec7f61831e734888a610899d5d4a0bd7872c771f6b21bc405f06b22a5ddabd1fb9af60001b612eaf565b6128187fd35bcafd6ab7d9fbd664a7d5aa476c5e95750e37e19d97f6534f3e7383e0281960001b612eaf565b6000600160008473ffffffffffffffffffffffffffffffffffffffff1673ffffffffffffffffffffffffffffffffffffffff1681526020019081526020016000206000838152602001908152602001600020604051806040016040529081600082015481526020016001820160009054906101000a900473ffffffffffffffffffffffffffffffffffffffff1673ffffffffffffffffffffffffffffffffffffffff1673ffffffffffffffffffffffffffffffffffffffff168152505090506129037f9b18a0c9658aebe7060fd505724c1bfc7773cdcc058877dedc02bb3aeac3264460001b612eaf565b61292f7f496e82253f53d783cc4615392f4ae0986e5b88a04053d596c9604f920aa5025760001b612eaf565b60008160000151116129d2576129677f1cc118d79420ba6d60fb9b6d6a411cc1677b4030089e9ccbee3a011b8a865ef160001b612eaf565b6129937fbd044148b5af50131c6cfb9be00c3737291b058918c012c89a4448fd5b3a471a60001b612eaf565b82826040517f7a01a3440000000000000000000000000000000000000000000000000000000081526004016129c9929190613a07565b60405180910390fd5b6129fe7f0420a7a4a5d0faac50ef7858626de890d2e0e18dab8bbbb8da795af8b3a5113860001b612eaf565b612a2a7f8e37f4bf1d028897855b264851944c80cf93fceb1c1c2c3245a77fdcaaab6af460001b612eaf565b858533612a597f57527ea022b3b2c247eba41c6a003cc8e7ebd3fe5116adae7e56311f86312a1060001b612eaf565b612a857fc86228bffe195c22f33e77be1f9bee2e117f263556a62ccdfb6318c322c22f2260001b612eaf565b612ab17f0eaf39444b6a8003000080e6456638d89f845ac62da9d48849c7c2fb8b2b9de160001b612eaf565b6000839050612ae27f4f1c35f4eb47085cf5e00029689ca896c67366391560b906e1de9b0df8e2eb6a60001b612eaf565b612b0e7f7632b39bab606fbfa04070ad2a2eb1dc5f5450665b8898decf3334340a17c71360001b612eaf565b60008173ffffffffffffffffffffffffffffffffffffffff16636352211e856040518263ffffffff1660e01b8152600401612b499190613abd565b60206040518083038186803b158015612b6157600080fd5b505afa158015612b75573d6000803e3d6000fd5b505050506040513d601f19601f82011682018060405250810190612b9991906137fb565b9050612bc77f2dff7896784f228bc0c85ad6a4ea6c44a62c384fa85fc2f2234006a2cf39f81760001b612eaf565b612bf37f55be4bd898068e16c3803dfebceeb9bc9449ef160b984ef6ffcf1820a6b27b6460001b612eaf565b8073ffffffffffffffffffffffffffffffffffffffff168373ffffffffffffffffffffffffffffffffffffffff1614612cb057612c527f93e258c569df4331b737b7c8915d99e57a235d96597dd30f708fa98aa63d31dd60001b612eaf565b612c7e7f840331257f98834c0dd38a1c00c9986e46d13737dcf8b16b0a69ed725217244e60001b612eaf565b6040517f588e0f8b00000000000000000000000000000000000000000000000000000000815260040160405180910390fd5b612cdc7f11ad8cf5e4862ea67c3207f004584b8ecc66f4a8abb38527a8e2fc2011d34ef960001b612eaf565b612d087fea0911c6048d103b59927c906ab5d3da91db7ed2f5ad4facbd0a0731c1b2247160001b612eaf565b612d347f09ce35333b2171d0f67e3c530b2661f07bbd06e4b30535c8afe15cd1b59fe84860001b612eaf565b612d607f80926110cba4ffb3b70485a7e7be9d86b850380f5e7c978e061a4dcf874e18a060001b612eaf565b612d8c7fed7d8a842c401314161a55576501986dea477a83bf27d057a759b3191f2418bd60001b612eaf565b88600160008d73ffffffffffffffffffffffffffffffffffffffff1673ffffffffffffffffffffffffffffffffffffffff16815260200190815260200160002060008c815260200190815260200160002060000181905550612e107f8becf0b9ee04f6df3a9997a524df785f7c10adbda6074d3fd3580a9f7cdfdedb60001b612eaf565b612e3c7f7dee40ee2b0ab784072f2637aa505534e4da0163f64af1fe740f457ea71bcff660001b612eaf565b898b73ffffffffffffffffffffffffffffffffffffffff163373ffffffffffffffffffffffffffffffffffffffff167fd547e933094f12a9159076970143ebe73234e64480317844b0dcb36117116de48c604051612e9a9190613abd565b60405180910390a45050505050505050505050565b50565b612ede7f1950b73310a58dcb9d074c9e1728c3c094f25e8f29689407eeb556300811fa7a60001b612eaf565b612f0a7f9b38392f23b7a0b4b332eebdba69eb4e71acf9e7a7e63a5da4ee3fc0906afe4260001b612eaf565b612f367f3a5f244ea0579bcea4871d651ddff406c72db8c2a84183649ad1e6ae6e057f6e60001b612eaf565b600080612f458686868661320e565b91509150612f757faf074b5955760d82bea66ec4088c46df280d31f70eab47b817af0f65741c9f6760001b612eaf565b612fa17f772fbcf6ab7ea5063740d5169d5ade6462e5ba451dfb56aa8a0228a6b8a5201b60001b612eaf565b60008184612faf9190613b73565b9050612fdd7f784b878d5fc17564f74116c343c7b4cbe4fa0ce2ba244db4fcb0e3e77ca37e1260001b612eaf565b6130097f0e9a21a025b711ffa46343e35a850e8b6690616ea8560d3c69a2b8f096d30c5260001b612eaf565b60008211801561304657508273ffffffffffffffffffffffffffffffffffffffff16600073ffffffffffffffffffffffffffffffffffffffff1614155b1561312a576130777f83c545e5c451b6e99964681d4db6155be49a52b64862e258e793aaccd58f3e3160001b612eaf565b6130a37f1a051fd9ac3d96906d813bada4679e70b5fe7f304619b37b8f0578aae3b0ffef60001b612eaf565b6130cf7f7aaac7acf96bc28085247dae100d38c9a545c4d028a81a55380c6ed4c20630a260001b612eaf565b81600360008573ffffffffffffffffffffffffffffffffffffffff1673ffffffffffffffffffffffffffffffffffffffff168152602001908152602001600020600082825461311e9190613b1d565b92505081905550613157565b6131567f6e80946077dbd6721b0d9c823d302a3be8e2cfe750f8efe9767b015e1d120d7d60001b612eaf565b5b6131837f9120f9052320d179e3bab0812309a9e514c4face3cd6c8ffa30db5ede00dae4960001b612eaf565b6131af7f4b72c1939e0a64359e24edc0f1766fc18bd31fa5a4dcddea2849cdf6ebe29acf60001b612eaf565b80600260008773ffffffffffffffffffffffffffffffffffffffff1673ffffffffffffffffffffffffffffffffffffffff16815260200190815260200160002060008282546131fe9190613b1d565b9250508190555050505050505050565b60008061323d7f8ed793d3255be2bbeb52e369337fea973f84287cdcd234c59eeec63c893dfe3f60001b612eaf565b6132697fa43fe51586d77555aa5620077993b1fd52c589772eac295b2349906c804cb5be60001b612eaf565b6132957fb6128450dcce3130c72fd49dd5d1ef919cc5f23f88f1063e59cc821f7430049060001b612eaf565b6132bf867f2a55205a00000000000000000000000000000000000000000000000000000000613619565b15613584576132f07f80b297ea24c2a30446b5c60fc2c2015a41bf228f9f7505df675b6f931d5d507260001b612eaf565b61331c7fbb1dc1ea79a2f8e49402afac3eb2714b69df5e0399695db9bbf3187feea46b1260001b612eaf565b6133487f64810b3d56c7c92956eba2202a7533e671d6286376509db39ed796c63335ac2560001b612eaf565b6000808773ffffffffffffffffffffffffffffffffffffffff16632a55205a88876040518363ffffffff1660e01b8152600401613386929190613ad8565b604080518083038186803b15801561339d57600080fd5b505afa1580156133b1573d6000803e3d6000fd5b505050506040513d601f19601f820116820180604052508101906133d59190613868565b915091506134057fad164f1c29a2be9100fb0833ebe686bdef433d7fcdc975a08b7e14013c04f1b460001b612eaf565b6134317f99de040d92b488b541cb9dc68ff70839baa928f8733af94a2eeec051579214ca60001b612eaf565b8573ffffffffffffffffffffffffffffffffffffffff168273ffffffffffffffffffffffffffffffffffffffff1614156134f2576134917f0c3e8725352976b6449370f9ff6564ca6a4f966146aa3565b02ca13549a1edc460001b612eaf565b6134bd7ff2591d8b45b38427faf4bbefe2c63c36dc691198e63c3199f04f3df9b26ba75460001b612eaf565b6134e97f67338bb8ea473498f28b5e9490112683755ebd08bf37a61b710ae515e5a3f9c860001b612eaf565b6000905061351f565b61351e7fffb197b413f738b21af62437c31afc3a4ed569d77737227c5a4222f9fd675d4e60001b612eaf565b5b61354b7f987760e0c26f5b52cd75c0fcf61b67255ffdb288a264bdf61ff431babe5d639a60001b612eaf565b6135777f367ac5452058e1942d624fd21c9169c3082a02c6a904a67dba335d83def7158460001b612eaf565b8181935093505050613610565b6135b07f609b06da7c32bbff2dc365eb154fa59f1228934748aa7d738986244da3fc9f4660001b612eaf565b6135dc7f1eb942c543b99f2f5ae3e67fd7e1e12468a43f9d5eda02a615bf62fe9e2c8a0960001b612eaf565b6136087fa2463fde719d49e31069a4cc09401d8066db1a0316b1d8fa9f25c39fc3606bab60001b612eaf565b600080915091505b94509492505050565b60006136248361363e565b80156136365750613635838361368b565b5b905092915050565b600061366a827f01ffc9a70000000000000000000000000000000000000000000000000000000061368b565b801561368457506136828263ffffffff60e01b61368b565b155b9050919050565b6000806301ffc9a760e01b836040516024016136a79190613a67565b604051602081830303815290604052907bffffffffffffffffffffffffffffffffffffffffffffffffffffffff19166020820180517bffffffffffffffffffffffffffffffffffffffffffffffffffffffff838183161783525050505090506000806000602060008551602087018a617530fa92503d91506000519050828015613732575060208210155b801561373e5750600081115b94505050505092915050565b604051806040016040528060008152602001600073ffffffffffffffffffffffffffffffffffffffff1681525090565b60008135905061378981613c6f565b92915050565b60008151905061379e81613c6f565b92915050565b6000813590506137b381613c86565b92915050565b6000815190506137c881613c86565b92915050565b6000602082840312156137e4576137e3613c3e565b5b60006137f28482850161377a565b91505092915050565b60006020828403121561381157613810613c3e565b5b600061381f8482850161378f565b91505092915050565b6000806040838503121561383f5761383e613c3e565b5b600061384d8582860161377a565b925050602061385e858286016137a4565b9150509250929050565b6000806040838503121561387f5761387e613c3e565b5b600061388d8582860161378f565b925050602061389e858286016137b9565b9150509250929050565b6000806000606084860312156138c1576138c0613c3e565b5b60006138cf8682870161377a565b93505060206138e0868287016137a4565b92505060406138f1868287016137a4565b9150509250925092565b61390481613ba7565b82525050565b61391381613ba7565b82525050565b61392281613bb9565b82525050565b6000613935600083613b01565b915061394082613c43565b600082019050919050565b6000613958601f83613b0c565b915061396382613c46565b602082019050919050565b604082016000820151613984600085018261399d565b50602082015161399760208501826138fb565b50505050565b6139a681613c05565b82525050565b6139b581613c05565b82525050565b60006139c682613928565b9150819050919050565b60006060820190506139e5600083018661390a565b6139f2602083018561390a565b6139ff60408301846139ac565b949350505050565b6000604082019050613a1c600083018561390a565b613a2960208301846139ac565b9392505050565b6000606082019050613a45600083018661390a565b613a5260208301856139ac565b613a5f60408301846139ac565b949350505050565b6000602082019050613a7c6000830184613919565b92915050565b60006020820190508181036000830152613a9b8161394b565b9050919050565b6000604082019050613ab7600083018461396e565b92915050565b6000602082019050613ad260008301846139ac565b92915050565b6000604082019050613aed60008301856139ac565b613afa60208301846139ac565b9392505050565b600081905092915050565b600082825260208201905092915050565b6000613b2882613c05565b9150613b3383613c05565b9250827fffffffffffffffffffffffffffffffffffffffffffffffffffffffffffffffff03821115613b6857613b67613c0f565b5b828201905092915050565b6000613b7e82613c05565b9150613b8983613c05565b925082821015613b9c57613b9b613c0f565b5b828203905092915050565b6000613bb282613be5565b9050919050565b60007fffffffff0000000000000000000000000000000000000000000000000000000082169050919050565b600073ffffffffffffffffffffffffffffffffffffffff82169050919050565b6000819050919050565b7f4e487b7100000000000000000000000000000000000000000000000000000000600052601160045260246000fd5b600080fd5b50565b7f5265656e7472616e637947756172643a207265656e7472616e742063616c6c00600082015250565b613c7881613ba7565b8114613c8357600080fd5b50565b613c8f81613c05565b8114613c9a57600080fd5b5056fea2646970667358221220e3862e07469442f036f6c6e6c8d72df39ac1567365e617bbd7d90b007f9ae6d964736f6c63430008070033",
  "linkReferences": {},
  "deployedLinkReferences": {}
}