{
  "_format": "hh-sol-artifact-1",
  "contractName": "PostChainMarket",
  "sourceName": "contracts/PostChainMarket.sol",
  "abi": [
    {
      "inputs": [
        {
          "internalType": "address",
          "name": "nftAddress",
          "type": "address"
        },
        {
          "internalType": "uint256",
          "name": "postId",
          "type": "uint256"
        }
      ],
      "name": "PostChainMarket__AlreadyListed",
      "type": "error"
    },
    {
      "inputs": [],
      "name": "PostChainMarket__NoProceeds",
      "type": "error"
    },
    {
      "inputs": [],
      "name": "PostChainMarket__NoRoyalties",
      "type": "error"
    },
    {
      "inputs": [],
      "name": "PostChainMarket__NotApprovedForMarketPlace",
      "type": "error"
    },
    {
      "inputs": [
        {
          "internalType": "address",
          "name": "nftAddress",
          "type": "address"
        },
        {
          "internalType": "uint256",
          "name": "postId",
          "type": "uint256"
        }
      ],
      "name": "PostChainMarket__NotListed",
      "type": "error"
    },
    {
      "inputs": [],
      "name": "PostChainMarket__NotOwner",
      "type": "error"
    },
    {
      "inputs": [],
      "name": "PostChainMarket__PriceMustBeAboveZero",
      "type": "error"
    },
    {
      "inputs": [
        {
          "internalType": "address",
          "name": "nftAddress",
          "type": "address"
        },
        {
          "internalType": "uint256",
          "name": "postId",
          "type": "uint256"
        },
        {
          "internalType": "uint256",
          "name": "price",
          "type": "uint256"
        }
      ],
      "name": "PostChainMarket__PriceNotMet",
      "type": "error"
    },
    {
      "inputs": [],
      "name": "PostChainMarket__TransferFailed",
      "type": "error"
    },
    {
      "anonymous": false,
      "inputs": [
        {
          "indexed": true,
          "internalType": "address",
          "name": "buyer",
          "type": "address"
        },
        {
          "indexed": true,
          "internalType": "address",
          "name": "nftAddress",
          "type": "address"
        },
        {
          "indexed": true,
          "internalType": "uint256",
          "name": "postId",
          "type": "uint256"
        },
        {
          "indexed": false,
          "internalType": "uint256",
          "name": "price",
          "type": "uint256"
        }
      ],
      "name": "ItemBought",
      "type": "event"
    },
    {
      "anonymous": false,
      "inputs": [
        {
          "indexed": true,
          "internalType": "address",
          "name": "seller",
          "type": "address"
        },
        {
          "indexed": true,
          "internalType": "address",
          "name": "nftAddress",
          "type": "address"
        },
        {
          "indexed": false,
          "internalType": "uint256",
          "name": "postId",
          "type": "uint256"
        }
      ],
      "name": "ItemCanceled",
      "type": "event"
    },
    {
      "anonymous": false,
      "inputs": [
        {
          "indexed": true,
          "internalType": "address",
          "name": "seller",
          "type": "address"
        },
        {
          "indexed": true,
          "internalType": "address",
          "name": "nftAddress",
          "type": "address"
        },
        {
          "indexed": true,
          "internalType": "uint256",
          "name": "postId",
          "type": "uint256"
        },
        {
          "indexed": false,
          "internalType": "uint256",
          "name": "price",
          "type": "uint256"
        }
      ],
      "name": "ItemListed",
      "type": "event"
    },
    {
      "inputs": [
        {
          "internalType": "address",
          "name": "nftAddress",
          "type": "address"
        },
        {
          "internalType": "uint256",
          "name": "postId",
          "type": "uint256"
        }
      ],
      "name": "buyItem",
      "outputs": [],
      "stateMutability": "payable",
      "type": "function"
    },
    {
      "inputs": [
        {
          "internalType": "address",
          "name": "nftAddress",
          "type": "address"
        },
        {
          "internalType": "uint256",
          "name": "postId",
          "type": "uint256"
        }
      ],
      "name": "cancelItem",
      "outputs": [],
      "stateMutability": "nonpayable",
      "type": "function"
    },
    {
      "inputs": [
        {
          "internalType": "address",
          "name": "nftAddress",
          "type": "address"
        },
        {
          "internalType": "uint256",
          "name": "postId",
          "type": "uint256"
        }
      ],
      "name": "getListing",
      "outputs": [
        {
          "components": [
            {
              "internalType": "uint256",
              "name": "price",
              "type": "uint256"
            },
            {
              "internalType": "address",
              "name": "seller",
              "type": "address"
            }
          ],
          "internalType": "struct PostChainMarket.Listing",
          "name": "",
          "type": "tuple"
        }
      ],
      "stateMutability": "view",
      "type": "function"
    },
    {
      "inputs": [
        {
          "internalType": "address",
          "name": "seller",
          "type": "address"
        }
      ],
      "name": "getProceeds",
      "outputs": [
        {
          "internalType": "uint256",
          "name": "",
          "type": "uint256"
        }
      ],
      "stateMutability": "view",
      "type": "function"
    },
    {
      "inputs": [
        {
          "internalType": "address",
          "name": "nftCreator",
          "type": "address"
        }
      ],
      "name": "getRoyalties",
      "outputs": [
        {
          "internalType": "uint256",
          "name": "",
          "type": "uint256"
        }
      ],
      "stateMutability": "view",
      "type": "function"
    },
    {
      "inputs": [
        {
          "internalType": "address",
          "name": "nftAddress",
          "type": "address"
        },
        {
          "internalType": "uint256",
          "name": "postId",
          "type": "uint256"
        },
        {
          "internalType": "uint256",
          "name": "price",
          "type": "uint256"
        }
      ],
      "name": "listItem",
      "outputs": [],
      "stateMutability": "nonpayable",
      "type": "function"
    },
    {
      "inputs": [
        {
          "internalType": "address",
          "name": "nftAddress",
          "type": "address"
        },
        {
          "internalType": "uint256",
          "name": "postId",
          "type": "uint256"
        },
        {
          "internalType": "uint256",
          "name": "newPrice",
          "type": "uint256"
        }
      ],
      "name": "updateListing",
      "outputs": [],
      "stateMutability": "nonpayable",
      "type": "function"
    },
    {
      "inputs": [],
      "name": "withdrawProceeds",
      "outputs": [],
      "stateMutability": "nonpayable",
      "type": "function"
    },
    {
      "inputs": [],
      "name": "withdrawRoyalties",
      "outputs": [],
      "stateMutability": "nonpayable",
      "type": "function"
    }
  ],
  "bytecode": "0x608060405234801561001057600080fd5b506001600081905550611d52806100286000396000f3fe6080604052600436106100865760003560e01c806389bfd38f1161005957806389bfd38f146101595780638f6d40d2146101825780639038e693146101ab5780639f37092a146101c2578063f772adf1146101de57610086565b806314556a561461008b57806321c34fcb146100c857806330cfeda9146100df57806388700d1c1461011c575b600080fd5b34801561009757600080fd5b506100b260048036038101906100ad919061184d565b610207565b6040516100bf9190611b3c565b60405180910390f35b3480156100d457600080fd5b506100dd610250565b005b3480156100eb57600080fd5b506101066004803603810190610101919061184d565b6103ba565b6040516101139190611b3c565b60405180910390f35b34801561012857600080fd5b50610143600480360381019061013e91906118a7565b610403565b6040516101509190611b21565b60405180910390f35b34801561016557600080fd5b50610180600480360381019061017b9190611927565b6104ce565b005b34801561018e57600080fd5b506101a960048036038101906101a491906118a7565b610946565b005b3480156101b757600080fd5b506101c0610c3f565b005b6101dc60048036038101906101d791906118a7565b610da9565b005b3480156101ea57600080fd5b5061020560048036038101906102009190611927565b611192565b005b6000600360008373ffffffffffffffffffffffffffffffffffffffff1673ffffffffffffffffffffffffffffffffffffffff168152602001908152602001600020549050919050565b6000600360003373ffffffffffffffffffffffffffffffffffffffff1673ffffffffffffffffffffffffffffffffffffffff168152602001908152602001600020549050600081116102ce576040517f2f46395e00000000000000000000000000000000000000000000000000000000815260040160405180910390fd5b6000600360003373ffffffffffffffffffffffffffffffffffffffff1673ffffffffffffffffffffffffffffffffffffffff1681526020019081526020016000208190555060003373ffffffffffffffffffffffffffffffffffffffff168260405161033990611a3a565b60006040518083038185875af1925050503d8060008114610376576040519150601f19603f3d011682016040523d82523d6000602084013e61037b565b606091505b50509050806103b6576040517faf0a305d00000000000000000000000000000000000000000000000000000000815260040160405180910390fd5b5050565b6000600260008373ffffffffffffffffffffffffffffffffffffffff1673ffffffffffffffffffffffffffffffffffffffff168152602001908152602001600020549050919050565b61040b6117c9565b600160008473ffffffffffffffffffffffffffffffffffffffff1673ffffffffffffffffffffffffffffffffffffffff1681526020019081526020016000206000838152602001908152602001600020604051806040016040529081600082015481526020016001820160009054906101000a900473ffffffffffffffffffffffffffffffffffffffff1673ffffffffffffffffffffffffffffffffffffffff1673ffffffffffffffffffffffffffffffffffffffff1681525050905092915050565b8282336000600160008573ffffffffffffffffffffffffffffffffffffffff1673ffffffffffffffffffffffffffffffffffffffff1681526020019081526020016000206000848152602001908152602001600020604051806040016040529081600082015481526020016001820160009054906101000a900473ffffffffffffffffffffffffffffffffffffffff1673ffffffffffffffffffffffffffffffffffffffff1673ffffffffffffffffffffffffffffffffffffffff168152505090506000816000015111156105dc5783836040517f0139dccd0000000000000000000000000000000000000000000000000000000081526004016105d3929190611a86565b60405180910390fd5b868633600083905060008173ffffffffffffffffffffffffffffffffffffffff16636352211e856040518263ffffffff1660e01b815260040161061f9190611b3c565b60206040518083038186803b15801561063757600080fd5b505afa15801561064b573d6000803e3d6000fd5b505050506040513d601f19601f8201168201806040525081019061066f919061187a565b90508073ffffffffffffffffffffffffffffffffffffffff168373ffffffffffffffffffffffffffffffffffffffff16146106d6576040517f588e0f8b00000000000000000000000000000000000000000000000000000000815260040160405180910390fd5b60008a11610710576040517fb686f76e00000000000000000000000000000000000000000000000000000000815260040160405180910390fd5b60008c90503073ffffffffffffffffffffffffffffffffffffffff168173ffffffffffffffffffffffffffffffffffffffff1663081812fc8e6040518263ffffffff1660e01b81526004016107659190611b3c565b60206040518083038186803b15801561077d57600080fd5b505afa158015610791573d6000803e3d6000fd5b505050506040513d601f19601f820116820180604052508101906107b5919061187a565b73ffffffffffffffffffffffffffffffffffffffff1614610802576040517f42b135fc00000000000000000000000000000000000000000000000000000000815260040160405180910390fd5b60405180604001604052808c81526020013373ffffffffffffffffffffffffffffffffffffffff16815250600160008f73ffffffffffffffffffffffffffffffffffffffff1673ffffffffffffffffffffffffffffffffffffffff16815260200190815260200160002060008e81526020019081526020016000206000820151816000015560208201518160010160006101000a81548173ffffffffffffffffffffffffffffffffffffffff021916908373ffffffffffffffffffffffffffffffffffffffff1602179055509050508b8d73ffffffffffffffffffffffffffffffffffffffff163373ffffffffffffffffffffffffffffffffffffffff167fd547e933094f12a9159076970143ebe73234e64480317844b0dcb36117116de48e60405161092f9190611b3c565b60405180910390a450505050505050505050505050565b818133600083905060008173ffffffffffffffffffffffffffffffffffffffff16636352211e856040518263ffffffff1660e01b81526004016109899190611b3c565b60206040518083038186803b1580156109a157600080fd5b505afa1580156109b5573d6000803e3d6000fd5b505050506040513d601f19601f820116820180604052508101906109d9919061187a565b90508073ffffffffffffffffffffffffffffffffffffffff168373ffffffffffffffffffffffffffffffffffffffff1614610a40576040517f588e0f8b00000000000000000000000000000000000000000000000000000000815260040160405180910390fd5b86866000600160008473ffffffffffffffffffffffffffffffffffffffff1673ffffffffffffffffffffffffffffffffffffffff1681526020019081526020016000206000838152602001908152602001600020604051806040016040529081600082015481526020016001820160009054906101000a900473ffffffffffffffffffffffffffffffffffffffff1673ffffffffffffffffffffffffffffffffffffffff1673ffffffffffffffffffffffffffffffffffffffff168152505090506000816000015111610b4c5782826040517f7a01a344000000000000000000000000000000000000000000000000000000008152600401610b43929190611a86565b60405180910390fd5b600160008b73ffffffffffffffffffffffffffffffffffffffff1673ffffffffffffffffffffffffffffffffffffffff16815260200190815260200160002060008a81526020019081526020016000206000808201600090556001820160006101000a81549073ffffffffffffffffffffffffffffffffffffffff021916905550508973ffffffffffffffffffffffffffffffffffffffff163373ffffffffffffffffffffffffffffffffffffffff167f9ba1a3cb55ce8d63d072a886f94d2a744f50cddf82128e897d0661f5ec6231588b604051610c2b9190611b3c565b60405180910390a350505050505050505050565b6000600260003373ffffffffffffffffffffffffffffffffffffffff1673ffffffffffffffffffffffffffffffffffffffff16815260200190815260200160002054905060008111610cbd576040517f70949a1c00000000000000000000000000000000000000000000000000000000815260040160405180910390fd5b6000600260003373ffffffffffffffffffffffffffffffffffffffff1673ffffffffffffffffffffffffffffffffffffffff1681526020019081526020016000208190555060003373ffffffffffffffffffffffffffffffffffffffff1682604051610d2890611a3a565b60006040518083038185875af1925050503d8060008114610d65576040519150601f19603f3d011682016040523d82523d6000602084013e610d6a565b606091505b5050905080610da5576040517faf0a305d00000000000000000000000000000000000000000000000000000000815260040160405180910390fd5b5050565b60026000541415610def576040517f08c379a0000000000000000000000000000000000000000000000000000000008152600401610de690611b01565b60405180910390fd5b600260008190555081816000600160008473ffffffffffffffffffffffffffffffffffffffff1673ffffffffffffffffffffffffffffffffffffffff1681526020019081526020016000206000838152602001908152602001600020604051806040016040529081600082015481526020016001820160009054906101000a900473ffffffffffffffffffffffffffffffffffffffff1673ffffffffffffffffffffffffffffffffffffffff1673ffffffffffffffffffffffffffffffffffffffff168152505090506000816000015111610f035782826040517f7a01a344000000000000000000000000000000000000000000000000000000008152600401610efa929190611a86565b60405180910390fd5b6000600160008773ffffffffffffffffffffffffffffffffffffffff1673ffffffffffffffffffffffffffffffffffffffff1681526020019081526020016000206000868152602001908152602001600020604051806040016040529081600082015481526020016001820160009054906101000a900473ffffffffffffffffffffffffffffffffffffffff1673ffffffffffffffffffffffffffffffffffffffff1673ffffffffffffffffffffffffffffffffffffffff16815250509050806000015134101561101357858582600001516040517f1d06555000000000000000000000000000000000000000000000000000000000815260040161100a93929190611aaf565b60405180910390fd5b6110238686836020015134611463565b600160008773ffffffffffffffffffffffffffffffffffffffff1673ffffffffffffffffffffffffffffffffffffffff16815260200190815260200160002060008681526020019081526020016000206000808201600090556001820160006101000a81549073ffffffffffffffffffffffffffffffffffffffff021916905550508573ffffffffffffffffffffffffffffffffffffffff166342842e0e826020015133886040518463ffffffff1660e01b81526004016110e693929190611a4f565b600060405180830381600087803b15801561110057600080fd5b505af1158015611114573d6000803e3d6000fd5b50505050848673ffffffffffffffffffffffffffffffffffffffff163373ffffffffffffffffffffffffffffffffffffffff167f263223b1dd81e51054a4e6f791d45a4a1ddb4aadcd93a2dfd892615c3fdac187846000015160405161117a9190611b3c565b60405180910390a45050505060016000819055505050565b82826000600160008473ffffffffffffffffffffffffffffffffffffffff1673ffffffffffffffffffffffffffffffffffffffff1681526020019081526020016000206000838152602001908152602001600020604051806040016040529081600082015481526020016001820160009054906101000a900473ffffffffffffffffffffffffffffffffffffffff1673ffffffffffffffffffffffffffffffffffffffff1673ffffffffffffffffffffffffffffffffffffffff16815250509050600081600001511161129e5782826040517f7a01a344000000000000000000000000000000000000000000000000000000008152600401611295929190611a86565b60405180910390fd5b858533600083905060008173ffffffffffffffffffffffffffffffffffffffff16636352211e856040518263ffffffff1660e01b81526004016112e19190611b3c565b60206040518083038186803b1580156112f957600080fd5b505afa15801561130d573d6000803e3d6000fd5b505050506040513d601f19601f82011682018060405250810190611331919061187a565b90508073ffffffffffffffffffffffffffffffffffffffff168373ffffffffffffffffffffffffffffffffffffffff1614611398576040517f588e0f8b00000000000000000000000000000000000000000000000000000000815260040160405180910390fd5b88600160008d73ffffffffffffffffffffffffffffffffffffffff1673ffffffffffffffffffffffffffffffffffffffff16815260200190815260200160002060008c815260200190815260200160002060000181905550898b73ffffffffffffffffffffffffffffffffffffffff163373ffffffffffffffffffffffffffffffffffffffff167fd547e933094f12a9159076970143ebe73234e64480317844b0dcb36117116de48c60405161144e9190611b3c565b60405180910390a45050505050505050505050565b6000806114728686868661157e565b91509150600081846114849190611bf2565b90506000821180156114c357508273ffffffffffffffffffffffffffffffffffffffff16600073ffffffffffffffffffffffffffffffffffffffff1614155b1561151f5781600360008573ffffffffffffffffffffffffffffffffffffffff1673ffffffffffffffffffffffffffffffffffffffff16815260200190815260200160002060008282546115179190611b9c565b925050819055505b80600260008773ffffffffffffffffffffffffffffffffffffffff1673ffffffffffffffffffffffffffffffffffffffff168152602001908152602001600020600082825461156e9190611b9c565b9250508190555050505050505050565b6000806115ab867f2a55205a00000000000000000000000000000000000000000000000000000000611698565b15611687576000808773ffffffffffffffffffffffffffffffffffffffff16632a55205a88876040518363ffffffff1660e01b81526004016115ee929190611b57565b604080518083038186803b15801561160557600080fd5b505afa158015611619573d6000803e3d6000fd5b505050506040513d601f19601f8201168201806040525081019061163d91906118e7565b915091508573ffffffffffffffffffffffffffffffffffffffff168273ffffffffffffffffffffffffffffffffffffffff16141561167a57600090505b818193509350505061168f565b600080915091505b94509492505050565b60006116a3836116bd565b80156116b557506116b4838361170a565b5b905092915050565b60006116e9827f01ffc9a70000000000000000000000000000000000000000000000000000000061170a565b801561170357506117018263ffffffff60e01b61170a565b155b9050919050565b6000806301ffc9a760e01b836040516024016117269190611ae6565b604051602081830303815290604052907bffffffffffffffffffffffffffffffffffffffffffffffffffffffff19166020820180517bffffffffffffffffffffffffffffffffffffffffffffffffffffffff838183161783525050505090506000806000602060008551602087018a617530fa92503d915060005190508280156117b1575060208210155b80156117bd5750600081115b94505050505092915050565b604051806040016040528060008152602001600073ffffffffffffffffffffffffffffffffffffffff1681525090565b60008135905061180881611cee565b92915050565b60008151905061181d81611cee565b92915050565b60008135905061183281611d05565b92915050565b60008151905061184781611d05565b92915050565b60006020828403121561186357611862611cbd565b5b6000611871848285016117f9565b91505092915050565b6000602082840312156118905761188f611cbd565b5b600061189e8482850161180e565b91505092915050565b600080604083850312156118be576118bd611cbd565b5b60006118cc858286016117f9565b92505060206118dd85828601611823565b9150509250929050565b600080604083850312156118fe576118fd611cbd565b5b600061190c8582860161180e565b925050602061191d85828601611838565b9150509250929050565b6000806000606084860312156119405761193f611cbd565b5b600061194e868287016117f9565b935050602061195f86828701611823565b925050604061197086828701611823565b9150509250925092565b61198381611c26565b82525050565b61199281611c26565b82525050565b6119a181611c38565b82525050565b60006119b4600083611b80565b91506119bf82611cc2565b600082019050919050565b60006119d7601f83611b8b565b91506119e282611cc5565b602082019050919050565b604082016000820151611a036000850182611a1c565b506020820151611a16602085018261197a565b50505050565b611a2581611c84565b82525050565b611a3481611c84565b82525050565b6000611a45826119a7565b9150819050919050565b6000606082019050611a646000830186611989565b611a716020830185611989565b611a7e6040830184611a2b565b949350505050565b6000604082019050611a9b6000830185611989565b611aa86020830184611a2b565b9392505050565b6000606082019050611ac46000830186611989565b611ad16020830185611a2b565b611ade6040830184611a2b565b949350505050565b6000602082019050611afb6000830184611998565b92915050565b60006020820190508181036000830152611b1a816119ca565b9050919050565b6000604082019050611b3660008301846119ed565b92915050565b6000602082019050611b516000830184611a2b565b92915050565b6000604082019050611b6c6000830185611a2b565b611b796020830184611a2b565b9392505050565b600081905092915050565b600082825260208201905092915050565b6000611ba782611c84565b9150611bb283611c84565b9250827fffffffffffffffffffffffffffffffffffffffffffffffffffffffffffffffff03821115611be757611be6611c8e565b5b828201905092915050565b6000611bfd82611c84565b9150611c0883611c84565b925082821015611c1b57611c1a611c8e565b5b828203905092915050565b6000611c3182611c64565b9050919050565b60007fffffffff0000000000000000000000000000000000000000000000000000000082169050919050565b600073ffffffffffffffffffffffffffffffffffffffff82169050919050565b6000819050919050565b7f4e487b7100000000000000000000000000000000000000000000000000000000600052601160045260246000fd5b600080fd5b50565b7f5265656e7472616e637947756172643a207265656e7472616e742063616c6c00600082015250565b611cf781611c26565b8114611d0257600080fd5b50565b611d0e81611c84565b8114611d1957600080fd5b5056fea264697066735822122034207bd7bd312744262b28dc7ce944d9a101e48fe63cfa87a7e4d5e09907cdf564736f6c63430008070033",
  "linkReferences": {},
  "deployedLinkReferences": {}
}